{
	"data": {
		"bytecode": {
			"linkReferences": {},
			"object": "60a0604052604051600e906070565b604051809103905ff0801580156026573d5f5f3e3d5ffd5b5073ffffffffffffffffffffffffffffffffffffffff1660809073ffffffffffffffffffffffffffffffffffffffff168152503480156063575f5ffd5b506001600281905550607d565b61033f8061601483390190565b608051615f7f6100955f395f6125ec0152615f7f5ff3fe60806040526004361061010c575f3560e01c80637483aafa11610094578063a257825311610063578063a257825314610394578063b760faf9146103d0578063bb9fe6bf146103ec578063c23a5cea14610402578063fc7e286d1461042a5761011c565b80637483aafa146102e0578063767f4d7e14610308578063850aaf62146103445780639b249f691461036c5761011c565b8063205c2878116100db578063205c2878146101dc57806320e61ef31461020457806335567e1a1461022c5780635287ce121461026857806370a08231146102a45761011c565b806301ffc9a7146101205780630396cb601461015c5780630bd28e3b146101785780631b2e01b8146101a05761011c565b3661011c5761011a3361046a565b005b5f5ffd5b34801561012b575f5ffd5b50610146600480360381019061014191906137ad565b6104c9565b60405161015391906137f2565b60405180910390f35b61017660048036038101906101719190613844565b6106be565b005b348015610183575f5ffd5b5061019e600480360381019061019991906138bc565b610a0d565b005b3480156101ab575f5ffd5b506101c660048036038101906101c19190613941565b610aa5565b6040516101d39190613997565b60405180910390f35b3480156101e7575f5ffd5b5061020260048036038101906101fd9190613a15565b610ac5565b005b34801561020f575f5ffd5b5061022a60048036038101906102259190613ab4565b610c5e565b005b348015610237575f5ffd5b50610252600480360381019061024d9190613941565b610df3565b60405161025f9190613997565b60405180910390f35b348015610273575f5ffd5b5061028e60048036038101906102899190613b11565b610e9d565b60405161029b9190613c17565b60405180910390f35b3480156102af575f5ffd5b506102ca60048036038101906102c59190613b11565b610fac565b6040516102d79190613997565b60405180910390f35b3480156102eb575f5ffd5b5061030660048036038101906103019190613c85565b610ff3565b005b348015610313575f5ffd5b5061032e60048036038101906103299190613d05565b6114d3565b60405161033b9190613d64565b60405180910390f35b34801561034f575f5ffd5b5061036a60048036038101906103659190613dd2565b61150e565b005b348015610377575f5ffd5b50610392600480360381019061038d9190613e2f565b6115b8565b005b34801561039f575f5ffd5b506103ba60048036038101906103b591906141b4565b61167a565b6040516103c79190613997565b60405180910390f35b6103ea60048036038101906103e59190613b11565b61046a565b005b3480156103f7575f5ffd5b5061040061181d565b005b34801561040d575f5ffd5b5061042860048036038101906104239190614243565b6119c5565b005b348015610435575f5ffd5b50610450600480360381019061044b9190613b11565b611cb8565b60405161046195949392919061429b565b60405180910390f35b5f6104758234611d31565b90508173ffffffffffffffffffffffffffffffffffffffff167f2da466a7b24304f47e87fa2e1e5a81b9831ce54fec19055ce277ca2f39ba42c4826040516104bd9190613997565b60405180910390a25050565b5f7f3e84f021000000000000000000000000000000000000000000000000000000007fcf28ef97000000000000000000000000000000000000000000000000000000007f3c34c97c0000000000000000000000000000000000000000000000000000000018187bffffffffffffffffffffffffffffffffffffffffffffffffffffffff1916827bffffffffffffffffffffffffffffffffffffffffffffffffffffffff191614806105d757507f3c34c97c000000000000000000000000000000000000000000000000000000007bffffffffffffffffffffffffffffffffffffffffffffffffffffffff1916827bffffffffffffffffffffffffffffffffffffffffffffffffffffffff1916145b8061063f57507fcf28ef97000000000000000000000000000000000000000000000000000000007bffffffffffffffffffffffffffffffffffffffffffffffffffffffff1916827bffffffffffffffffffffffffffffffffffffffffffffffffffffffff1916145b806106a757507f3e84f021000000000000000000000000000000000000000000000000000000007bffffffffffffffffffffffffffffffffffffffffffffffffffffffff1916827bffffffffffffffffffffffffffffffffffffffffffffffffffffffff1916145b806106b757506106b682611d96565b5b9050919050565b5f5f5f3373ffffffffffffffffffffffffffffffffffffffff1673ffffffffffffffffffffffffffffffffffffffff1681526020019081526020015f2090505f8263ffffffff1611610745576040517f08c379a000000000000000000000000000000000000000000000000000000000815260040161073c90614346565b60405180910390fd5b80600101600f9054906101000a900463ffffffff1663ffffffff168263ffffffff1610156107a8576040517f08c379a000000000000000000000000000000000000000000000000000000000815260040161079f906143ae565b60405180910390fd5b5f348260010160019054906101000a90046dffffffffffffffffffffffffffff166dffffffffffffffffffffffffffff166107e391906143f9565b90505f8111610827576040517f08c379a000000000000000000000000000000000000000000000000000000000815260040161081e90614476565b60405180910390fd5b6dffffffffffffffffffffffffffff801681111561087a576040517f08c379a0000000000000000000000000000000000000000000000000000000008152600401610871906144de565b60405180910390fd5b6040518060a00160405280835f01548152602001600115158152602001826dffffffffffffffffffffffffffff1681526020018463ffffffff1681526020015f65ffffffffffff168152505f5f3373ffffffffffffffffffffffffffffffffffffffff1673ffffffffffffffffffffffffffffffffffffffff1681526020019081526020015f205f820151815f01556020820151816001015f6101000a81548160ff02191690831515021790555060408201518160010160016101000a8154816dffffffffffffffffffffffffffff02191690836dffffffffffffffffffffffffffff160217905550606082015181600101600f6101000a81548163ffffffff021916908363ffffffff16021790555060808201518160010160136101000a81548165ffffffffffff021916908365ffffffffffff1602179055509050503373ffffffffffffffffffffffffffffffffffffffff167fa5ae833d0bb1dcd632d98a8b70973e8516812898e19bf27b70071ebc8dc52c018285604051610a00929190614535565b60405180910390a2505050565b60015f3373ffffffffffffffffffffffffffffffffffffffff1673ffffffffffffffffffffffffffffffffffffffff1681526020019081526020015f205f8277ffffffffffffffffffffffffffffffffffffffffffffffff1677ffffffffffffffffffffffffffffffffffffffffffffffff1681526020019081526020015f205f815480929190610a9d9061455c565b919050555050565b6001602052815f5260405f20602052805f5260405f205f91509150505481565b5f5f5f3373ffffffffffffffffffffffffffffffffffffffff1673ffffffffffffffffffffffffffffffffffffffff1681526020019081526020015f209050805f0154821115610b4a576040517f08c379a0000000000000000000000000000000000000000000000000000000008152600401610b41906145ed565b60405180910390fd5b81815f0154610b59919061460b565b815f01819055503373ffffffffffffffffffffffffffffffffffffffff167fd1c19fbcd4551a5edfb66d43d2e337c04837afda3482b42bdf569a8fccdae5fb8484604051610ba8929190614690565b60405180910390a25f8373ffffffffffffffffffffffffffffffffffffffff1683604051610bd5906146e4565b5f6040518083038185875af1925050503d805f8114610c0f576040519150601f19603f3d011682016040523d82523d5f602084013e610c14565b606091505b5050905080610c58576040517f08c379a0000000000000000000000000000000000000000000000000000000008152600401610c4f90614742565b60405180910390fd5b50505050565b610c66611dff565b5f8383905090505f8167ffffffffffffffff811115610c8857610c87613e8e565b5b604051908082528060200260200182016040528015610cc157816020015b610cae613603565b815260200190600190039081610ca65790505b5090505f5f90505b82811015610d40575f828281518110610ce557610ce4614760565b5b602002602001015190505f5f610d20848a8a87818110610d0857610d07614760565b5b9050602002810190610d1a9190614799565b85611e43565b91509150610d308483835f611ffa565b5050508080600101915050610cc9565b505f5f90507fbb47ee3e183a558b1a2ff0874b079f3fc5478b7454eacf2bfc5af2ff5878f97260405160405180910390a15f5f90505b83811015610dd857610dc781888884818110610d9557610d94614760565b5b9050602002810190610da79190614799565b858481518110610dba57610db9614760565b5b602002602001015161218a565b820191508080600101915050610d76565b50610de3848261251a565b505050610dee6125c7565b505050565b5f60408277ffffffffffffffffffffffffffffffffffffffffffffffff16901b60015f8573ffffffffffffffffffffffffffffffffffffffff1673ffffffffffffffffffffffffffffffffffffffff1681526020019081526020015f205f8477ffffffffffffffffffffffffffffffffffffffffffffffff1677ffffffffffffffffffffffffffffffffffffffffffffffff1681526020019081526020015f205417905092915050565b610ea5613634565b5f5f8373ffffffffffffffffffffffffffffffffffffffff1673ffffffffffffffffffffffffffffffffffffffff1681526020019081526020015f206040518060a00160405290815f8201548152602001600182015f9054906101000a900460ff161515151581526020016001820160019054906101000a90046dffffffffffffffffffffffffffff166dffffffffffffffffffffffffffff166dffffffffffffffffffffffffffff16815260200160018201600f9054906101000a900463ffffffff1663ffffffff1663ffffffff1681526020016001820160139054906101000a900465ffffffffffff1665ffffffffffff1665ffffffffffff16815250509050919050565b5f5f5f8373ffffffffffffffffffffffffffffffffffffffff1673ffffffffffffffffffffffffffffffffffffffff1681526020019081526020015f205f01549050919050565b610ffb611dff565b5f8383905090505f5f90505f5f90505b828110156111a9573686868381811061102757611026614760565b5b905060200281019061103991906147c1565b9050365f82805f019061104c91906147e8565b915091505f8360200160208101906110649190614885565b9050600173ffffffffffffffffffffffffffffffffffffffff168173ffffffffffffffffffffffffffffffffffffffff160361109e575f5ffd5b5f73ffffffffffffffffffffffffffffffffffffffff168173ffffffffffffffffffffffffffffffffffffffff1614611187578073ffffffffffffffffffffffffffffffffffffffff166390faf19284848780604001906110ff91906148b0565b6040518563ffffffff1660e01b815260040161111e9493929190614c93565b5f6040518083038186803b158015611134575f5ffd5b505afa925050508015611145575060015b61118657806040517f86a9f75000000000000000000000000000000000000000000000000000000000815260040161117d9190614cdb565b60405180910390fd5b5b828290508661119691906143f9565b955050505050808060010191505061100b565b505f8167ffffffffffffffff8111156111c5576111c4613e8e565b5b6040519080825280602002602001820160405280156111fe57816020015b6111eb613603565b8152602001906001900390816111e35790505b5090505f5f90505f5f90505b84811015611309573688888381811061122657611225614760565b5b905060200281019061123891906147c1565b9050365f82805f019061124b91906147e8565b915091505f8360200160208101906112639190614885565b90505f8383905090505f5f90505b818110156112f6575f89898151811061128d5761128c614760565b5b602002602001015190505f5f6112c88b8989878181106112b0576112af614760565b5b90506020028101906112c29190614799565b85611e43565b915091506112d884838389611ffa565b8a806112e39061455c565b9b50505050508080600101915050611271565b505050505050808060010191505061120a565b507fbb47ee3e183a558b1a2ff0874b079f3fc5478b7454eacf2bfc5af2ff5878f97260405160405180910390a15f5f90505f91505f5f90505b85811015611473573689898381811061135e5761135d614760565b5b905060200281019061137091906147c1565b90508060200160208101906113859190614885565b73ffffffffffffffffffffffffffffffffffffffff167f575ff3acadd5ab348fe1855e217e0f3678f8d767d7494c9f9fefbee2e17cca4d60405160405180910390a2365f82805f01906113d891906147e8565b915091505f8282905090505f5f90505b81811015611461576114398885858481811061140757611406614760565b5b90506020028101906114199190614799565b8b8b8151811061142c5761142b614760565b5b602002602001015161218a565b8761144491906143f9565b965087806114519061455c565b98505080806001019150506113e8565b50505050508080600101915050611342565b505f73ffffffffffffffffffffffffffffffffffffffff167f575ff3acadd5ab348fe1855e217e0f3678f8d767d7494c9f9fefbee2e17cca4d60405160405180910390a26114c1868261251a565b50505050506114ce6125c7565b505050565b5f6114dd826125d1565b30466040516020016114f193929190614cf4565b604051602081830303815290604052805190602001209050919050565b5f5f8473ffffffffffffffffffffffffffffffffffffffff168484604051611537929190614d4d565b5f60405180830381855af49150503d805f811461156f576040519150601f19603f3d011682016040523d82523d5f602084013e611574565b606091505b509150915081816040517f994105540000000000000000000000000000000000000000000000000000000081526004016115af929190614db5565b60405180910390fd5b5f6115c16125e9565b73ffffffffffffffffffffffffffffffffffffffff1663570e1a3684846040518363ffffffff1660e01b81526004016115fb929190614de3565b6020604051808303815f875af1158015611617573d5f5f3e3d5ffd5b505050506040513d601f19601f8201168201806040525081019061163b9190614e19565b9050806040517f6ca7b8060000000000000000000000000000000000000000000000000000000081526004016116719190614cdb565b60405180910390fd5b5f5f5a90503073ffffffffffffffffffffffffffffffffffffffff163373ffffffffffffffffffffffffffffffffffffffff16146116b6575f5ffd5b5f855f015190505f816080015190506127108260c001518201016040603f5a02816116e4576116e3614e44565b5b041015611713577fdeaddead000000000000000000000000000000000000000000000000000000005f5260205ffd5b5f5f90505f895111156117b3575f611730845f01515f8c86612610565b9050806117b1575f611743610800612627565b90505f815111156117ab57845f015173ffffffffffffffffffffffffffffffffffffffff168a602001517f1c4fada7374c0a9ee8841fc38afe82932dc0f8e69012e927f061a8bae611a2018760200151846040516117a2929190614e71565b60405180910390a35b60019250505b505b5f88608001515a860301905061180e828a8a8a8080601f0160208091040260200160405190810160405280939291908181526020018383808284375f81840152601f19601f8201169050808301925050505050505084612656565b95505050505050949350505050565b5f5f5f3373ffffffffffffffffffffffffffffffffffffffff1673ffffffffffffffffffffffffffffffffffffffff1681526020019081526020015f2090505f81600101600f9054906101000a900463ffffffff1663ffffffff16036118b8576040517f08c379a00000000000000000000000000000000000000000000000000000000081526004016118af90614ee9565b60405180910390fd5b806001015f9054906101000a900460ff16611908576040517f08c379a00000000000000000000000000000000000000000000000000000000081526004016118ff90614f51565b60405180910390fd5b5f81600101600f9054906101000a900463ffffffff1663ffffffff164261192f9190614f6f565b9050808260010160136101000a81548165ffffffffffff021916908365ffffffffffff1602179055505f826001015f6101000a81548160ff0219169083151502179055503373ffffffffffffffffffffffffffffffffffffffff167ffa9b3c14cc825c412c9ed81b3ba365a5b459439403f18829e572ed53a4180f0a826040516119b99190614fd8565b60405180910390a25050565b5f5f5f3373ffffffffffffffffffffffffffffffffffffffff1673ffffffffffffffffffffffffffffffffffffffff1681526020019081526020015f2090505f8160010160019054906101000a90046dffffffffffffffffffffffffffff166dffffffffffffffffffffffffffff1690505f8111611a78576040517f08c379a0000000000000000000000000000000000000000000000000000000008152600401611a6f9061503b565b60405180910390fd5b5f8260010160139054906101000a900465ffffffffffff1665ffffffffffff1611611ad8576040517f08c379a0000000000000000000000000000000000000000000000000000000008152600401611acf906150a3565b60405180910390fd5b428260010160139054906101000a900465ffffffffffff1665ffffffffffff161115611b39576040517f08c379a0000000000000000000000000000000000000000000000000000000008152600401611b309061510b565b60405180910390fd5b5f82600101600f6101000a81548163ffffffff021916908363ffffffff1602179055505f8260010160136101000a81548165ffffffffffff021916908365ffffffffffff1602179055505f8260010160016101000a8154816dffffffffffffffffffffffffffff02191690836dffffffffffffffffffffffffffff1602179055503373ffffffffffffffffffffffffffffffffffffffff167fb7c918e0e249f999e965cafeb6c664271b3f4317d296461500e71da39f0cbda38483604051611c02929190614690565b60405180910390a25f8373ffffffffffffffffffffffffffffffffffffffff1682604051611c2f906146e4565b5f6040518083038185875af1925050503d805f8114611c69576040519150601f19603f3d011682016040523d82523d5f602084013e611c6e565b606091505b5050905080611cb2576040517f08c379a0000000000000000000000000000000000000000000000000000000008152600401611ca990615173565b60405180910390fd5b50505050565b5f602052805f5260405f205f91509050805f015490806001015f9054906101000a900460ff16908060010160019054906101000a90046dffffffffffffffffffffffffffff169080600101600f9054906101000a900463ffffffff16908060010160139054906101000a900465ffffffffffff16905085565b5f5f5f5f8573ffffffffffffffffffffffffffffffffffffffff1673ffffffffffffffffffffffffffffffffffffffff1681526020019081526020015f2090505f83825f0154611d8191906143f9565b905080825f0181905550809250505092915050565b5f7f01ffc9a7000000000000000000000000000000000000000000000000000000007bffffffffffffffffffffffffffffffffffffffffffffffffffffffff1916827bffffffffffffffffffffffffffffffffffffffffffffffffffffffff1916149050919050565b6002805403611e3a576040517f3ee5aeb500000000000000000000000000000000000000000000000000000000815260040160405180910390fd5b60028081905550565b5f5f5f5a90505f845f01519050611e5a86826128e2565b611e63866114d3565b8560200181815250505f816060015190505f8261014001518361012001518460c001518560a001518660800151868860e0015117171717171790506effffffffffffffffffffffffffffff8016811115611ebb575f5ffd5b5f611ec584612a63565b9050611ed48a8a8a8487612a94565b9650611ee7845f01518560200151612cc5565b611f2857896040517f220266b6000000000000000000000000000000000000000000000000000000008152600401611f1f91906151db565b60405180910390fd5b825a86031115611f6f57896040517f220266b6000000000000000000000000000000000000000000000000000000008152600401611f669190615251565b60405180910390fd5b60605f73ffffffffffffffffffffffffffffffffffffffff1685610100015173ffffffffffffffffffffffffffffffffffffffff1614611fbe57611fb58b8b8b85612d7c565b80985081925050505b81896040018181525050611fd181612f5c565b8960600181815250508960c001355a870301896080018181525050505050505050935093915050565b5f5f61200585612f65565b915091508173ffffffffffffffffffffffffffffffffffffffff168373ffffffffffffffffffffffffffffffffffffffff161461207957856040517f220266b600000000000000000000000000000000000000000000000000000000815260040161207091906152c7565b60405180910390fd5b80156120bc57856040517f220266b60000000000000000000000000000000000000000000000000000000081526004016120b3919061533d565b60405180910390fd5b5f6120c685612f65565b80935081925050505f73ffffffffffffffffffffffffffffffffffffffff168173ffffffffffffffffffffffffffffffffffffffff161461213e57866040517f220266b600000000000000000000000000000000000000000000000000000000815260040161213591906153b3565b60405180910390fd5b811561218157866040517f220266b6000000000000000000000000000000000000000000000000000000008152600401612178919061544f565b60405180910390fd5b50505050505050565b5f5f5a90505f61219d8460600151612fb9565b90505f5f6040519050365f8880608001906121b891906148b0565b9150915060605f8260038111156121ce57843591505b506378c99fa360e01b7bffffffffffffffffffffffffffffffffffffffffffffffffffffffff1916817bffffffffffffffffffffffffffffffffffffffffffffffffffffffff1916036122f5575f8b8b602001516040516024016122339291906155bf565b6040516020818303038152906040526378c99fa360e01b6020820180517bffffffffffffffffffffffffffffffffffffffffffffffffffffffff838183161783525050505090503073ffffffffffffffffffffffffffffffffffffffff1663a2578253828d8b6040516024016122ab93929190615737565b604051602081830303815290604052915060e01b6020820180517bffffffffffffffffffffffffffffffffffffffffffffffffffffffff838183161783525050505092505061236d565b3073ffffffffffffffffffffffffffffffffffffffff1663a257825385858d8b604051602401612328949392919061577c565b604051602081830303815290604052915060e01b6020820180517bffffffffffffffffffffffffffffffffffffffffffffffffffffffff838183161783525050505091505b60205f8351602085015f305af195505f51985084604052505050505080612510575f3d806020036123a25760205f5f3e5f5191505b507fdeaddead00000000000000000000000000000000000000000000000000000000810361240757876040517f220266b60000000000000000000000000000000000000000000000000000000081526004016123fe919061580d565b60405180910390fd5b7fdeadaa51000000000000000000000000000000000000000000000000000000008103612473575f86608001515a86612440919061460b565b61244a91906143f9565b90505f8760400151905061245d88612fc3565b612469885f8385613026565b809650505061250e565b855f01515f015173ffffffffffffffffffffffffffffffffffffffff1686602001517ff62676f440ff169a3a9afdbf812e89e7f95975ee8e5c31214ffdef631c5f4792885f0151602001516124c9610800612627565b6040516124d7929190614e71565b60405180910390a35f86608001515a866124f1919061460b565b6124fb91906143f9565b905061250a6002888684612656565b9550505b505b5050509392505050565b5f73ffffffffffffffffffffffffffffffffffffffff168273ffffffffffffffffffffffffffffffffffffffff1603612551575f5ffd5b5f8273ffffffffffffffffffffffffffffffffffffffff1682604051612576906146e4565b5f6040518083038185875af1925050503d805f81146125b0576040519150601f19603f3d011682016040523d82523d5f602084013e6125b5565b606091505b50509050806125c2575f5ffd5b505050565b6001600281905550565b5f6125db826130b1565b805190602001209050919050565b5f7f0000000000000000000000000000000000000000000000000000000000000000905090565b5f5f5f845160208601878987f19050949350505050565b60603d82811115612636578290505b604051602082018101604052818152815f602083013e8092505050919050565b5f5f5a90505f5f865f015190505f61266d8261316e565b90505f82610100015190505f73ffffffffffffffffffffffffffffffffffffffff168173ffffffffffffffffffffffffffffffffffffffff16036126b657825f015193506127b1565b8093505f885111156127b05781870295506002808111156126da576126d9615839565b5b8a60028111156126ed576126ec615839565b5b146127af578073ffffffffffffffffffffffffffffffffffffffff16637c627b218460c001518c8b8a876040518663ffffffff1660e01b815260040161273694939291906158ac565b5f604051808303815f88803b15801561274d575f5ffd5b5087f19350505050801561275f575060015b6127ae575f61276f610800612627565b9050806040517fad7954bc0000000000000000000000000000000000000000000000000000000081526004016127a591906158f6565b60405180910390fd5b5b5b5b5a8503870196505f8360c0015184608001510190505f8a6080015189039050808211156127fe575f81830390505f6064600a8302816127f3576127f2614e44565b5b049050808b019a5050505b505081870295505f896040015190508681101561288a5760028081111561282857612827615839565b5b8b600281111561283b5761283a615839565b5b0361285d5780965061284c8a612fc3565b6128588a5f898b613026565b612885565b7fdeadaa51000000000000000000000000000000000000000000000000000000005f5260205ffd5b6128d4565b5f878203905061289a8682611d31565b505f5f60028111156128af576128ae615839565b5b8d60028111156128c2576128c1615839565b5b1490506128d18c828b8d613026565b50505b505050505050949350505050565b815f0160208101906128f49190613b11565b815f019073ffffffffffffffffffffffffffffffffffffffff16908173ffffffffffffffffffffffffffffffffffffffff168152505081602001358160200181815250506129458260a001356131a8565b8260600183608001828152508281525050508160c001358160e00181815250506129728260e001356131a8565b8261014001836101200182815250828152505050365f8380610100019061299991906148b0565b915091505f828290501115612a0f5760348282905010156129b8575f5ffd5b6129c282826131e4565b85610100018660a0018760c00183815250838152508373ffffffffffffffffffffffffffffffffffffffff1673ffffffffffffffffffffffffffffffffffffffff16815250505050612a5d565b5f83610100019073ffffffffffffffffffffffffffffffffffffffff16908173ffffffffffffffffffffffffffffffffffffffff16815250505f8360a00181815250505f8360c00181815250505b50505050565b5f5f8260e001518360c001518460a00151856080015186606001510101010190508261012001518102915050919050565b5f5f845f015190505f815f01519050612abd8887898060600190612ab891906148b0565b613283565b5f82610100015190505f5f90505f73ffffffffffffffffffffffffffffffffffffffff168273ffffffffffffffffffffffffffffffffffffffff1603612b1e575f612b0784610fac565b9050878111612b1857808803612b1a565b5f5b9150505b8273ffffffffffffffffffffffffffffffffffffffff1663ab021f7c878b8b60200151856040518563ffffffff1660e01b8152600401612b6093929190615916565b6020604051808303815f8887f193505050508015612b9c57506040513d601f19601f82011682018060405250810190612b999190615966565b60015b612be95789612bac610800612627565b6040517f65c8fd4d000000000000000000000000000000000000000000000000000000008152600401612be09291906159db565b60405180910390fd5b809550505f73ffffffffffffffffffffffffffffffffffffffff168273ffffffffffffffffffffffffffffffffffffffff1603612cb8575f5f5f8573ffffffffffffffffffffffffffffffffffffffff1673ffffffffffffffffffffffffffffffffffffffff1681526020019081526020015f2090505f815f0154905080891115612cab578b6040517f220266b6000000000000000000000000000000000000000000000000000000008152600401612ca29190615a3c565b60405180910390fd5b888103825f018190555050505b5050505095945050505050565b5f5f604083901c90505f8390508067ffffffffffffffff1660015f8773ffffffffffffffffffffffffffffffffffffffff1673ffffffffffffffffffffffffffffffffffffffff1681526020019081526020015f205f8477ffffffffffffffffffffffffffffffffffffffffffffffff1677ffffffffffffffffffffffffffffffffffffffffffffffff1681526020019081526020015f205f815480929190612d6d9061455c565b91905055149250505092915050565b60605f5f5a90505f855f015190505f81610100015190505f5f5f8373ffffffffffffffffffffffffffffffffffffffff1673ffffffffffffffffffffffffffffffffffffffff1681526020019081526020015f2090505f815f0154905087811015612e1e578a6040517f220266b6000000000000000000000000000000000000000000000000000000008152600401612e159190615ab2565b60405180910390fd5b878103825f01819055505f8460a0015190508373ffffffffffffffffffffffffffffffffffffffff1663fd5c49df828d8d602001518d6040518563ffffffff1660e01b8152600401612e7293929190615916565b5f604051808303815f8887f193505050508015612eb157506040513d5f823e3d601f19601f82011682018060405250810190612eae9190615b4c565b60015b612efe578b612ec1610800612627565b6040517f65c8fd4d000000000000000000000000000000000000000000000000000000008152600401612ef5929190615ba6565b60405180910390fd5b8199508098505050805a87031115612f4d578b6040517f220266b6000000000000000000000000000000000000000000000000000000008152600401612f449190615c57565b60405180910390fd5b50505050505094509492505050565b5f819050919050565b5f5f5f8303612f79575f5f91509150612fb4565b5f612f8384613546565b9050806040015165ffffffffffff16421180612faa5750806020015165ffffffffffff1642105b9150805f01519250505b915091565b6060819050919050565b805f01515f015173ffffffffffffffffffffffffffffffffffffffff1681602001517f67b4fa9642f42120bf031f3051d1824b0fe25627945b27b8a6a65d5761d5482e835f01516020015160405161301b9190613997565b60405180910390a350565b835f0151610100015173ffffffffffffffffffffffffffffffffffffffff16845f01515f015173ffffffffffffffffffffffffffffffffffffffff1685602001517f49628fd1471006c1482da88028e9ce4dbb080b815c9b0344d39e5a8e6ec1419f875f0151602001518787876040516130a39493929190615c83565b60405180910390a450505050565b60605f6130bd836135c6565b90505f836020013590505f6130e08580606001906130db91906148b0565b6135d5565b90505f6130fb8680608001906130f691906148b0565b6135d5565b90505f8660a0013590505f8760c0013590505f8860e0013590505f61312f8a80610100019061312a91906148b0565b6135d5565b90508787878787878787604051602001613150989796959493929190615cc6565b60405160208183030381529060405298505050505050505050919050565b5f5f82610120015190505f83610140015190508082036131925781925050506131a3565b61319e824883016135eb565b925050505b919050565b5f5f8260801c835f1c816fffffffffffffffffffffffffffffffff169150806fffffffffffffffffffffffffffffffff16905091509150915091565b5f5f5f84845f906014926131fa93929190615d4a565b906132059190615dc5565b60601c858560149060249261321c93929190615d4a565b906132279190615e4e565b60801c868660249060349261323e93929190615d4a565b906132499190615e4e565b60801c816fffffffffffffffffffffffffffffffff169150806fffffffffffffffffffffffffffffffff1690509250925092509250925092565b5f8282905014613540575f835f01515f015190505f8173ffffffffffffffffffffffffffffffffffffffff163b146132f257846040517f220266b60000000000000000000000000000000000000000000000000000000081526004016132e99190615ef6565b60405180910390fd5b5f6132fb6125e9565b73ffffffffffffffffffffffffffffffffffffffff1663570e1a36865f01516060015186866040518463ffffffff1660e01b815260040161333d929190614de3565b6020604051808303815f8887f1158015613359573d5f5f3e3d5ffd5b50505050506040513d601f19601f8201168201806040525081019061337e9190614e19565b90505f73ffffffffffffffffffffffffffffffffffffffff168173ffffffffffffffffffffffffffffffffffffffff16036133f057856040517f220266b60000000000000000000000000000000000000000000000000000000081526004016133e79190615a3c565b60405180910390fd5b8173ffffffffffffffffffffffffffffffffffffffff168173ffffffffffffffffffffffffffffffffffffffff161461346057856040517f220266b60000000000000000000000000000000000000000000000000000000081526004016134579190615a3c565b60405180910390fd5b5f8173ffffffffffffffffffffffffffffffffffffffff163b036134bb57856040517f220266b60000000000000000000000000000000000000000000000000000000081526004016134b29190615a3c565b60405180910390fd5b5f84845f906014926134cf93929190615d4a565b906134da9190615dc5565b60601c90508273ffffffffffffffffffffffffffffffffffffffff1686602001517fd51a9c61267aa6196961883ecf5ff2da6619c37dac0fa92122513fb32c032d2d83895f01516101000151604051613534929190615f22565b60405180910390a35050505b50505050565b61354e61367e565b5f8290505f60a084901c90505f8165ffffffffffff16036135735765ffffffffffff90505b5f60d085901c905060405180606001604052808473ffffffffffffffffffffffffffffffffffffffff1681526020018265ffffffffffff1681526020018365ffffffffffff168152509350505050919050565b5f5f8235905080915050919050565b5f60405182808583378082209250505092915050565b5f8183106135f957816135fb565b825b905092915050565b6040518060a001604052806136166136c2565b81526020015f81526020015f81526020015f81526020015f81525090565b6040518060a001604052805f81526020015f151581526020015f6dffffffffffffffffffffffffffff1681526020015f63ffffffff1681526020015f65ffffffffffff1681525090565b60405180606001604052805f73ffffffffffffffffffffffffffffffffffffffff1681526020015f65ffffffffffff1681526020015f65ffffffffffff1681525090565b6040518061016001604052805f73ffffffffffffffffffffffffffffffffffffffff1681526020015f81526020015f67ffffffffffffffff1681526020015f81526020015f81526020015f81526020015f81526020015f81526020015f73ffffffffffffffffffffffffffffffffffffffff1681526020015f81526020015f81525090565b5f604051905090565b5f5ffd5b5f5ffd5b5f7fffffffff0000000000000000000000000000000000000000000000000000000082169050919050565b61378c81613758565b8114613796575f5ffd5b50565b5f813590506137a781613783565b92915050565b5f602082840312156137c2576137c1613750565b5b5f6137cf84828501613799565b91505092915050565b5f8115159050919050565b6137ec816137d8565b82525050565b5f6020820190506138055f8301846137e3565b92915050565b5f63ffffffff82169050919050565b6138238161380b565b811461382d575f5ffd5b50565b5f8135905061383e8161381a565b92915050565b5f6020828403121561385957613858613750565b5b5f61386684828501613830565b91505092915050565b5f77ffffffffffffffffffffffffffffffffffffffffffffffff82169050919050565b61389b8161386f565b81146138a5575f5ffd5b50565b5f813590506138b681613892565b92915050565b5f602082840312156138d1576138d0613750565b5b5f6138de848285016138a8565b91505092915050565b5f73ffffffffffffffffffffffffffffffffffffffff82169050919050565b5f613910826138e7565b9050919050565b61392081613906565b811461392a575f5ffd5b50565b5f8135905061393b81613917565b92915050565b5f5f6040838503121561395757613956613750565b5b5f6139648582860161392d565b9250506020613975858286016138a8565b9150509250929050565b5f819050919050565b6139918161397f565b82525050565b5f6020820190506139aa5f830184613988565b92915050565b5f6139ba826138e7565b9050919050565b6139ca816139b0565b81146139d4575f5ffd5b50565b5f813590506139e5816139c1565b92915050565b6139f48161397f565b81146139fe575f5ffd5b50565b5f81359050613a0f816139eb565b92915050565b5f5f60408385031215613a2b57613a2a613750565b5b5f613a38858286016139d7565b9250506020613a4985828601613a01565b9150509250929050565b5f5ffd5b5f5ffd5b5f5ffd5b5f5f83601f840112613a7457613a73613a53565b5b8235905067ffffffffffffffff811115613a9157613a90613a57565b5b602083019150836020820283011115613aad57613aac613a5b565b5b9250929050565b5f5f5f60408486031215613acb57613aca613750565b5b5f84013567ffffffffffffffff811115613ae857613ae7613754565b5b613af486828701613a5f565b93509350506020613b07868287016139d7565b9150509250925092565b5f60208284031215613b2657613b25613750565b5b5f613b338482850161392d565b91505092915050565b613b458161397f565b82525050565b613b54816137d8565b82525050565b5f6dffffffffffffffffffffffffffff82169050919050565b613b7c81613b5a565b82525050565b613b8b8161380b565b82525050565b5f65ffffffffffff82169050919050565b613bab81613b91565b82525050565b60a082015f820151613bc55f850182613b3c565b506020820151613bd86020850182613b4b565b506040820151613beb6040850182613b73565b506060820151613bfe6060850182613b82565b506080820151613c116080850182613ba2565b50505050565b5f60a082019050613c2a5f830184613bb1565b92915050565b5f5f83601f840112613c4557613c44613a53565b5b8235905067ffffffffffffffff811115613c6257613c61613a57565b5b602083019150836020820283011115613c7e57613c7d613a5b565b5b9250929050565b5f5f5f60408486031215613c9c57613c9b613750565b5b5f84013567ffffffffffffffff811115613cb957613cb8613754565b5b613cc586828701613c30565b93509350506020613cd8868287016139d7565b9150509250925092565b5f5ffd5b5f6101408284031215613cfc57613cfb613ce2565b5b81905092915050565b5f60208284031215613d1a57613d19613750565b5b5f82013567ffffffffffffffff811115613d3757613d36613754565b5b613d4384828501613ce6565b91505092915050565b5f819050919050565b613d5e81613d4c565b82525050565b5f602082019050613d775f830184613d55565b92915050565b5f5f83601f840112613d9257613d91613a53565b5b8235905067ffffffffffffffff811115613daf57613dae613a57565b5b602083019150836001820283011115613dcb57613dca613a5b565b5b9250929050565b5f5f5f60408486031215613de957613de8613750565b5b5f613df68682870161392d565b935050602084013567ffffffffffffffff811115613e1757613e16613754565b5b613e2386828701613d7d565b92509250509250925092565b5f5f60208385031215613e4557613e44613750565b5b5f83013567ffffffffffffffff811115613e6257613e61613754565b5b613e6e85828601613d7d565b92509250509250929050565b5f5ffd5b5f601f19601f8301169050919050565b7f4e487b71000000000000000000000000000000000000000000000000000000005f52604160045260245ffd5b613ec482613e7e565b810181811067ffffffffffffffff82111715613ee357613ee2613e8e565b5b80604052505050565b5f613ef5613747565b9050613f018282613ebb565b919050565b5f67ffffffffffffffff821115613f2057613f1f613e8e565b5b613f2982613e7e565b9050602081019050919050565b828183375f83830152505050565b5f613f56613f5184613f06565b613eec565b905082815260208101848484011115613f7257613f71613e7a565b5b613f7d848285613f36565b509392505050565b5f82601f830112613f9957613f98613a53565b5b8135613fa9848260208601613f44565b91505092915050565b5f5ffd5b5f67ffffffffffffffff82169050919050565b613fd281613fb6565b8114613fdc575f5ffd5b50565b5f81359050613fed81613fc9565b92915050565b5f610160828403121561400957614008613fb2565b5b614014610160613eec565b90505f6140238482850161392d565b5f83015250602061403684828501613a01565b602083015250604061404a84828501613fdf565b604083015250606061405e84828501613a01565b606083015250608061407284828501613a01565b60808301525060a061408684828501613a01565b60a08301525060c061409a84828501613a01565b60c08301525060e06140ae84828501613a01565b60e0830152506101006140c38482850161392d565b610100830152506101206140d984828501613a01565b610120830152506101406140ef84828501613a01565b6101408301525092915050565b61410581613d4c565b811461410f575f5ffd5b50565b5f81359050614120816140fc565b92915050565b5f6101e0828403121561413c5761413b613fb2565b5b61414660a0613eec565b90505f61415584828501613ff3565b5f8301525061016061416984828501614112565b60208301525061018061417e84828501613a01565b6040830152506101a061419384828501613a01565b6060830152506101c06141a884828501613a01565b60808301525092915050565b5f5f5f5f61022085870312156141cd576141cc613750565b5b5f85013567ffffffffffffffff8111156141ea576141e9613754565b5b6141f687828801613f85565b945050602061420787828801614126565b93505061020085013567ffffffffffffffff81111561422957614228613754565b5b61423587828801613d7d565b925092505092959194509250565b5f6020828403121561425857614257613750565b5b5f614265848285016139d7565b91505092915050565b61427781613b5a565b82525050565b6142868161380b565b82525050565b61429581613b91565b82525050565b5f60a0820190506142ae5f830188613988565b6142bb60208301876137e3565b6142c8604083018661426e565b6142d5606083018561427d565b6142e2608083018461428c565b9695505050505050565b5f82825260208201905092915050565b7f6d757374207370656369667920756e7374616b652064656c61790000000000005f82015250565b5f614330601a836142ec565b915061433b826142fc565b602082019050919050565b5f6020820190508181035f83015261435d81614324565b9050919050565b7f63616e6e6f7420646563726561736520756e7374616b652074696d65000000005f82015250565b5f614398601c836142ec565b91506143a382614364565b602082019050919050565b5f6020820190508181035f8301526143c58161438c565b9050919050565b7f4e487b71000000000000000000000000000000000000000000000000000000005f52601160045260245ffd5b5f6144038261397f565b915061440e8361397f565b9250828201905080821115614426576144256143cc565b5b92915050565b7f6e6f207374616b652073706563696669656400000000000000000000000000005f82015250565b5f6144606012836142ec565b915061446b8261442c565b602082019050919050565b5f6020820190508181035f83015261448d81614454565b9050919050565b7f7374616b65206f766572666c6f770000000000000000000000000000000000005f82015250565b5f6144c8600e836142ec565b91506144d382614494565b602082019050919050565b5f6020820190508181035f8301526144f5816144bc565b9050919050565b5f819050919050565b5f61451f61451a6145158461380b565b6144fc565b61397f565b9050919050565b61452f81614505565b82525050565b5f6040820190506145485f830185613988565b6145556020830184614526565b9392505050565b5f6145668261397f565b91507fffffffffffffffffffffffffffffffffffffffffffffffffffffffffffffffff8203614598576145976143cc565b5b600182019050919050565b7f576974686472617720616d6f756e7420746f6f206c61726765000000000000005f82015250565b5f6145d76019836142ec565b91506145e2826145a3565b602082019050919050565b5f6020820190508181035f830152614604816145cb565b9050919050565b5f6146158261397f565b91506146208361397f565b9250828203905081811115614638576146376143cc565b5b92915050565b5f61465861465361464e846138e7565b6144fc565b6138e7565b9050919050565b5f6146698261463e565b9050919050565b5f61467a8261465f565b9050919050565b61468a81614670565b82525050565b5f6040820190506146a35f830185614681565b6146b06020830184613988565b9392505050565b5f81905092915050565b50565b5f6146cf5f836146b7565b91506146da826146c1565b5f82019050919050565b5f6146ee826146c4565b9150819050919050565b7f6661696c656420746f20776974686472617700000000000000000000000000005f82015250565b5f61472c6012836142ec565b9150614737826146f8565b602082019050919050565b5f6020820190508181035f83015261475981614720565b9050919050565b7f4e487b71000000000000000000000000000000000000000000000000000000005f52603260045260245ffd5b5f5ffd5b5f5ffd5b5f5ffd5b5f82356001610140038336030381126147b5576147b461478d565b5b80830191505092915050565b5f823560016060038336030381126147dc576147db61478d565b5b80830191505092915050565b5f5f833560016020038436030381126148045761480361478d565b5b80840192508235915067ffffffffffffffff82111561482657614825614791565b5b60208301925060208202360383131561484257614841614795565b5b509250929050565b5f61485482613906565b9050919050565b6148648161484a565b811461486e575f5ffd5b50565b5f8135905061487f8161485b565b92915050565b5f6020828403121561489a57614899613750565b5b5f6148a784828501614871565b91505092915050565b5f5f833560016020038436030381126148cc576148cb61478d565b5b80840192508235915067ffffffffffffffff8211156148ee576148ed614791565b5b60208301925060018202360383131561490a57614909614795565b5b509250929050565b5f82825260208201905092915050565b5f819050919050565b5f614939602084018461392d565b905092915050565b61494a81613906565b82525050565b5f61495e6020840184613a01565b905092915050565b5f6149746020840184613fdf565b905092915050565b61498581613fb6565b82525050565b5f5ffd5b5f5ffd5b5f5ffd5b5f5f833560016020038436030381126149b3576149b2614993565b5b83810192508235915060208301925067ffffffffffffffff8211156149db576149da61498b565b5b6001820236038313156149f1576149f061498f565b5b509250929050565b5f82825260208201905092915050565b5f614a1483856149f9565b9350614a21838584613f36565b614a2a83613e7e565b840190509392505050565b5f614a436020840184614112565b905092915050565b614a5481613d4c565b82525050565b5f6101408301614a6c5f84018461492b565b614a785f860182614941565b50614a866020840184614950565b614a936020860182613b3c565b50614aa16040840184614966565b614aae604086018261497c565b50614abc6060840184614997565b8583036060870152614acf838284614a09565b92505050614ae06080840184614997565b8583036080870152614af3838284614a09565b92505050614b0460a0840184614a35565b614b1160a0860182614a4b565b50614b1f60c0840184614950565b614b2c60c0860182613b3c565b50614b3a60e0840184614a35565b614b4760e0860182614a4b565b50614b56610100840184614997565b858303610100870152614b6a838284614a09565b92505050614b7c610120840184614997565b858303610120870152614b90838284614a09565b925050508091505092915050565b5f614ba98383614a5a565b905092915050565b5f8235600161014003833603038112614bcd57614bcc614993565b5b82810191505092915050565b5f602082019050919050565b5f614bf08385614912565b935083602084028501614c0284614922565b805f5b87811015614c45578484038952614c1c8284614bb1565b614c268582614b9e565b9450614c3183614bd9565b925060208a01995050600181019050614c05565b50829750879450505050509392505050565b5f82825260208201905092915050565b5f614c728385614c57565b9350614c7f838584613f36565b614c8883613e7e565b840190509392505050565b5f6040820190508181035f830152614cac818688614be5565b90508181036020830152614cc1818486614c67565b905095945050505050565b614cd581613906565b82525050565b5f602082019050614cee5f830184614ccc565b92915050565b5f606082019050614d075f830186613d55565b614d146020830185614ccc565b614d216040830184613988565b949350505050565b5f614d3483856146b7565b9350614d41838584613f36565b82840190509392505050565b5f614d59828486614d29565b91508190509392505050565b5f81519050919050565b8281835e5f83830152505050565b5f614d8782614d65565b614d918185614c57565b9350614da1818560208601614d6f565b614daa81613e7e565b840191505092915050565b5f604082019050614dc85f8301856137e3565b8181036020830152614dda8184614d7d565b90509392505050565b5f6020820190508181035f830152614dfc818486614c67565b90509392505050565b5f81519050614e1381613917565b92915050565b5f60208284031215614e2e57614e2d613750565b5b5f614e3b84828501614e05565b91505092915050565b7f4e487b71000000000000000000000000000000000000000000000000000000005f52601260045260245ffd5b5f604082019050614e845f830185613988565b8181036020830152614e968184614d7d565b90509392505050565b7f6e6f74207374616b6564000000000000000000000000000000000000000000005f82015250565b5f614ed3600a836142ec565b9150614ede82614e9f565b602082019050919050565b5f6020820190508181035f830152614f0081614ec7565b9050919050565b7f616c726561647920756e7374616b696e670000000000000000000000000000005f82015250565b5f614f3b6011836142ec565b9150614f4682614f07565b602082019050919050565b5f6020820190508181035f830152614f6881614f2f565b9050919050565b5f614f7982613b91565b9150614f8483613b91565b9250828201905065ffffffffffff811115614fa257614fa16143cc565b5b92915050565b5f614fc2614fbd614fb884613b91565b6144fc565b61397f565b9050919050565b614fd281614fa8565b82525050565b5f602082019050614feb5f830184614fc9565b92915050565b7f4e6f207374616b6520746f2077697468647261770000000000000000000000005f82015250565b5f6150256014836142ec565b915061503082614ff1565b602082019050919050565b5f6020820190508181035f83015261505281615019565b9050919050565b7f6d7573742063616c6c20756e6c6f636b5374616b6528292066697273740000005f82015250565b5f61508d601d836142ec565b915061509882615059565b602082019050919050565b5f6020820190508181035f8301526150ba81615081565b9050919050565b7f5374616b65207769746864726177616c206973206e6f742064756500000000005f82015250565b5f6150f5601b836142ec565b9150615100826150c1565b602082019050919050565b5f6020820190508181035f830152615122816150e9565b9050919050565b7f6661696c656420746f207769746864726177207374616b6500000000000000005f82015250565b5f61515d6018836142ec565b915061516882615129565b602082019050919050565b5f6020820190508181035f83015261518a81615151565b9050919050565b7f4141323520696e76616c6964206163636f756e74206e6f6e63650000000000005f82015250565b5f6151c5601a836142ec565b91506151d082615191565b602082019050919050565b5f6040820190506151ee5f830184613988565b81810360208301526151ff816151b9565b905092915050565b7f41413236206f76657220766572696669636174696f6e4761734c696d697400005f82015250565b5f61523b601e836142ec565b915061524682615207565b602082019050919050565b5f6040820190506152645f830184613988565b81810360208301526152758161522f565b905092915050565b7f41413234207369676e6174757265206572726f720000000000000000000000005f82015250565b5f6152b16014836142ec565b91506152bc8261527d565b602082019050919050565b5f6040820190506152da5f830184613988565b81810360208301526152eb816152a5565b905092915050565b7f414132322065787069726564206f72206e6f74206475650000000000000000005f82015250565b5f6153276017836142ec565b9150615332826152f3565b602082019050919050565b5f6040820190506153505f830184613988565b81810360208301526153618161531b565b905092915050565b7f41413334207369676e6174757265206572726f720000000000000000000000005f82015250565b5f61539d6014836142ec565b91506153a882615369565b602082019050919050565b5f6040820190506153c65f830184613988565b81810360208301526153d781615391565b905092915050565b7f41413332207061796d61737465722065787069726564206f72206e6f742064755f8201527f6500000000000000000000000000000000000000000000000000000000000000602082015250565b5f6154396021836142ec565b9150615444826153df565b604082019050919050565b5f6040820190506154625f830184613988565b81810360208301526154738161542d565b905092915050565b5f610140830161548d5f84018461492b565b6154995f860182614941565b506154a76020840184614950565b6154b46020860182613b3c565b506154c26040840184614966565b6154cf604086018261497c565b506154dd6060840184614997565b85830360608701526154f0838284614a09565b925050506155016080840184614997565b8583036080870152615514838284614a09565b9250505061552560a0840184614a35565b61553260a0860182614a4b565b5061554060c0840184614950565b61554d60c0860182613b3c565b5061555b60e0840184614a35565b61556860e0860182614a4b565b50615577610100840184614997565b85830361010087015261558b838284614a09565b9250505061559d610120840184614997565b8583036101208701526155b1838284614a09565b925050508091505092915050565b5f6040820190508181035f8301526155d7818561547b565b90506155e66020830184613d55565b9392505050565b61016082015f8201516156025f850182614941565b5060208201516156156020850182613b3c565b506040820151615628604085018261497c565b50606082015161563b6060850182613b3c565b50608082015161564e6080850182613b3c565b5060a082015161566160a0850182613b3c565b5060c082015161567460c0850182613b3c565b5060e082015161568760e0850182613b3c565b5061010082015161569c610100850182614941565b506101208201516156b1610120850182613b3c565b506101408201516156c6610140850182613b3c565b50505050565b6101e082015f8201516156e15f8501826155ed565b5060208201516156f5610160850182614a4b565b506040820151615709610180850182613b3c565b50606082015161571d6101a0850182613b3c565b5060808201516157316101c0850182613b3c565b50505050565b5f610220820190508181035f8301526157508186614d7d565b905061575f60208301856156cc565b8181036102008301526157728184614d7d565b9050949350505050565b5f610220820190508181035f830152615796818688614c67565b90506157a560208301856156cc565b8181036102008301526157b88184614d7d565b905095945050505050565b7f41413935206f7574206f662067617300000000000000000000000000000000005f82015250565b5f6157f7600f836142ec565b9150615802826157c3565b602082019050919050565b5f6040820190506158205f830184613988565b8181036020830152615831816157eb565b905092915050565b7f4e487b71000000000000000000000000000000000000000000000000000000005f52602160045260245ffd5b6003811061587757615876615839565b5b50565b5f81905061588782615866565b919050565b5f6158968261587a565b9050919050565b6158a68161588c565b82525050565b5f6080820190506158bf5f83018761589d565b81810360208301526158d18186614d7d565b90506158e06040830185613988565b6158ed6060830184613988565b95945050505050565b5f6020820190508181035f83015261590e8184614d7d565b905092915050565b5f6060820190508181035f83015261592e818661547b565b905061593d6020830185613d55565b61594a6040830184613988565b949350505050565b5f81519050615960816139eb565b92915050565b5f6020828403121561597b5761597a613750565b5b5f61598884828501615952565b91505092915050565b7f41413233207265766572746564000000000000000000000000000000000000005f82015250565b5f6159c5600d836142ec565b91506159d082615991565b602082019050919050565b5f6060820190506159ee5f830185613988565b81810360208301526159ff816159b9565b90508181036040830152615a138184614d7d565b90509392505050565b5f615a275f836142ec565b9150615a32826146c1565b5f82019050919050565b5f604082019050615a4f5f830184613988565b8181036020830152615a6081615a1c565b905092915050565b7f41413331207061796d6173746572206465706f73697420746f6f206c6f7700005f82015250565b5f615a9c601e836142ec565b9150615aa782615a68565b602082019050919050565b5f604082019050615ac55f830184613988565b8181036020830152615ad681615a90565b905092915050565b5f615af0615aeb84613f06565b613eec565b905082815260208101848484011115615b0c57615b0b613e7a565b5b615b17848285614d6f565b509392505050565b5f82601f830112615b3357615b32613a53565b5b8151615b43848260208601615ade565b91505092915050565b5f5f60408385031215615b6257615b61613750565b5b5f83015167ffffffffffffffff811115615b7f57615b7e613754565b5b615b8b85828601615b1f565b9250506020615b9c85828601615952565b9150509250929050565b5f606082019050615bb95f830185613988565b8181036020830152615bca81615a1c565b90508181036040830152615bde8184614d7d565b90509392505050565b7f41413336206f766572207061796d6173746572566572696669636174696f6e475f8201527f61734c696d697400000000000000000000000000000000000000000000000000602082015250565b5f615c416027836142ec565b9150615c4c82615be7565b604082019050919050565b5f604082019050615c6a5f830184613988565b8181036020830152615c7b81615c35565b905092915050565b5f608082019050615c965f830187613988565b615ca360208301866137e3565b615cb06040830185613988565b615cbd6060830184613988565b95945050505050565b5f61010082019050615cda5f83018b614ccc565b615ce7602083018a613988565b615cf46040830189613d55565b615d016060830188613d55565b615d0e6080830187613d55565b615d1b60a0830186613988565b615d2860c0830185613d55565b615d3560e0830184613d55565b9998505050505050505050565b5f5ffd5b5f5ffd5b5f5f85851115615d5d57615d5c615d42565b5b83861115615d6e57615d6d615d46565b5b6001850283019150848603905094509492505050565b5f82905092915050565b5f7fffffffffffffffffffffffffffffffffffffffff00000000000000000000000082169050919050565b5f82821b905092915050565b5f615dd08383615d84565b82615ddb8135615d8e565b92506014821015615e1b57615e167fffffffffffffffffffffffffffffffffffffffff00000000000000000000000083601403600802615db9565b831692505b505092915050565b5f7fffffffffffffffffffffffffffffffff0000000000000000000000000000000082169050919050565b5f615e598383615d84565b82615e648135615e23565b92506010821015615ea457615e9f7fffffffffffffffffffffffffffffffff0000000000000000000000000000000083601003600802615db9565b831692505b505092915050565b7f414131302073656e64657220616c726561647920636f6e7374727563746564005f82015250565b5f615ee0601f836142ec565b9150615eeb82615eac565b602082019050919050565b5f604082019050615f095f830184613988565b8181036020830152615f1a81615ed4565b905092915050565b5f604082019050615f355f830185614ccc565b615f426020830184614ccc565b939250505056fea26469706673582212203d24529084a2d6506b7a03c1d70708d138a3a7e6dacb99e120d0b1d90dd7991064736f6c634300081c00336080604052348015600e575f5ffd5b506103238061001c5f395ff3fe608060405234801561000f575f5ffd5b5060043610610029575f3560e01c8063570e1a361461002d575b5f5ffd5b61004760048036038101906100429190610169565b61005d565b60405161005491906101f3565b60405180910390f35b5f5f83835f9060149261007293929190610214565b9061007d919061028f565b60601c90505f8484601490809261009693929190610214565b8080601f0160208091040260200160405190810160405280939291908181526020018383808284375f81840152601f19601f8201169050808301925050505050505090505f60205f8351602085015f875af190505f519350806100f7575f93505b50505092915050565b5f5ffd5b5f5ffd5b5f5ffd5b5f5ffd5b5f5ffd5b5f5f83601f84011261012957610128610108565b5b8235905067ffffffffffffffff8111156101465761014561010c565b5b60208301915083600182028301111561016257610161610110565b5b9250929050565b5f5f6020838503121561017f5761017e610100565b5b5f83013567ffffffffffffffff81111561019c5761019b610104565b5b6101a885828601610114565b92509250509250929050565b5f73ffffffffffffffffffffffffffffffffffffffff82169050919050565b5f6101dd826101b4565b9050919050565b6101ed816101d3565b82525050565b5f6020820190506102065f8301846101e4565b92915050565b5f5ffd5b5f5ffd5b5f5f858511156102275761022661020c565b5b8386111561023857610237610210565b5b6001850283019150848603905094509492505050565b5f82905092915050565b5f7fffffffffffffffffffffffffffffffffffffffff00000000000000000000000082169050919050565b5f82821b905092915050565b5f61029a838361024e565b826102a58135610258565b925060148210156102e5576102e07fffffffffffffffffffffffffffffffffffffffff00000000000000000000000083601403600802610283565b831692505b50509291505056fea2646970667358221220301ab807724a1ced06e4f36441d703ba6deff0dbf8924ed24451edb72323eb9b64736f6c634300081c0033",
			"opcodes": "PUSH1 0xA0 PUSH1 0x40 MSTORE PUSH1 0x40 MLOAD PUSH1 0xE SWAP1 PUSH1 0x70 JUMP JUMPDEST PUSH1 0x40 MLOAD DUP1 SWAP2 SUB SWAP1 PUSH0 CREATE DUP1 ISZERO DUP1 ISZERO PUSH1 0x26 JUMPI RETURNDATASIZE PUSH0 PUSH0 RETURNDATACOPY RETURNDATASIZE PUSH0 REVERT JUMPDEST POP PUSH20 0xFFFFFFFFFFFFFFFFFFFFFFFFFFFFFFFFFFFFFFFF AND PUSH1 0x80 SWAP1 PUSH20 0xFFFFFFFFFFFFFFFFFFFFFFFFFFFFFFFFFFFFFFFF AND DUP2 MSTORE POP CALLVALUE DUP1 ISZERO PUSH1 0x63 JUMPI PUSH0 PUSH0 REVERT JUMPDEST POP PUSH1 0x1 PUSH1 0x2 DUP2 SWAP1 SSTORE POP PUSH1 0x7D JUMP JUMPDEST PUSH2 0x33F DUP1 PUSH2 0x6014 DUP4 CODECOPY ADD SWAP1 JUMP JUMPDEST PUSH1 0x80 MLOAD PUSH2 0x5F7F PUSH2 0x95 PUSH0 CODECOPY PUSH0 PUSH2 0x25EC ADD MSTORE PUSH2 0x5F7F PUSH0 RETURN INVALID PUSH1 0x80 PUSH1 0x40 MSTORE PUSH1 0x4 CALLDATASIZE LT PUSH2 0x10C JUMPI PUSH0 CALLDATALOAD PUSH1 0xE0 SHR DUP1 PUSH4 0x7483AAFA GT PUSH2 0x94 JUMPI DUP1 PUSH4 0xA2578253 GT PUSH2 0x63 JUMPI DUP1 PUSH4 0xA2578253 EQ PUSH2 0x394 JUMPI DUP1 PUSH4 0xB760FAF9 EQ PUSH2 0x3D0 JUMPI DUP1 PUSH4 0xBB9FE6BF EQ PUSH2 0x3EC JUMPI DUP1 PUSH4 0xC23A5CEA EQ PUSH2 0x402 JUMPI DUP1 PUSH4 0xFC7E286D EQ PUSH2 0x42A JUMPI PUSH2 0x11C JUMP JUMPDEST DUP1 PUSH4 0x7483AAFA EQ PUSH2 0x2E0 JUMPI DUP1 PUSH4 0x767F4D7E EQ PUSH2 0x308 JUMPI DUP1 PUSH4 0x850AAF62 EQ PUSH2 0x344 JUMPI DUP1 PUSH4 0x9B249F69 EQ PUSH2 0x36C JUMPI PUSH2 0x11C JUMP JUMPDEST DUP1 PUSH4 0x205C2878 GT PUSH2 0xDB JUMPI DUP1 PUSH4 0x205C2878 EQ PUSH2 0x1DC JUMPI DUP1 PUSH4 0x20E61EF3 EQ PUSH2 0x204 JUMPI DUP1 PUSH4 0x35567E1A EQ PUSH2 0x22C JUMPI DUP1 PUSH4 0x5287CE12 EQ PUSH2 0x268 JUMPI DUP1 PUSH4 0x70A08231 EQ PUSH2 0x2A4 JUMPI PUSH2 0x11C JUMP JUMPDEST DUP1 PUSH4 0x1FFC9A7 EQ PUSH2 0x120 JUMPI DUP1 PUSH4 0x396CB60 EQ PUSH2 0x15C JUMPI DUP1 PUSH4 0xBD28E3B EQ PUSH2 0x178 JUMPI DUP1 PUSH4 0x1B2E01B8 EQ PUSH2 0x1A0 JUMPI PUSH2 0x11C JUMP JUMPDEST CALLDATASIZE PUSH2 0x11C JUMPI PUSH2 0x11A CALLER PUSH2 0x46A JUMP JUMPDEST STOP JUMPDEST PUSH0 PUSH0 REVERT JUMPDEST CALLVALUE DUP1 ISZERO PUSH2 0x12B JUMPI PUSH0 PUSH0 REVERT JUMPDEST POP PUSH2 0x146 PUSH1 0x4 DUP1 CALLDATASIZE SUB DUP2 ADD SWAP1 PUSH2 0x141 SWAP2 SWAP1 PUSH2 0x37AD JUMP JUMPDEST PUSH2 0x4C9 JUMP JUMPDEST PUSH1 0x40 MLOAD PUSH2 0x153 SWAP2 SWAP1 PUSH2 0x37F2 JUMP JUMPDEST PUSH1 0x40 MLOAD DUP1 SWAP2 SUB SWAP1 RETURN JUMPDEST PUSH2 0x176 PUSH1 0x4 DUP1 CALLDATASIZE SUB DUP2 ADD SWAP1 PUSH2 0x171 SWAP2 SWAP1 PUSH2 0x3844 JUMP JUMPDEST PUSH2 0x6BE JUMP JUMPDEST STOP JUMPDEST CALLVALUE DUP1 ISZERO PUSH2 0x183 JUMPI PUSH0 PUSH0 REVERT JUMPDEST POP PUSH2 0x19E PUSH1 0x4 DUP1 CALLDATASIZE SUB DUP2 ADD SWAP1 PUSH2 0x199 SWAP2 SWAP1 PUSH2 0x38BC JUMP JUMPDEST PUSH2 0xA0D JUMP JUMPDEST STOP JUMPDEST CALLVALUE DUP1 ISZERO PUSH2 0x1AB JUMPI PUSH0 PUSH0 REVERT JUMPDEST POP PUSH2 0x1C6 PUSH1 0x4 DUP1 CALLDATASIZE SUB DUP2 ADD SWAP1 PUSH2 0x1C1 SWAP2 SWAP1 PUSH2 0x3941 JUMP JUMPDEST PUSH2 0xAA5 JUMP JUMPDEST PUSH1 0x40 MLOAD PUSH2 0x1D3 SWAP2 SWAP1 PUSH2 0x3997 JUMP JUMPDEST PUSH1 0x40 MLOAD DUP1 SWAP2 SUB SWAP1 RETURN JUMPDEST CALLVALUE DUP1 ISZERO PUSH2 0x1E7 JUMPI PUSH0 PUSH0 REVERT JUMPDEST POP PUSH2 0x202 PUSH1 0x4 DUP1 CALLDATASIZE SUB DUP2 ADD SWAP1 PUSH2 0x1FD SWAP2 SWAP1 PUSH2 0x3A15 JUMP JUMPDEST PUSH2 0xAC5 JUMP JUMPDEST STOP JUMPDEST CALLVALUE DUP1 ISZERO PUSH2 0x20F JUMPI PUSH0 PUSH0 REVERT JUMPDEST POP PUSH2 0x22A PUSH1 0x4 DUP1 CALLDATASIZE SUB DUP2 ADD SWAP1 PUSH2 0x225 SWAP2 SWAP1 PUSH2 0x3AB4 JUMP JUMPDEST PUSH2 0xC5E JUMP JUMPDEST STOP JUMPDEST CALLVALUE DUP1 ISZERO PUSH2 0x237 JUMPI PUSH0 PUSH0 REVERT JUMPDEST POP PUSH2 0x252 PUSH1 0x4 DUP1 CALLDATASIZE SUB DUP2 ADD SWAP1 PUSH2 0x24D SWAP2 SWAP1 PUSH2 0x3941 JUMP JUMPDEST PUSH2 0xDF3 JUMP JUMPDEST PUSH1 0x40 MLOAD PUSH2 0x25F SWAP2 SWAP1 PUSH2 0x3997 JUMP JUMPDEST PUSH1 0x40 MLOAD DUP1 SWAP2 SUB SWAP1 RETURN JUMPDEST CALLVALUE DUP1 ISZERO PUSH2 0x273 JUMPI PUSH0 PUSH0 REVERT JUMPDEST POP PUSH2 0x28E PUSH1 0x4 DUP1 CALLDATASIZE SUB DUP2 ADD SWAP1 PUSH2 0x289 SWAP2 SWAP1 PUSH2 0x3B11 JUMP JUMPDEST PUSH2 0xE9D JUMP JUMPDEST PUSH1 0x40 MLOAD PUSH2 0x29B SWAP2 SWAP1 PUSH2 0x3C17 JUMP JUMPDEST PUSH1 0x40 MLOAD DUP1 SWAP2 SUB SWAP1 RETURN JUMPDEST CALLVALUE DUP1 ISZERO PUSH2 0x2AF JUMPI PUSH0 PUSH0 REVERT JUMPDEST POP PUSH2 0x2CA PUSH1 0x4 DUP1 CALLDATASIZE SUB DUP2 ADD SWAP1 PUSH2 0x2C5 SWAP2 SWAP1 PUSH2 0x3B11 JUMP JUMPDEST PUSH2 0xFAC JUMP JUMPDEST PUSH1 0x40 MLOAD PUSH2 0x2D7 SWAP2 SWAP1 PUSH2 0x3997 JUMP JUMPDEST PUSH1 0x40 MLOAD DUP1 SWAP2 SUB SWAP1 RETURN JUMPDEST CALLVALUE DUP1 ISZERO PUSH2 0x2EB JUMPI PUSH0 PUSH0 REVERT JUMPDEST POP PUSH2 0x306 PUSH1 0x4 DUP1 CALLDATASIZE SUB DUP2 ADD SWAP1 PUSH2 0x301 SWAP2 SWAP1 PUSH2 0x3C85 JUMP JUMPDEST PUSH2 0xFF3 JUMP JUMPDEST STOP JUMPDEST CALLVALUE DUP1 ISZERO PUSH2 0x313 JUMPI PUSH0 PUSH0 REVERT JUMPDEST POP PUSH2 0x32E PUSH1 0x4 DUP1 CALLDATASIZE SUB DUP2 ADD SWAP1 PUSH2 0x329 SWAP2 SWAP1 PUSH2 0x3D05 JUMP JUMPDEST PUSH2 0x14D3 JUMP JUMPDEST PUSH1 0x40 MLOAD PUSH2 0x33B SWAP2 SWAP1 PUSH2 0x3D64 JUMP JUMPDEST PUSH1 0x40 MLOAD DUP1 SWAP2 SUB SWAP1 RETURN JUMPDEST CALLVALUE DUP1 ISZERO PUSH2 0x34F JUMPI PUSH0 PUSH0 REVERT JUMPDEST POP PUSH2 0x36A PUSH1 0x4 DUP1 CALLDATASIZE SUB DUP2 ADD SWAP1 PUSH2 0x365 SWAP2 SWAP1 PUSH2 0x3DD2 JUMP JUMPDEST PUSH2 0x150E JUMP JUMPDEST STOP JUMPDEST CALLVALUE DUP1 ISZERO PUSH2 0x377 JUMPI PUSH0 PUSH0 REVERT JUMPDEST POP PUSH2 0x392 PUSH1 0x4 DUP1 CALLDATASIZE SUB DUP2 ADD SWAP1 PUSH2 0x38D SWAP2 SWAP1 PUSH2 0x3E2F JUMP JUMPDEST PUSH2 0x15B8 JUMP JUMPDEST STOP JUMPDEST CALLVALUE DUP1 ISZERO PUSH2 0x39F JUMPI PUSH0 PUSH0 REVERT JUMPDEST POP PUSH2 0x3BA PUSH1 0x4 DUP1 CALLDATASIZE SUB DUP2 ADD SWAP1 PUSH2 0x3B5 SWAP2 SWAP1 PUSH2 0x41B4 JUMP JUMPDEST PUSH2 0x167A JUMP JUMPDEST PUSH1 0x40 MLOAD PUSH2 0x3C7 SWAP2 SWAP1 PUSH2 0x3997 JUMP JUMPDEST PUSH1 0x40 MLOAD DUP1 SWAP2 SUB SWAP1 RETURN JUMPDEST PUSH2 0x3EA PUSH1 0x4 DUP1 CALLDATASIZE SUB DUP2 ADD SWAP1 PUSH2 0x3E5 SWAP2 SWAP1 PUSH2 0x3B11 JUMP JUMPDEST PUSH2 0x46A JUMP JUMPDEST STOP JUMPDEST CALLVALUE DUP1 ISZERO PUSH2 0x3F7 JUMPI PUSH0 PUSH0 REVERT JUMPDEST POP PUSH2 0x400 PUSH2 0x181D JUMP JUMPDEST STOP JUMPDEST CALLVALUE DUP1 ISZERO PUSH2 0x40D JUMPI PUSH0 PUSH0 REVERT JUMPDEST POP PUSH2 0x428 PUSH1 0x4 DUP1 CALLDATASIZE SUB DUP2 ADD SWAP1 PUSH2 0x423 SWAP2 SWAP1 PUSH2 0x4243 JUMP JUMPDEST PUSH2 0x19C5 JUMP JUMPDEST STOP JUMPDEST CALLVALUE DUP1 ISZERO PUSH2 0x435 JUMPI PUSH0 PUSH0 REVERT JUMPDEST POP PUSH2 0x450 PUSH1 0x4 DUP1 CALLDATASIZE SUB DUP2 ADD SWAP1 PUSH2 0x44B SWAP2 SWAP1 PUSH2 0x3B11 JUMP JUMPDEST PUSH2 0x1CB8 JUMP JUMPDEST PUSH1 0x40 MLOAD PUSH2 0x461 SWAP6 SWAP5 SWAP4 SWAP3 SWAP2 SWAP1 PUSH2 0x429B JUMP JUMPDEST PUSH1 0x40 MLOAD DUP1 SWAP2 SUB SWAP1 RETURN JUMPDEST PUSH0 PUSH2 0x475 DUP3 CALLVALUE PUSH2 0x1D31 JUMP JUMPDEST SWAP1 POP DUP2 PUSH20 0xFFFFFFFFFFFFFFFFFFFFFFFFFFFFFFFFFFFFFFFF AND PUSH32 0x2DA466A7B24304F47E87FA2E1E5A81B9831CE54FEC19055CE277CA2F39BA42C4 DUP3 PUSH1 0x40 MLOAD PUSH2 0x4BD SWAP2 SWAP1 PUSH2 0x3997 JUMP JUMPDEST PUSH1 0x40 MLOAD DUP1 SWAP2 SUB SWAP1 LOG2 POP POP JUMP JUMPDEST PUSH0 PUSH32 0x3E84F02100000000000000000000000000000000000000000000000000000000 PUSH32 0xCF28EF9700000000000000000000000000000000000000000000000000000000 PUSH32 0x3C34C97C00000000000000000000000000000000000000000000000000000000 XOR XOR PUSH28 0xFFFFFFFFFFFFFFFFFFFFFFFFFFFFFFFFFFFFFFFFFFFFFFFFFFFFFFFF NOT AND DUP3 PUSH28 0xFFFFFFFFFFFFFFFFFFFFFFFFFFFFFFFFFFFFFFFFFFFFFFFFFFFFFFFF NOT AND EQ DUP1 PUSH2 0x5D7 JUMPI POP PUSH32 0x3C34C97C00000000000000000000000000000000000000000000000000000000 PUSH28 0xFFFFFFFFFFFFFFFFFFFFFFFFFFFFFFFFFFFFFFFFFFFFFFFFFFFFFFFF NOT AND DUP3 PUSH28 0xFFFFFFFFFFFFFFFFFFFFFFFFFFFFFFFFFFFFFFFFFFFFFFFFFFFFFFFF NOT AND EQ JUMPDEST DUP1 PUSH2 0x63F JUMPI POP PUSH32 0xCF28EF9700000000000000000000000000000000000000000000000000000000 PUSH28 0xFFFFFFFFFFFFFFFFFFFFFFFFFFFFFFFFFFFFFFFFFFFFFFFFFFFFFFFF NOT AND DUP3 PUSH28 0xFFFFFFFFFFFFFFFFFFFFFFFFFFFFFFFFFFFFFFFFFFFFFFFFFFFFFFFF NOT AND EQ JUMPDEST DUP1 PUSH2 0x6A7 JUMPI POP PUSH32 0x3E84F02100000000000000000000000000000000000000000000000000000000 PUSH28 0xFFFFFFFFFFFFFFFFFFFFFFFFFFFFFFFFFFFFFFFFFFFFFFFFFFFFFFFF NOT AND DUP3 PUSH28 0xFFFFFFFFFFFFFFFFFFFFFFFFFFFFFFFFFFFFFFFFFFFFFFFFFFFFFFFF NOT AND EQ JUMPDEST DUP1 PUSH2 0x6B7 JUMPI POP PUSH2 0x6B6 DUP3 PUSH2 0x1D96 JUMP JUMPDEST JUMPDEST SWAP1 POP SWAP2 SWAP1 POP JUMP JUMPDEST PUSH0 PUSH0 PUSH0 CALLER PUSH20 0xFFFFFFFFFFFFFFFFFFFFFFFFFFFFFFFFFFFFFFFF AND PUSH20 0xFFFFFFFFFFFFFFFFFFFFFFFFFFFFFFFFFFFFFFFF AND DUP2 MSTORE PUSH1 0x20 ADD SWAP1 DUP2 MSTORE PUSH1 0x20 ADD PUSH0 KECCAK256 SWAP1 POP PUSH0 DUP3 PUSH4 0xFFFFFFFF AND GT PUSH2 0x745 JUMPI PUSH1 0x40 MLOAD PUSH32 0x8C379A000000000000000000000000000000000000000000000000000000000 DUP2 MSTORE PUSH1 0x4 ADD PUSH2 0x73C SWAP1 PUSH2 0x4346 JUMP JUMPDEST PUSH1 0x40 MLOAD DUP1 SWAP2 SUB SWAP1 REVERT JUMPDEST DUP1 PUSH1 0x1 ADD PUSH1 0xF SWAP1 SLOAD SWAP1 PUSH2 0x100 EXP SWAP1 DIV PUSH4 0xFFFFFFFF AND PUSH4 0xFFFFFFFF AND DUP3 PUSH4 0xFFFFFFFF AND LT ISZERO PUSH2 0x7A8 JUMPI PUSH1 0x40 MLOAD PUSH32 0x8C379A000000000000000000000000000000000000000000000000000000000 DUP2 MSTORE PUSH1 0x4 ADD PUSH2 0x79F SWAP1 PUSH2 0x43AE JUMP JUMPDEST PUSH1 0x40 MLOAD DUP1 SWAP2 SUB SWAP1 REVERT JUMPDEST PUSH0 CALLVALUE DUP3 PUSH1 0x1 ADD PUSH1 0x1 SWAP1 SLOAD SWAP1 PUSH2 0x100 EXP SWAP1 DIV PUSH14 0xFFFFFFFFFFFFFFFFFFFFFFFFFFFF AND PUSH14 0xFFFFFFFFFFFFFFFFFFFFFFFFFFFF AND PUSH2 0x7E3 SWAP2 SWAP1 PUSH2 0x43F9 JUMP JUMPDEST SWAP1 POP PUSH0 DUP2 GT PUSH2 0x827 JUMPI PUSH1 0x40 MLOAD PUSH32 0x8C379A000000000000000000000000000000000000000000000000000000000 DUP2 MSTORE PUSH1 0x4 ADD PUSH2 0x81E SWAP1 PUSH2 0x4476 JUMP JUMPDEST PUSH1 0x40 MLOAD DUP1 SWAP2 SUB SWAP1 REVERT JUMPDEST PUSH14 0xFFFFFFFFFFFFFFFFFFFFFFFFFFFF DUP1 AND DUP2 GT ISZERO PUSH2 0x87A JUMPI PUSH1 0x40 MLOAD PUSH32 0x8C379A000000000000000000000000000000000000000000000000000000000 DUP2 MSTORE PUSH1 0x4 ADD PUSH2 0x871 SWAP1 PUSH2 0x44DE JUMP JUMPDEST PUSH1 0x40 MLOAD DUP1 SWAP2 SUB SWAP1 REVERT JUMPDEST PUSH1 0x40 MLOAD DUP1 PUSH1 0xA0 ADD PUSH1 0x40 MSTORE DUP1 DUP4 PUSH0 ADD SLOAD DUP2 MSTORE PUSH1 0x20 ADD PUSH1 0x1 ISZERO ISZERO DUP2 MSTORE PUSH1 0x20 ADD DUP3 PUSH14 0xFFFFFFFFFFFFFFFFFFFFFFFFFFFF AND DUP2 MSTORE PUSH1 0x20 ADD DUP5 PUSH4 0xFFFFFFFF AND DUP2 MSTORE PUSH1 0x20 ADD PUSH0 PUSH6 0xFFFFFFFFFFFF AND DUP2 MSTORE POP PUSH0 PUSH0 CALLER PUSH20 0xFFFFFFFFFFFFFFFFFFFFFFFFFFFFFFFFFFFFFFFF AND PUSH20 0xFFFFFFFFFFFFFFFFFFFFFFFFFFFFFFFFFFFFFFFF AND DUP2 MSTORE PUSH1 0x20 ADD SWAP1 DUP2 MSTORE PUSH1 0x20 ADD PUSH0 KECCAK256 PUSH0 DUP3 ADD MLOAD DUP2 PUSH0 ADD SSTORE PUSH1 0x20 DUP3 ADD MLOAD DUP2 PUSH1 0x1 ADD PUSH0 PUSH2 0x100 EXP DUP2 SLOAD DUP2 PUSH1 0xFF MUL NOT AND SWAP1 DUP4 ISZERO ISZERO MUL OR SWAP1 SSTORE POP PUSH1 0x40 DUP3 ADD MLOAD DUP2 PUSH1 0x1 ADD PUSH1 0x1 PUSH2 0x100 EXP DUP2 SLOAD DUP2 PUSH14 0xFFFFFFFFFFFFFFFFFFFFFFFFFFFF MUL NOT AND SWAP1 DUP4 PUSH14 0xFFFFFFFFFFFFFFFFFFFFFFFFFFFF AND MUL OR SWAP1 SSTORE POP PUSH1 0x60 DUP3 ADD MLOAD DUP2 PUSH1 0x1 ADD PUSH1 0xF PUSH2 0x100 EXP DUP2 SLOAD DUP2 PUSH4 0xFFFFFFFF MUL NOT AND SWAP1 DUP4 PUSH4 0xFFFFFFFF AND MUL OR SWAP1 SSTORE POP PUSH1 0x80 DUP3 ADD MLOAD DUP2 PUSH1 0x1 ADD PUSH1 0x13 PUSH2 0x100 EXP DUP2 SLOAD DUP2 PUSH6 0xFFFFFFFFFFFF MUL NOT AND SWAP1 DUP4 PUSH6 0xFFFFFFFFFFFF AND MUL OR SWAP1 SSTORE POP SWAP1 POP POP CALLER PUSH20 0xFFFFFFFFFFFFFFFFFFFFFFFFFFFFFFFFFFFFFFFF AND PUSH32 0xA5AE833D0BB1DCD632D98A8B70973E8516812898E19BF27B70071EBC8DC52C01 DUP3 DUP6 PUSH1 0x40 MLOAD PUSH2 0xA00 SWAP3 SWAP2 SWAP1 PUSH2 0x4535 JUMP JUMPDEST PUSH1 0x40 MLOAD DUP1 SWAP2 SUB SWAP1 LOG2 POP POP POP JUMP JUMPDEST PUSH1 0x1 PUSH0 CALLER PUSH20 0xFFFFFFFFFFFFFFFFFFFFFFFFFFFFFFFFFFFFFFFF AND PUSH20 0xFFFFFFFFFFFFFFFFFFFFFFFFFFFFFFFFFFFFFFFF AND DUP2 MSTORE PUSH1 0x20 ADD SWAP1 DUP2 MSTORE PUSH1 0x20 ADD PUSH0 KECCAK256 PUSH0 DUP3 PUSH24 0xFFFFFFFFFFFFFFFFFFFFFFFFFFFFFFFFFFFFFFFFFFFFFFFF AND PUSH24 0xFFFFFFFFFFFFFFFFFFFFFFFFFFFFFFFFFFFFFFFFFFFFFFFF AND DUP2 MSTORE PUSH1 0x20 ADD SWAP1 DUP2 MSTORE PUSH1 0x20 ADD PUSH0 KECCAK256 PUSH0 DUP2 SLOAD DUP1 SWAP3 SWAP2 SWAP1 PUSH2 0xA9D SWAP1 PUSH2 0x455C JUMP JUMPDEST SWAP2 SWAP1 POP SSTORE POP POP JUMP JUMPDEST PUSH1 0x1 PUSH1 0x20 MSTORE DUP2 PUSH0 MSTORE PUSH1 0x40 PUSH0 KECCAK256 PUSH1 0x20 MSTORE DUP1 PUSH0 MSTORE PUSH1 0x40 PUSH0 KECCAK256 PUSH0 SWAP2 POP SWAP2 POP POP SLOAD DUP2 JUMP JUMPDEST PUSH0 PUSH0 PUSH0 CALLER PUSH20 0xFFFFFFFFFFFFFFFFFFFFFFFFFFFFFFFFFFFFFFFF AND PUSH20 0xFFFFFFFFFFFFFFFFFFFFFFFFFFFFFFFFFFFFFFFF AND DUP2 MSTORE PUSH1 0x20 ADD SWAP1 DUP2 MSTORE PUSH1 0x20 ADD PUSH0 KECCAK256 SWAP1 POP DUP1 PUSH0 ADD SLOAD DUP3 GT ISZERO PUSH2 0xB4A JUMPI PUSH1 0x40 MLOAD PUSH32 0x8C379A000000000000000000000000000000000000000000000000000000000 DUP2 MSTORE PUSH1 0x4 ADD PUSH2 0xB41 SWAP1 PUSH2 0x45ED JUMP JUMPDEST PUSH1 0x40 MLOAD DUP1 SWAP2 SUB SWAP1 REVERT JUMPDEST DUP2 DUP2 PUSH0 ADD SLOAD PUSH2 0xB59 SWAP2 SWAP1 PUSH2 0x460B JUMP JUMPDEST DUP2 PUSH0 ADD DUP2 SWAP1 SSTORE POP CALLER PUSH20 0xFFFFFFFFFFFFFFFFFFFFFFFFFFFFFFFFFFFFFFFF AND PUSH32 0xD1C19FBCD4551A5EDFB66D43D2E337C04837AFDA3482B42BDF569A8FCCDAE5FB DUP5 DUP5 PUSH1 0x40 MLOAD PUSH2 0xBA8 SWAP3 SWAP2 SWAP1 PUSH2 0x4690 JUMP JUMPDEST PUSH1 0x40 MLOAD DUP1 SWAP2 SUB SWAP1 LOG2 PUSH0 DUP4 PUSH20 0xFFFFFFFFFFFFFFFFFFFFFFFFFFFFFFFFFFFFFFFF AND DUP4 PUSH1 0x40 MLOAD PUSH2 0xBD5 SWAP1 PUSH2 0x46E4 JUMP JUMPDEST PUSH0 PUSH1 0x40 MLOAD DUP1 DUP4 SUB DUP2 DUP6 DUP8 GAS CALL SWAP3 POP POP POP RETURNDATASIZE DUP1 PUSH0 DUP2 EQ PUSH2 0xC0F JUMPI PUSH1 0x40 MLOAD SWAP2 POP PUSH1 0x1F NOT PUSH1 0x3F RETURNDATASIZE ADD AND DUP3 ADD PUSH1 0x40 MSTORE RETURNDATASIZE DUP3 MSTORE RETURNDATASIZE PUSH0 PUSH1 0x20 DUP5 ADD RETURNDATACOPY PUSH2 0xC14 JUMP JUMPDEST PUSH1 0x60 SWAP2 POP JUMPDEST POP POP SWAP1 POP DUP1 PUSH2 0xC58 JUMPI PUSH1 0x40 MLOAD PUSH32 0x8C379A000000000000000000000000000000000000000000000000000000000 DUP2 MSTORE PUSH1 0x4 ADD PUSH2 0xC4F SWAP1 PUSH2 0x4742 JUMP JUMPDEST PUSH1 0x40 MLOAD DUP1 SWAP2 SUB SWAP1 REVERT JUMPDEST POP POP POP POP JUMP JUMPDEST PUSH2 0xC66 PUSH2 0x1DFF JUMP JUMPDEST PUSH0 DUP4 DUP4 SWAP1 POP SWAP1 POP PUSH0 DUP2 PUSH8 0xFFFFFFFFFFFFFFFF DUP2 GT ISZERO PUSH2 0xC88 JUMPI PUSH2 0xC87 PUSH2 0x3E8E JUMP JUMPDEST JUMPDEST PUSH1 0x40 MLOAD SWAP1 DUP1 DUP3 MSTORE DUP1 PUSH1 0x20 MUL PUSH1 0x20 ADD DUP3 ADD PUSH1 0x40 MSTORE DUP1 ISZERO PUSH2 0xCC1 JUMPI DUP2 PUSH1 0x20 ADD JUMPDEST PUSH2 0xCAE PUSH2 0x3603 JUMP JUMPDEST DUP2 MSTORE PUSH1 0x20 ADD SWAP1 PUSH1 0x1 SWAP1 SUB SWAP1 DUP2 PUSH2 0xCA6 JUMPI SWAP1 POP JUMPDEST POP SWAP1 POP PUSH0 PUSH0 SWAP1 POP JUMPDEST DUP3 DUP2 LT ISZERO PUSH2 0xD40 JUMPI PUSH0 DUP3 DUP3 DUP2 MLOAD DUP2 LT PUSH2 0xCE5 JUMPI PUSH2 0xCE4 PUSH2 0x4760 JUMP JUMPDEST JUMPDEST PUSH1 0x20 MUL PUSH1 0x20 ADD ADD MLOAD SWAP1 POP PUSH0 PUSH0 PUSH2 0xD20 DUP5 DUP11 DUP11 DUP8 DUP2 DUP2 LT PUSH2 0xD08 JUMPI PUSH2 0xD07 PUSH2 0x4760 JUMP JUMPDEST JUMPDEST SWAP1 POP PUSH1 0x20 MUL DUP2 ADD SWAP1 PUSH2 0xD1A SWAP2 SWAP1 PUSH2 0x4799 JUMP JUMPDEST DUP6 PUSH2 0x1E43 JUMP JUMPDEST SWAP2 POP SWAP2 POP PUSH2 0xD30 DUP5 DUP4 DUP4 PUSH0 PUSH2 0x1FFA JUMP JUMPDEST POP POP POP DUP1 DUP1 PUSH1 0x1 ADD SWAP2 POP POP PUSH2 0xCC9 JUMP JUMPDEST POP PUSH0 PUSH0 SWAP1 POP PUSH32 0xBB47EE3E183A558B1A2FF0874B079F3FC5478B7454EACF2BFC5AF2FF5878F972 PUSH1 0x40 MLOAD PUSH1 0x40 MLOAD DUP1 SWAP2 SUB SWAP1 LOG1 PUSH0 PUSH0 SWAP1 POP JUMPDEST DUP4 DUP2 LT ISZERO PUSH2 0xDD8 JUMPI PUSH2 0xDC7 DUP2 DUP9 DUP9 DUP5 DUP2 DUP2 LT PUSH2 0xD95 JUMPI PUSH2 0xD94 PUSH2 0x4760 JUMP JUMPDEST JUMPDEST SWAP1 POP PUSH1 0x20 MUL DUP2 ADD SWAP1 PUSH2 0xDA7 SWAP2 SWAP1 PUSH2 0x4799 JUMP JUMPDEST DUP6 DUP5 DUP2 MLOAD DUP2 LT PUSH2 0xDBA JUMPI PUSH2 0xDB9 PUSH2 0x4760 JUMP JUMPDEST JUMPDEST PUSH1 0x20 MUL PUSH1 0x20 ADD ADD MLOAD PUSH2 0x218A JUMP JUMPDEST DUP3 ADD SWAP2 POP DUP1 DUP1 PUSH1 0x1 ADD SWAP2 POP POP PUSH2 0xD76 JUMP JUMPDEST POP PUSH2 0xDE3 DUP5 DUP3 PUSH2 0x251A JUMP JUMPDEST POP POP POP PUSH2 0xDEE PUSH2 0x25C7 JUMP JUMPDEST POP POP POP JUMP JUMPDEST PUSH0 PUSH1 0x40 DUP3 PUSH24 0xFFFFFFFFFFFFFFFFFFFFFFFFFFFFFFFFFFFFFFFFFFFFFFFF AND SWAP1 SHL PUSH1 0x1 PUSH0 DUP6 PUSH20 0xFFFFFFFFFFFFFFFFFFFFFFFFFFFFFFFFFFFFFFFF AND PUSH20 0xFFFFFFFFFFFFFFFFFFFFFFFFFFFFFFFFFFFFFFFF AND DUP2 MSTORE PUSH1 0x20 ADD SWAP1 DUP2 MSTORE PUSH1 0x20 ADD PUSH0 KECCAK256 PUSH0 DUP5 PUSH24 0xFFFFFFFFFFFFFFFFFFFFFFFFFFFFFFFFFFFFFFFFFFFFFFFF AND PUSH24 0xFFFFFFFFFFFFFFFFFFFFFFFFFFFFFFFFFFFFFFFFFFFFFFFF AND DUP2 MSTORE PUSH1 0x20 ADD SWAP1 DUP2 MSTORE PUSH1 0x20 ADD PUSH0 KECCAK256 SLOAD OR SWAP1 POP SWAP3 SWAP2 POP POP JUMP JUMPDEST PUSH2 0xEA5 PUSH2 0x3634 JUMP JUMPDEST PUSH0 PUSH0 DUP4 PUSH20 0xFFFFFFFFFFFFFFFFFFFFFFFFFFFFFFFFFFFFFFFF AND PUSH20 0xFFFFFFFFFFFFFFFFFFFFFFFFFFFFFFFFFFFFFFFF AND DUP2 MSTORE PUSH1 0x20 ADD SWAP1 DUP2 MSTORE PUSH1 0x20 ADD PUSH0 KECCAK256 PUSH1 0x40 MLOAD DUP1 PUSH1 0xA0 ADD PUSH1 0x40 MSTORE SWAP1 DUP2 PUSH0 DUP3 ADD SLOAD DUP2 MSTORE PUSH1 0x20 ADD PUSH1 0x1 DUP3 ADD PUSH0 SWAP1 SLOAD SWAP1 PUSH2 0x100 EXP SWAP1 DIV PUSH1 0xFF AND ISZERO ISZERO ISZERO ISZERO DUP2 MSTORE PUSH1 0x20 ADD PUSH1 0x1 DUP3 ADD PUSH1 0x1 SWAP1 SLOAD SWAP1 PUSH2 0x100 EXP SWAP1 DIV PUSH14 0xFFFFFFFFFFFFFFFFFFFFFFFFFFFF AND PUSH14 0xFFFFFFFFFFFFFFFFFFFFFFFFFFFF AND PUSH14 0xFFFFFFFFFFFFFFFFFFFFFFFFFFFF AND DUP2 MSTORE PUSH1 0x20 ADD PUSH1 0x1 DUP3 ADD PUSH1 0xF SWAP1 SLOAD SWAP1 PUSH2 0x100 EXP SWAP1 DIV PUSH4 0xFFFFFFFF AND PUSH4 0xFFFFFFFF AND PUSH4 0xFFFFFFFF AND DUP2 MSTORE PUSH1 0x20 ADD PUSH1 0x1 DUP3 ADD PUSH1 0x13 SWAP1 SLOAD SWAP1 PUSH2 0x100 EXP SWAP1 DIV PUSH6 0xFFFFFFFFFFFF AND PUSH6 0xFFFFFFFFFFFF AND PUSH6 0xFFFFFFFFFFFF AND DUP2 MSTORE POP POP SWAP1 POP SWAP2 SWAP1 POP JUMP JUMPDEST PUSH0 PUSH0 PUSH0 DUP4 PUSH20 0xFFFFFFFFFFFFFFFFFFFFFFFFFFFFFFFFFFFFFFFF AND PUSH20 0xFFFFFFFFFFFFFFFFFFFFFFFFFFFFFFFFFFFFFFFF AND DUP2 MSTORE PUSH1 0x20 ADD SWAP1 DUP2 MSTORE PUSH1 0x20 ADD PUSH0 KECCAK256 PUSH0 ADD SLOAD SWAP1 POP SWAP2 SWAP1 POP JUMP JUMPDEST PUSH2 0xFFB PUSH2 0x1DFF JUMP JUMPDEST PUSH0 DUP4 DUP4 SWAP1 POP SWAP1 POP PUSH0 PUSH0 SWAP1 POP PUSH0 PUSH0 SWAP1 POP JUMPDEST DUP3 DUP2 LT ISZERO PUSH2 0x11A9 JUMPI CALLDATASIZE DUP7 DUP7 DUP4 DUP2 DUP2 LT PUSH2 0x1027 JUMPI PUSH2 0x1026 PUSH2 0x4760 JUMP JUMPDEST JUMPDEST SWAP1 POP PUSH1 0x20 MUL DUP2 ADD SWAP1 PUSH2 0x1039 SWAP2 SWAP1 PUSH2 0x47C1 JUMP JUMPDEST SWAP1 POP CALLDATASIZE PUSH0 DUP3 DUP1 PUSH0 ADD SWAP1 PUSH2 0x104C SWAP2 SWAP1 PUSH2 0x47E8 JUMP JUMPDEST SWAP2 POP SWAP2 POP PUSH0 DUP4 PUSH1 0x20 ADD PUSH1 0x20 DUP2 ADD SWAP1 PUSH2 0x1064 SWAP2 SWAP1 PUSH2 0x4885 JUMP JUMPDEST SWAP1 POP PUSH1 0x1 PUSH20 0xFFFFFFFFFFFFFFFFFFFFFFFFFFFFFFFFFFFFFFFF AND DUP2 PUSH20 0xFFFFFFFFFFFFFFFFFFFFFFFFFFFFFFFFFFFFFFFF AND SUB PUSH2 0x109E JUMPI PUSH0 PUSH0 REVERT JUMPDEST PUSH0 PUSH20 0xFFFFFFFFFFFFFFFFFFFFFFFFFFFFFFFFFFFFFFFF AND DUP2 PUSH20 0xFFFFFFFFFFFFFFFFFFFFFFFFFFFFFFFFFFFFFFFF AND EQ PUSH2 0x1187 JUMPI DUP1 PUSH20 0xFFFFFFFFFFFFFFFFFFFFFFFFFFFFFFFFFFFFFFFF AND PUSH4 0x90FAF192 DUP5 DUP5 DUP8 DUP1 PUSH1 0x40 ADD SWAP1 PUSH2 0x10FF SWAP2 SWAP1 PUSH2 0x48B0 JUMP JUMPDEST PUSH1 0x40 MLOAD DUP6 PUSH4 0xFFFFFFFF AND PUSH1 0xE0 SHL DUP2 MSTORE PUSH1 0x4 ADD PUSH2 0x111E SWAP5 SWAP4 SWAP3 SWAP2 SWAP1 PUSH2 0x4C93 JUMP JUMPDEST PUSH0 PUSH1 0x40 MLOAD DUP1 DUP4 SUB DUP2 DUP7 DUP1 EXTCODESIZE ISZERO DUP1 ISZERO PUSH2 0x1134 JUMPI PUSH0 PUSH0 REVERT JUMPDEST POP GAS STATICCALL SWAP3 POP POP POP DUP1 ISZERO PUSH2 0x1145 JUMPI POP PUSH1 0x1 JUMPDEST PUSH2 0x1186 JUMPI DUP1 PUSH1 0x40 MLOAD PUSH32 0x86A9F75000000000000000000000000000000000000000000000000000000000 DUP2 MSTORE PUSH1 0x4 ADD PUSH2 0x117D SWAP2 SWAP1 PUSH2 0x4CDB JUMP JUMPDEST PUSH1 0x40 MLOAD DUP1 SWAP2 SUB SWAP1 REVERT JUMPDEST JUMPDEST DUP3 DUP3 SWAP1 POP DUP7 PUSH2 0x1196 SWAP2 SWAP1 PUSH2 0x43F9 JUMP JUMPDEST SWAP6 POP POP POP POP POP DUP1 DUP1 PUSH1 0x1 ADD SWAP2 POP POP PUSH2 0x100B JUMP JUMPDEST POP PUSH0 DUP2 PUSH8 0xFFFFFFFFFFFFFFFF DUP2 GT ISZERO PUSH2 0x11C5 JUMPI PUSH2 0x11C4 PUSH2 0x3E8E JUMP JUMPDEST JUMPDEST PUSH1 0x40 MLOAD SWAP1 DUP1 DUP3 MSTORE DUP1 PUSH1 0x20 MUL PUSH1 0x20 ADD DUP3 ADD PUSH1 0x40 MSTORE DUP1 ISZERO PUSH2 0x11FE JUMPI DUP2 PUSH1 0x20 ADD JUMPDEST PUSH2 0x11EB PUSH2 0x3603 JUMP JUMPDEST DUP2 MSTORE PUSH1 0x20 ADD SWAP1 PUSH1 0x1 SWAP1 SUB SWAP1 DUP2 PUSH2 0x11E3 JUMPI SWAP1 POP JUMPDEST POP SWAP1 POP PUSH0 PUSH0 SWAP1 POP PUSH0 PUSH0 SWAP1 POP JUMPDEST DUP5 DUP2 LT ISZERO PUSH2 0x1309 JUMPI CALLDATASIZE DUP9 DUP9 DUP4 DUP2 DUP2 LT PUSH2 0x1226 JUMPI PUSH2 0x1225 PUSH2 0x4760 JUMP JUMPDEST JUMPDEST SWAP1 POP PUSH1 0x20 MUL DUP2 ADD SWAP1 PUSH2 0x1238 SWAP2 SWAP1 PUSH2 0x47C1 JUMP JUMPDEST SWAP1 POP CALLDATASIZE PUSH0 DUP3 DUP1 PUSH0 ADD SWAP1 PUSH2 0x124B SWAP2 SWAP1 PUSH2 0x47E8 JUMP JUMPDEST SWAP2 POP SWAP2 POP PUSH0 DUP4 PUSH1 0x20 ADD PUSH1 0x20 DUP2 ADD SWAP1 PUSH2 0x1263 SWAP2 SWAP1 PUSH2 0x4885 JUMP JUMPDEST SWAP1 POP PUSH0 DUP4 DUP4 SWAP1 POP SWAP1 POP PUSH0 PUSH0 SWAP1 POP JUMPDEST DUP2 DUP2 LT ISZERO PUSH2 0x12F6 JUMPI PUSH0 DUP10 DUP10 DUP2 MLOAD DUP2 LT PUSH2 0x128D JUMPI PUSH2 0x128C PUSH2 0x4760 JUMP JUMPDEST JUMPDEST PUSH1 0x20 MUL PUSH1 0x20 ADD ADD MLOAD SWAP1 POP PUSH0 PUSH0 PUSH2 0x12C8 DUP12 DUP10 DUP10 DUP8 DUP2 DUP2 LT PUSH2 0x12B0 JUMPI PUSH2 0x12AF PUSH2 0x4760 JUMP JUMPDEST JUMPDEST SWAP1 POP PUSH1 0x20 MUL DUP2 ADD SWAP1 PUSH2 0x12C2 SWAP2 SWAP1 PUSH2 0x4799 JUMP JUMPDEST DUP6 PUSH2 0x1E43 JUMP JUMPDEST SWAP2 POP SWAP2 POP PUSH2 0x12D8 DUP5 DUP4 DUP4 DUP10 PUSH2 0x1FFA JUMP JUMPDEST DUP11 DUP1 PUSH2 0x12E3 SWAP1 PUSH2 0x455C JUMP JUMPDEST SWAP12 POP POP POP POP POP DUP1 DUP1 PUSH1 0x1 ADD SWAP2 POP POP PUSH2 0x1271 JUMP JUMPDEST POP POP POP POP POP POP DUP1 DUP1 PUSH1 0x1 ADD SWAP2 POP POP PUSH2 0x120A JUMP JUMPDEST POP PUSH32 0xBB47EE3E183A558B1A2FF0874B079F3FC5478B7454EACF2BFC5AF2FF5878F972 PUSH1 0x40 MLOAD PUSH1 0x40 MLOAD DUP1 SWAP2 SUB SWAP1 LOG1 PUSH0 PUSH0 SWAP1 POP PUSH0 SWAP2 POP PUSH0 PUSH0 SWAP1 POP JUMPDEST DUP6 DUP2 LT ISZERO PUSH2 0x1473 JUMPI CALLDATASIZE DUP10 DUP10 DUP4 DUP2 DUP2 LT PUSH2 0x135E JUMPI PUSH2 0x135D PUSH2 0x4760 JUMP JUMPDEST JUMPDEST SWAP1 POP PUSH1 0x20 MUL DUP2 ADD SWAP1 PUSH2 0x1370 SWAP2 SWAP1 PUSH2 0x47C1 JUMP JUMPDEST SWAP1 POP DUP1 PUSH1 0x20 ADD PUSH1 0x20 DUP2 ADD SWAP1 PUSH2 0x1385 SWAP2 SWAP1 PUSH2 0x4885 JUMP JUMPDEST PUSH20 0xFFFFFFFFFFFFFFFFFFFFFFFFFFFFFFFFFFFFFFFF AND PUSH32 0x575FF3ACADD5AB348FE1855E217E0F3678F8D767D7494C9F9FEFBEE2E17CCA4D PUSH1 0x40 MLOAD PUSH1 0x40 MLOAD DUP1 SWAP2 SUB SWAP1 LOG2 CALLDATASIZE PUSH0 DUP3 DUP1 PUSH0 ADD SWAP1 PUSH2 0x13D8 SWAP2 SWAP1 PUSH2 0x47E8 JUMP JUMPDEST SWAP2 POP SWAP2 POP PUSH0 DUP3 DUP3 SWAP1 POP SWAP1 POP PUSH0 PUSH0 SWAP1 POP JUMPDEST DUP2 DUP2 LT ISZERO PUSH2 0x1461 JUMPI PUSH2 0x1439 DUP9 DUP6 DUP6 DUP5 DUP2 DUP2 LT PUSH2 0x1407 JUMPI PUSH2 0x1406 PUSH2 0x4760 JUMP JUMPDEST JUMPDEST SWAP1 POP PUSH1 0x20 MUL DUP2 ADD SWAP1 PUSH2 0x1419 SWAP2 SWAP1 PUSH2 0x4799 JUMP JUMPDEST DUP12 DUP12 DUP2 MLOAD DUP2 LT PUSH2 0x142C JUMPI PUSH2 0x142B PUSH2 0x4760 JUMP JUMPDEST JUMPDEST PUSH1 0x20 MUL PUSH1 0x20 ADD ADD MLOAD PUSH2 0x218A JUMP JUMPDEST DUP8 PUSH2 0x1444 SWAP2 SWAP1 PUSH2 0x43F9 JUMP JUMPDEST SWAP7 POP DUP8 DUP1 PUSH2 0x1451 SWAP1 PUSH2 0x455C JUMP JUMPDEST SWAP9 POP POP DUP1 DUP1 PUSH1 0x1 ADD SWAP2 POP POP PUSH2 0x13E8 JUMP JUMPDEST POP POP POP POP POP DUP1 DUP1 PUSH1 0x1 ADD SWAP2 POP POP PUSH2 0x1342 JUMP JUMPDEST POP PUSH0 PUSH20 0xFFFFFFFFFFFFFFFFFFFFFFFFFFFFFFFFFFFFFFFF AND PUSH32 0x575FF3ACADD5AB348FE1855E217E0F3678F8D767D7494C9F9FEFBEE2E17CCA4D PUSH1 0x40 MLOAD PUSH1 0x40 MLOAD DUP1 SWAP2 SUB SWAP1 LOG2 PUSH2 0x14C1 DUP7 DUP3 PUSH2 0x251A JUMP JUMPDEST POP POP POP POP POP PUSH2 0x14CE PUSH2 0x25C7 JUMP JUMPDEST POP POP POP JUMP JUMPDEST PUSH0 PUSH2 0x14DD DUP3 PUSH2 0x25D1 JUMP JUMPDEST ADDRESS CHAINID PUSH1 0x40 MLOAD PUSH1 0x20 ADD PUSH2 0x14F1 SWAP4 SWAP3 SWAP2 SWAP1 PUSH2 0x4CF4 JUMP JUMPDEST PUSH1 0x40 MLOAD PUSH1 0x20 DUP2 DUP4 SUB SUB DUP2 MSTORE SWAP1 PUSH1 0x40 MSTORE DUP1 MLOAD SWAP1 PUSH1 0x20 ADD KECCAK256 SWAP1 POP SWAP2 SWAP1 POP JUMP JUMPDEST PUSH0 PUSH0 DUP5 PUSH20 0xFFFFFFFFFFFFFFFFFFFFFFFFFFFFFFFFFFFFFFFF AND DUP5 DUP5 PUSH1 0x40 MLOAD PUSH2 0x1537 SWAP3 SWAP2 SWAP1 PUSH2 0x4D4D JUMP JUMPDEST PUSH0 PUSH1 0x40 MLOAD DUP1 DUP4 SUB DUP2 DUP6 GAS DELEGATECALL SWAP2 POP POP RETURNDATASIZE DUP1 PUSH0 DUP2 EQ PUSH2 0x156F JUMPI PUSH1 0x40 MLOAD SWAP2 POP PUSH1 0x1F NOT PUSH1 0x3F RETURNDATASIZE ADD AND DUP3 ADD PUSH1 0x40 MSTORE RETURNDATASIZE DUP3 MSTORE RETURNDATASIZE PUSH0 PUSH1 0x20 DUP5 ADD RETURNDATACOPY PUSH2 0x1574 JUMP JUMPDEST PUSH1 0x60 SWAP2 POP JUMPDEST POP SWAP2 POP SWAP2 POP DUP2 DUP2 PUSH1 0x40 MLOAD PUSH32 0x9941055400000000000000000000000000000000000000000000000000000000 DUP2 MSTORE PUSH1 0x4 ADD PUSH2 0x15AF SWAP3 SWAP2 SWAP1 PUSH2 0x4DB5 JUMP JUMPDEST PUSH1 0x40 MLOAD DUP1 SWAP2 SUB SWAP1 REVERT JUMPDEST PUSH0 PUSH2 0x15C1 PUSH2 0x25E9 JUMP JUMPDEST PUSH20 0xFFFFFFFFFFFFFFFFFFFFFFFFFFFFFFFFFFFFFFFF AND PUSH4 0x570E1A36 DUP5 DUP5 PUSH1 0x40 MLOAD DUP4 PUSH4 0xFFFFFFFF AND PUSH1 0xE0 SHL DUP2 MSTORE PUSH1 0x4 ADD PUSH2 0x15FB SWAP3 SWAP2 SWAP1 PUSH2 0x4DE3 JUMP JUMPDEST PUSH1 0x20 PUSH1 0x40 MLOAD DUP1 DUP4 SUB DUP2 PUSH0 DUP8 GAS CALL ISZERO DUP1 ISZERO PUSH2 0x1617 JUMPI RETURNDATASIZE PUSH0 PUSH0 RETURNDATACOPY RETURNDATASIZE PUSH0 REVERT JUMPDEST POP POP POP POP PUSH1 0x40 MLOAD RETURNDATASIZE PUSH1 0x1F NOT PUSH1 0x1F DUP3 ADD AND DUP3 ADD DUP1 PUSH1 0x40 MSTORE POP DUP2 ADD SWAP1 PUSH2 0x163B SWAP2 SWAP1 PUSH2 0x4E19 JUMP JUMPDEST SWAP1 POP DUP1 PUSH1 0x40 MLOAD PUSH32 0x6CA7B80600000000000000000000000000000000000000000000000000000000 DUP2 MSTORE PUSH1 0x4 ADD PUSH2 0x1671 SWAP2 SWAP1 PUSH2 0x4CDB JUMP JUMPDEST PUSH1 0x40 MLOAD DUP1 SWAP2 SUB SWAP1 REVERT JUMPDEST PUSH0 PUSH0 GAS SWAP1 POP ADDRESS PUSH20 0xFFFFFFFFFFFFFFFFFFFFFFFFFFFFFFFFFFFFFFFF AND CALLER PUSH20 0xFFFFFFFFFFFFFFFFFFFFFFFFFFFFFFFFFFFFFFFF AND EQ PUSH2 0x16B6 JUMPI PUSH0 PUSH0 REVERT JUMPDEST PUSH0 DUP6 PUSH0 ADD MLOAD SWAP1 POP PUSH0 DUP2 PUSH1 0x80 ADD MLOAD SWAP1 POP PUSH2 0x2710 DUP3 PUSH1 0xC0 ADD MLOAD DUP3 ADD ADD PUSH1 0x40 PUSH1 0x3F GAS MUL DUP2 PUSH2 0x16E4 JUMPI PUSH2 0x16E3 PUSH2 0x4E44 JUMP JUMPDEST JUMPDEST DIV LT ISZERO PUSH2 0x1713 JUMPI PUSH32 0xDEADDEAD00000000000000000000000000000000000000000000000000000000 PUSH0 MSTORE PUSH1 0x20 PUSH0 REVERT JUMPDEST PUSH0 PUSH0 SWAP1 POP PUSH0 DUP10 MLOAD GT ISZERO PUSH2 0x17B3 JUMPI PUSH0 PUSH2 0x1730 DUP5 PUSH0 ADD MLOAD PUSH0 DUP13 DUP7 PUSH2 0x2610 JUMP JUMPDEST SWAP1 POP DUP1 PUSH2 0x17B1 JUMPI PUSH0 PUSH2 0x1743 PUSH2 0x800 PUSH2 0x2627 JUMP JUMPDEST SWAP1 POP PUSH0 DUP2 MLOAD GT ISZERO PUSH2 0x17AB JUMPI DUP5 PUSH0 ADD MLOAD PUSH20 0xFFFFFFFFFFFFFFFFFFFFFFFFFFFFFFFFFFFFFFFF AND DUP11 PUSH1 0x20 ADD MLOAD PUSH32 0x1C4FADA7374C0A9EE8841FC38AFE82932DC0F8E69012E927F061A8BAE611A201 DUP8 PUSH1 0x20 ADD MLOAD DUP5 PUSH1 0x40 MLOAD PUSH2 0x17A2 SWAP3 SWAP2 SWAP1 PUSH2 0x4E71 JUMP JUMPDEST PUSH1 0x40 MLOAD DUP1 SWAP2 SUB SWAP1 LOG3 JUMPDEST PUSH1 0x1 SWAP3 POP POP JUMPDEST POP JUMPDEST PUSH0 DUP9 PUSH1 0x80 ADD MLOAD GAS DUP7 SUB ADD SWAP1 POP PUSH2 0x180E DUP3 DUP11 DUP11 DUP11 DUP1 DUP1 PUSH1 0x1F ADD PUSH1 0x20 DUP1 SWAP2 DIV MUL PUSH1 0x20 ADD PUSH1 0x40 MLOAD SWAP1 DUP2 ADD PUSH1 0x40 MSTORE DUP1 SWAP4 SWAP3 SWAP2 SWAP1 DUP2 DUP2 MSTORE PUSH1 0x20 ADD DUP4 DUP4 DUP1 DUP3 DUP5 CALLDATACOPY PUSH0 DUP2 DUP5 ADD MSTORE PUSH1 0x1F NOT PUSH1 0x1F DUP3 ADD AND SWAP1 POP DUP1 DUP4 ADD SWAP3 POP POP POP POP POP POP POP DUP5 PUSH2 0x2656 JUMP JUMPDEST SWAP6 POP POP POP POP POP POP SWAP5 SWAP4 POP POP POP POP JUMP JUMPDEST PUSH0 PUSH0 PUSH0 CALLER PUSH20 0xFFFFFFFFFFFFFFFFFFFFFFFFFFFFFFFFFFFFFFFF AND PUSH20 0xFFFFFFFFFFFFFFFFFFFFFFFFFFFFFFFFFFFFFFFF AND DUP2 MSTORE PUSH1 0x20 ADD SWAP1 DUP2 MSTORE PUSH1 0x20 ADD PUSH0 KECCAK256 SWAP1 POP PUSH0 DUP2 PUSH1 0x1 ADD PUSH1 0xF SWAP1 SLOAD SWAP1 PUSH2 0x100 EXP SWAP1 DIV PUSH4 0xFFFFFFFF AND PUSH4 0xFFFFFFFF AND SUB PUSH2 0x18B8 JUMPI PUSH1 0x40 MLOAD PUSH32 0x8C379A000000000000000000000000000000000000000000000000000000000 DUP2 MSTORE PUSH1 0x4 ADD PUSH2 0x18AF SWAP1 PUSH2 0x4EE9 JUMP JUMPDEST PUSH1 0x40 MLOAD DUP1 SWAP2 SUB SWAP1 REVERT JUMPDEST DUP1 PUSH1 0x1 ADD PUSH0 SWAP1 SLOAD SWAP1 PUSH2 0x100 EXP SWAP1 DIV PUSH1 0xFF AND PUSH2 0x1908 JUMPI PUSH1 0x40 MLOAD PUSH32 0x8C379A000000000000000000000000000000000000000000000000000000000 DUP2 MSTORE PUSH1 0x4 ADD PUSH2 0x18FF SWAP1 PUSH2 0x4F51 JUMP JUMPDEST PUSH1 0x40 MLOAD DUP1 SWAP2 SUB SWAP1 REVERT JUMPDEST PUSH0 DUP2 PUSH1 0x1 ADD PUSH1 0xF SWAP1 SLOAD SWAP1 PUSH2 0x100 EXP SWAP1 DIV PUSH4 0xFFFFFFFF AND PUSH4 0xFFFFFFFF AND TIMESTAMP PUSH2 0x192F SWAP2 SWAP1 PUSH2 0x4F6F JUMP JUMPDEST SWAP1 POP DUP1 DUP3 PUSH1 0x1 ADD PUSH1 0x13 PUSH2 0x100 EXP DUP2 SLOAD DUP2 PUSH6 0xFFFFFFFFFFFF MUL NOT AND SWAP1 DUP4 PUSH6 0xFFFFFFFFFFFF AND MUL OR SWAP1 SSTORE POP PUSH0 DUP3 PUSH1 0x1 ADD PUSH0 PUSH2 0x100 EXP DUP2 SLOAD DUP2 PUSH1 0xFF MUL NOT AND SWAP1 DUP4 ISZERO ISZERO MUL OR SWAP1 SSTORE POP CALLER PUSH20 0xFFFFFFFFFFFFFFFFFFFFFFFFFFFFFFFFFFFFFFFF AND PUSH32 0xFA9B3C14CC825C412C9ED81B3BA365A5B459439403F18829E572ED53A4180F0A DUP3 PUSH1 0x40 MLOAD PUSH2 0x19B9 SWAP2 SWAP1 PUSH2 0x4FD8 JUMP JUMPDEST PUSH1 0x40 MLOAD DUP1 SWAP2 SUB SWAP1 LOG2 POP POP JUMP JUMPDEST PUSH0 PUSH0 PUSH0 CALLER PUSH20 0xFFFFFFFFFFFFFFFFFFFFFFFFFFFFFFFFFFFFFFFF AND PUSH20 0xFFFFFFFFFFFFFFFFFFFFFFFFFFFFFFFFFFFFFFFF AND DUP2 MSTORE PUSH1 0x20 ADD SWAP1 DUP2 MSTORE PUSH1 0x20 ADD PUSH0 KECCAK256 SWAP1 POP PUSH0 DUP2 PUSH1 0x1 ADD PUSH1 0x1 SWAP1 SLOAD SWAP1 PUSH2 0x100 EXP SWAP1 DIV PUSH14 0xFFFFFFFFFFFFFFFFFFFFFFFFFFFF AND PUSH14 0xFFFFFFFFFFFFFFFFFFFFFFFFFFFF AND SWAP1 POP PUSH0 DUP2 GT PUSH2 0x1A78 JUMPI PUSH1 0x40 MLOAD PUSH32 0x8C379A000000000000000000000000000000000000000000000000000000000 DUP2 MSTORE PUSH1 0x4 ADD PUSH2 0x1A6F SWAP1 PUSH2 0x503B JUMP JUMPDEST PUSH1 0x40 MLOAD DUP1 SWAP2 SUB SWAP1 REVERT JUMPDEST PUSH0 DUP3 PUSH1 0x1 ADD PUSH1 0x13 SWAP1 SLOAD SWAP1 PUSH2 0x100 EXP SWAP1 DIV PUSH6 0xFFFFFFFFFFFF AND PUSH6 0xFFFFFFFFFFFF AND GT PUSH2 0x1AD8 JUMPI PUSH1 0x40 MLOAD PUSH32 0x8C379A000000000000000000000000000000000000000000000000000000000 DUP2 MSTORE PUSH1 0x4 ADD PUSH2 0x1ACF SWAP1 PUSH2 0x50A3 JUMP JUMPDEST PUSH1 0x40 MLOAD DUP1 SWAP2 SUB SWAP1 REVERT JUMPDEST TIMESTAMP DUP3 PUSH1 0x1 ADD PUSH1 0x13 SWAP1 SLOAD SWAP1 PUSH2 0x100 EXP SWAP1 DIV PUSH6 0xFFFFFFFFFFFF AND PUSH6 0xFFFFFFFFFFFF AND GT ISZERO PUSH2 0x1B39 JUMPI PUSH1 0x40 MLOAD PUSH32 0x8C379A000000000000000000000000000000000000000000000000000000000 DUP2 MSTORE PUSH1 0x4 ADD PUSH2 0x1B30 SWAP1 PUSH2 0x510B JUMP JUMPDEST PUSH1 0x40 MLOAD DUP1 SWAP2 SUB SWAP1 REVERT JUMPDEST PUSH0 DUP3 PUSH1 0x1 ADD PUSH1 0xF PUSH2 0x100 EXP DUP2 SLOAD DUP2 PUSH4 0xFFFFFFFF MUL NOT AND SWAP1 DUP4 PUSH4 0xFFFFFFFF AND MUL OR SWAP1 SSTORE POP PUSH0 DUP3 PUSH1 0x1 ADD PUSH1 0x13 PUSH2 0x100 EXP DUP2 SLOAD DUP2 PUSH6 0xFFFFFFFFFFFF MUL NOT AND SWAP1 DUP4 PUSH6 0xFFFFFFFFFFFF AND MUL OR SWAP1 SSTORE POP PUSH0 DUP3 PUSH1 0x1 ADD PUSH1 0x1 PUSH2 0x100 EXP DUP2 SLOAD DUP2 PUSH14 0xFFFFFFFFFFFFFFFFFFFFFFFFFFFF MUL NOT AND SWAP1 DUP4 PUSH14 0xFFFFFFFFFFFFFFFFFFFFFFFFFFFF AND MUL OR SWAP1 SSTORE POP CALLER PUSH20 0xFFFFFFFFFFFFFFFFFFFFFFFFFFFFFFFFFFFFFFFF AND PUSH32 0xB7C918E0E249F999E965CAFEB6C664271B3F4317D296461500E71DA39F0CBDA3 DUP5 DUP4 PUSH1 0x40 MLOAD PUSH2 0x1C02 SWAP3 SWAP2 SWAP1 PUSH2 0x4690 JUMP JUMPDEST PUSH1 0x40 MLOAD DUP1 SWAP2 SUB SWAP1 LOG2 PUSH0 DUP4 PUSH20 0xFFFFFFFFFFFFFFFFFFFFFFFFFFFFFFFFFFFFFFFF AND DUP3 PUSH1 0x40 MLOAD PUSH2 0x1C2F SWAP1 PUSH2 0x46E4 JUMP JUMPDEST PUSH0 PUSH1 0x40 MLOAD DUP1 DUP4 SUB DUP2 DUP6 DUP8 GAS CALL SWAP3 POP POP POP RETURNDATASIZE DUP1 PUSH0 DUP2 EQ PUSH2 0x1C69 JUMPI PUSH1 0x40 MLOAD SWAP2 POP PUSH1 0x1F NOT PUSH1 0x3F RETURNDATASIZE ADD AND DUP3 ADD PUSH1 0x40 MSTORE RETURNDATASIZE DUP3 MSTORE RETURNDATASIZE PUSH0 PUSH1 0x20 DUP5 ADD RETURNDATACOPY PUSH2 0x1C6E JUMP JUMPDEST PUSH1 0x60 SWAP2 POP JUMPDEST POP POP SWAP1 POP DUP1 PUSH2 0x1CB2 JUMPI PUSH1 0x40 MLOAD PUSH32 0x8C379A000000000000000000000000000000000000000000000000000000000 DUP2 MSTORE PUSH1 0x4 ADD PUSH2 0x1CA9 SWAP1 PUSH2 0x5173 JUMP JUMPDEST PUSH1 0x40 MLOAD DUP1 SWAP2 SUB SWAP1 REVERT JUMPDEST POP POP POP POP JUMP JUMPDEST PUSH0 PUSH1 0x20 MSTORE DUP1 PUSH0 MSTORE PUSH1 0x40 PUSH0 KECCAK256 PUSH0 SWAP2 POP SWAP1 POP DUP1 PUSH0 ADD SLOAD SWAP1 DUP1 PUSH1 0x1 ADD PUSH0 SWAP1 SLOAD SWAP1 PUSH2 0x100 EXP SWAP1 DIV PUSH1 0xFF AND SWAP1 DUP1 PUSH1 0x1 ADD PUSH1 0x1 SWAP1 SLOAD SWAP1 PUSH2 0x100 EXP SWAP1 DIV PUSH14 0xFFFFFFFFFFFFFFFFFFFFFFFFFFFF AND SWAP1 DUP1 PUSH1 0x1 ADD PUSH1 0xF SWAP1 SLOAD SWAP1 PUSH2 0x100 EXP SWAP1 DIV PUSH4 0xFFFFFFFF AND SWAP1 DUP1 PUSH1 0x1 ADD PUSH1 0x13 SWAP1 SLOAD SWAP1 PUSH2 0x100 EXP SWAP1 DIV PUSH6 0xFFFFFFFFFFFF AND SWAP1 POP DUP6 JUMP JUMPDEST PUSH0 PUSH0 PUSH0 PUSH0 DUP6 PUSH20 0xFFFFFFFFFFFFFFFFFFFFFFFFFFFFFFFFFFFFFFFF AND PUSH20 0xFFFFFFFFFFFFFFFFFFFFFFFFFFFFFFFFFFFFFFFF AND DUP2 MSTORE PUSH1 0x20 ADD SWAP1 DUP2 MSTORE PUSH1 0x20 ADD PUSH0 KECCAK256 SWAP1 POP PUSH0 DUP4 DUP3 PUSH0 ADD SLOAD PUSH2 0x1D81 SWAP2 SWAP1 PUSH2 0x43F9 JUMP JUMPDEST SWAP1 POP DUP1 DUP3 PUSH0 ADD DUP2 SWAP1 SSTORE POP DUP1 SWAP3 POP POP POP SWAP3 SWAP2 POP POP JUMP JUMPDEST PUSH0 PUSH32 0x1FFC9A700000000000000000000000000000000000000000000000000000000 PUSH28 0xFFFFFFFFFFFFFFFFFFFFFFFFFFFFFFFFFFFFFFFFFFFFFFFFFFFFFFFF NOT AND DUP3 PUSH28 0xFFFFFFFFFFFFFFFFFFFFFFFFFFFFFFFFFFFFFFFFFFFFFFFFFFFFFFFF NOT AND EQ SWAP1 POP SWAP2 SWAP1 POP JUMP JUMPDEST PUSH1 0x2 DUP1 SLOAD SUB PUSH2 0x1E3A JUMPI PUSH1 0x40 MLOAD PUSH32 0x3EE5AEB500000000000000000000000000000000000000000000000000000000 DUP2 MSTORE PUSH1 0x4 ADD PUSH1 0x40 MLOAD DUP1 SWAP2 SUB SWAP1 REVERT JUMPDEST PUSH1 0x2 DUP1 DUP2 SWAP1 SSTORE POP JUMP JUMPDEST PUSH0 PUSH0 PUSH0 GAS SWAP1 POP PUSH0 DUP5 PUSH0 ADD MLOAD SWAP1 POP PUSH2 0x1E5A DUP7 DUP3 PUSH2 0x28E2 JUMP JUMPDEST PUSH2 0x1E63 DUP7 PUSH2 0x14D3 JUMP JUMPDEST DUP6 PUSH1 0x20 ADD DUP2 DUP2 MSTORE POP POP PUSH0 DUP2 PUSH1 0x60 ADD MLOAD SWAP1 POP PUSH0 DUP3 PUSH2 0x140 ADD MLOAD DUP4 PUSH2 0x120 ADD MLOAD DUP5 PUSH1 0xC0 ADD MLOAD DUP6 PUSH1 0xA0 ADD MLOAD DUP7 PUSH1 0x80 ADD MLOAD DUP7 DUP9 PUSH1 0xE0 ADD MLOAD OR OR OR OR OR OR SWAP1 POP PUSH15 0xFFFFFFFFFFFFFFFFFFFFFFFFFFFFFF DUP1 AND DUP2 GT ISZERO PUSH2 0x1EBB JUMPI PUSH0 PUSH0 REVERT JUMPDEST PUSH0 PUSH2 0x1EC5 DUP5 PUSH2 0x2A63 JUMP JUMPDEST SWAP1 POP PUSH2 0x1ED4 DUP11 DUP11 DUP11 DUP5 DUP8 PUSH2 0x2A94 JUMP JUMPDEST SWAP7 POP PUSH2 0x1EE7 DUP5 PUSH0 ADD MLOAD DUP6 PUSH1 0x20 ADD MLOAD PUSH2 0x2CC5 JUMP JUMPDEST PUSH2 0x1F28 JUMPI DUP10 PUSH1 0x40 MLOAD PUSH32 0x220266B600000000000000000000000000000000000000000000000000000000 DUP2 MSTORE PUSH1 0x4 ADD PUSH2 0x1F1F SWAP2 SWAP1 PUSH2 0x51DB JUMP JUMPDEST PUSH1 0x40 MLOAD DUP1 SWAP2 SUB SWAP1 REVERT JUMPDEST DUP3 GAS DUP7 SUB GT ISZERO PUSH2 0x1F6F JUMPI DUP10 PUSH1 0x40 MLOAD PUSH32 0x220266B600000000000000000000000000000000000000000000000000000000 DUP2 MSTORE PUSH1 0x4 ADD PUSH2 0x1F66 SWAP2 SWAP1 PUSH2 0x5251 JUMP JUMPDEST PUSH1 0x40 MLOAD DUP1 SWAP2 SUB SWAP1 REVERT JUMPDEST PUSH1 0x60 PUSH0 PUSH20 0xFFFFFFFFFFFFFFFFFFFFFFFFFFFFFFFFFFFFFFFF AND DUP6 PUSH2 0x100 ADD MLOAD PUSH20 0xFFFFFFFFFFFFFFFFFFFFFFFFFFFFFFFFFFFFFFFF AND EQ PUSH2 0x1FBE JUMPI PUSH2 0x1FB5 DUP12 DUP12 DUP12 DUP6 PUSH2 0x2D7C JUMP JUMPDEST DUP1 SWAP9 POP DUP2 SWAP3 POP POP POP JUMPDEST DUP2 DUP10 PUSH1 0x40 ADD DUP2 DUP2 MSTORE POP POP PUSH2 0x1FD1 DUP2 PUSH2 0x2F5C JUMP JUMPDEST DUP10 PUSH1 0x60 ADD DUP2 DUP2 MSTORE POP POP DUP10 PUSH1 0xC0 ADD CALLDATALOAD GAS DUP8 SUB ADD DUP10 PUSH1 0x80 ADD DUP2 DUP2 MSTORE POP POP POP POP POP POP POP POP SWAP4 POP SWAP4 SWAP2 POP POP JUMP JUMPDEST PUSH0 PUSH0 PUSH2 0x2005 DUP6 PUSH2 0x2F65 JUMP JUMPDEST SWAP2 POP SWAP2 POP DUP2 PUSH20 0xFFFFFFFFFFFFFFFFFFFFFFFFFFFFFFFFFFFFFFFF AND DUP4 PUSH20 0xFFFFFFFFFFFFFFFFFFFFFFFFFFFFFFFFFFFFFFFF AND EQ PUSH2 0x2079 JUMPI DUP6 PUSH1 0x40 MLOAD PUSH32 0x220266B600000000000000000000000000000000000000000000000000000000 DUP2 MSTORE PUSH1 0x4 ADD PUSH2 0x2070 SWAP2 SWAP1 PUSH2 0x52C7 JUMP JUMPDEST PUSH1 0x40 MLOAD DUP1 SWAP2 SUB SWAP1 REVERT JUMPDEST DUP1 ISZERO PUSH2 0x20BC JUMPI DUP6 PUSH1 0x40 MLOAD PUSH32 0x220266B600000000000000000000000000000000000000000000000000000000 DUP2 MSTORE PUSH1 0x4 ADD PUSH2 0x20B3 SWAP2 SWAP1 PUSH2 0x533D JUMP JUMPDEST PUSH1 0x40 MLOAD DUP1 SWAP2 SUB SWAP1 REVERT JUMPDEST PUSH0 PUSH2 0x20C6 DUP6 PUSH2 0x2F65 JUMP JUMPDEST DUP1 SWAP4 POP DUP2 SWAP3 POP POP POP PUSH0 PUSH20 0xFFFFFFFFFFFFFFFFFFFFFFFFFFFFFFFFFFFFFFFF AND DUP2 PUSH20 0xFFFFFFFFFFFFFFFFFFFFFFFFFFFFFFFFFFFFFFFF AND EQ PUSH2 0x213E JUMPI DUP7 PUSH1 0x40 MLOAD PUSH32 0x220266B600000000000000000000000000000000000000000000000000000000 DUP2 MSTORE PUSH1 0x4 ADD PUSH2 0x2135 SWAP2 SWAP1 PUSH2 0x53B3 JUMP JUMPDEST PUSH1 0x40 MLOAD DUP1 SWAP2 SUB SWAP1 REVERT JUMPDEST DUP2 ISZERO PUSH2 0x2181 JUMPI DUP7 PUSH1 0x40 MLOAD PUSH32 0x220266B600000000000000000000000000000000000000000000000000000000 DUP2 MSTORE PUSH1 0x4 ADD PUSH2 0x2178 SWAP2 SWAP1 PUSH2 0x544F JUMP JUMPDEST PUSH1 0x40 MLOAD DUP1 SWAP2 SUB SWAP1 REVERT JUMPDEST POP POP POP POP POP POP POP JUMP JUMPDEST PUSH0 PUSH0 GAS SWAP1 POP PUSH0 PUSH2 0x219D DUP5 PUSH1 0x60 ADD MLOAD PUSH2 0x2FB9 JUMP JUMPDEST SWAP1 POP PUSH0 PUSH0 PUSH1 0x40 MLOAD SWAP1 POP CALLDATASIZE PUSH0 DUP9 DUP1 PUSH1 0x80 ADD SWAP1 PUSH2 0x21B8 SWAP2 SWAP1 PUSH2 0x48B0 JUMP JUMPDEST SWAP2 POP SWAP2 POP PUSH1 0x60 PUSH0 DUP3 PUSH1 0x3 DUP2 GT ISZERO PUSH2 0x21CE JUMPI DUP5 CALLDATALOAD SWAP2 POP JUMPDEST POP PUSH4 0x78C99FA3 PUSH1 0xE0 SHL PUSH28 0xFFFFFFFFFFFFFFFFFFFFFFFFFFFFFFFFFFFFFFFFFFFFFFFFFFFFFFFF NOT AND DUP2 PUSH28 0xFFFFFFFFFFFFFFFFFFFFFFFFFFFFFFFFFFFFFFFFFFFFFFFFFFFFFFFF NOT AND SUB PUSH2 0x22F5 JUMPI PUSH0 DUP12 DUP12 PUSH1 0x20 ADD MLOAD PUSH1 0x40 MLOAD PUSH1 0x24 ADD PUSH2 0x2233 SWAP3 SWAP2 SWAP1 PUSH2 0x55BF JUMP JUMPDEST PUSH1 0x40 MLOAD PUSH1 0x20 DUP2 DUP4 SUB SUB DUP2 MSTORE SWAP1 PUSH1 0x40 MSTORE PUSH4 0x78C99FA3 PUSH1 0xE0 SHL PUSH1 0x20 DUP3 ADD DUP1 MLOAD PUSH28 0xFFFFFFFFFFFFFFFFFFFFFFFFFFFFFFFFFFFFFFFFFFFFFFFFFFFFFFFF DUP4 DUP2 DUP4 AND OR DUP4 MSTORE POP POP POP POP SWAP1 POP ADDRESS PUSH20 0xFFFFFFFFFFFFFFFFFFFFFFFFFFFFFFFFFFFFFFFF AND PUSH4 0xA2578253 DUP3 DUP14 DUP12 PUSH1 0x40 MLOAD PUSH1 0x24 ADD PUSH2 0x22AB SWAP4 SWAP3 SWAP2 SWAP1 PUSH2 0x5737 JUMP JUMPDEST PUSH1 0x40 MLOAD PUSH1 0x20 DUP2 DUP4 SUB SUB DUP2 MSTORE SWAP1 PUSH1 0x40 MSTORE SWAP2 POP PUSH1 0xE0 SHL PUSH1 0x20 DUP3 ADD DUP1 MLOAD PUSH28 0xFFFFFFFFFFFFFFFFFFFFFFFFFFFFFFFFFFFFFFFFFFFFFFFFFFFFFFFF DUP4 DUP2 DUP4 AND OR DUP4 MSTORE POP POP POP POP SWAP3 POP POP PUSH2 0x236D JUMP JUMPDEST ADDRESS PUSH20 0xFFFFFFFFFFFFFFFFFFFFFFFFFFFFFFFFFFFFFFFF AND PUSH4 0xA2578253 DUP6 DUP6 DUP14 DUP12 PUSH1 0x40 MLOAD PUSH1 0x24 ADD PUSH2 0x2328 SWAP5 SWAP4 SWAP3 SWAP2 SWAP1 PUSH2 0x577C JUMP JUMPDEST PUSH1 0x40 MLOAD PUSH1 0x20 DUP2 DUP4 SUB SUB DUP2 MSTORE SWAP1 PUSH1 0x40 MSTORE SWAP2 POP PUSH1 0xE0 SHL PUSH1 0x20 DUP3 ADD DUP1 MLOAD PUSH28 0xFFFFFFFFFFFFFFFFFFFFFFFFFFFFFFFFFFFFFFFFFFFFFFFFFFFFFFFF DUP4 DUP2 DUP4 AND OR DUP4 MSTORE POP POP POP POP SWAP2 POP JUMPDEST PUSH1 0x20 PUSH0 DUP4 MLOAD PUSH1 0x20 DUP6 ADD PUSH0 ADDRESS GAS CALL SWAP6 POP PUSH0 MLOAD SWAP9 POP DUP5 PUSH1 0x40 MSTORE POP POP POP POP POP DUP1 PUSH2 0x2510 JUMPI PUSH0 RETURNDATASIZE DUP1 PUSH1 0x20 SUB PUSH2 0x23A2 JUMPI PUSH1 0x20 PUSH0 PUSH0 RETURNDATACOPY PUSH0 MLOAD SWAP2 POP JUMPDEST POP PUSH32 0xDEADDEAD00000000000000000000000000000000000000000000000000000000 DUP2 SUB PUSH2 0x2407 JUMPI DUP8 PUSH1 0x40 MLOAD PUSH32 0x220266B600000000000000000000000000000000000000000000000000000000 DUP2 MSTORE PUSH1 0x4 ADD PUSH2 0x23FE SWAP2 SWAP1 PUSH2 0x580D JUMP JUMPDEST PUSH1 0x40 MLOAD DUP1 SWAP2 SUB SWAP1 REVERT JUMPDEST PUSH32 0xDEADAA5100000000000000000000000000000000000000000000000000000000 DUP2 SUB PUSH2 0x2473 JUMPI PUSH0 DUP7 PUSH1 0x80 ADD MLOAD GAS DUP7 PUSH2 0x2440 SWAP2 SWAP1 PUSH2 0x460B JUMP JUMPDEST PUSH2 0x244A SWAP2 SWAP1 PUSH2 0x43F9 JUMP JUMPDEST SWAP1 POP PUSH0 DUP8 PUSH1 0x40 ADD MLOAD SWAP1 POP PUSH2 0x245D DUP9 PUSH2 0x2FC3 JUMP JUMPDEST PUSH2 0x2469 DUP9 PUSH0 DUP4 DUP6 PUSH2 0x3026 JUMP JUMPDEST DUP1 SWAP7 POP POP POP PUSH2 0x250E JUMP JUMPDEST DUP6 PUSH0 ADD MLOAD PUSH0 ADD MLOAD PUSH20 0xFFFFFFFFFFFFFFFFFFFFFFFFFFFFFFFFFFFFFFFF AND DUP7 PUSH1 0x20 ADD MLOAD PUSH32 0xF62676F440FF169A3A9AFDBF812E89E7F95975EE8E5C31214FFDEF631C5F4792 DUP9 PUSH0 ADD MLOAD PUSH1 0x20 ADD MLOAD PUSH2 0x24C9 PUSH2 0x800 PUSH2 0x2627 JUMP JUMPDEST PUSH1 0x40 MLOAD PUSH2 0x24D7 SWAP3 SWAP2 SWAP1 PUSH2 0x4E71 JUMP JUMPDEST PUSH1 0x40 MLOAD DUP1 SWAP2 SUB SWAP1 LOG3 PUSH0 DUP7 PUSH1 0x80 ADD MLOAD GAS DUP7 PUSH2 0x24F1 SWAP2 SWAP1 PUSH2 0x460B JUMP JUMPDEST PUSH2 0x24FB SWAP2 SWAP1 PUSH2 0x43F9 JUMP JUMPDEST SWAP1 POP PUSH2 0x250A PUSH1 0x2 DUP9 DUP7 DUP5 PUSH2 0x2656 JUMP JUMPDEST SWAP6 POP POP JUMPDEST POP JUMPDEST POP POP POP SWAP4 SWAP3 POP POP POP JUMP JUMPDEST PUSH0 PUSH20 0xFFFFFFFFFFFFFFFFFFFFFFFFFFFFFFFFFFFFFFFF AND DUP3 PUSH20 0xFFFFFFFFFFFFFFFFFFFFFFFFFFFFFFFFFFFFFFFF AND SUB PUSH2 0x2551 JUMPI PUSH0 PUSH0 REVERT JUMPDEST PUSH0 DUP3 PUSH20 0xFFFFFFFFFFFFFFFFFFFFFFFFFFFFFFFFFFFFFFFF AND DUP3 PUSH1 0x40 MLOAD PUSH2 0x2576 SWAP1 PUSH2 0x46E4 JUMP JUMPDEST PUSH0 PUSH1 0x40 MLOAD DUP1 DUP4 SUB DUP2 DUP6 DUP8 GAS CALL SWAP3 POP POP POP RETURNDATASIZE DUP1 PUSH0 DUP2 EQ PUSH2 0x25B0 JUMPI PUSH1 0x40 MLOAD SWAP2 POP PUSH1 0x1F NOT PUSH1 0x3F RETURNDATASIZE ADD AND DUP3 ADD PUSH1 0x40 MSTORE RETURNDATASIZE DUP3 MSTORE RETURNDATASIZE PUSH0 PUSH1 0x20 DUP5 ADD RETURNDATACOPY PUSH2 0x25B5 JUMP JUMPDEST PUSH1 0x60 SWAP2 POP JUMPDEST POP POP SWAP1 POP DUP1 PUSH2 0x25C2 JUMPI PUSH0 PUSH0 REVERT JUMPDEST POP POP POP JUMP JUMPDEST PUSH1 0x1 PUSH1 0x2 DUP2 SWAP1 SSTORE POP JUMP JUMPDEST PUSH0 PUSH2 0x25DB DUP3 PUSH2 0x30B1 JUMP JUMPDEST DUP1 MLOAD SWAP1 PUSH1 0x20 ADD KECCAK256 SWAP1 POP SWAP2 SWAP1 POP JUMP JUMPDEST PUSH0 PUSH32 0x0 SWAP1 POP SWAP1 JUMP JUMPDEST PUSH0 PUSH0 PUSH0 DUP5 MLOAD PUSH1 0x20 DUP7 ADD DUP8 DUP10 DUP8 CALL SWAP1 POP SWAP5 SWAP4 POP POP POP POP JUMP JUMPDEST PUSH1 0x60 RETURNDATASIZE DUP3 DUP2 GT ISZERO PUSH2 0x2636 JUMPI DUP3 SWAP1 POP JUMPDEST PUSH1 0x40 MLOAD PUSH1 0x20 DUP3 ADD DUP2 ADD PUSH1 0x40 MSTORE DUP2 DUP2 MSTORE DUP2 PUSH0 PUSH1 0x20 DUP4 ADD RETURNDATACOPY DUP1 SWAP3 POP POP POP SWAP2 SWAP1 POP JUMP JUMPDEST PUSH0 PUSH0 GAS SWAP1 POP PUSH0 PUSH0 DUP7 PUSH0 ADD MLOAD SWAP1 POP PUSH0 PUSH2 0x266D DUP3 PUSH2 0x316E JUMP JUMPDEST SWAP1 POP PUSH0 DUP3 PUSH2 0x100 ADD MLOAD SWAP1 POP PUSH0 PUSH20 0xFFFFFFFFFFFFFFFFFFFFFFFFFFFFFFFFFFFFFFFF AND DUP2 PUSH20 0xFFFFFFFFFFFFFFFFFFFFFFFFFFFFFFFFFFFFFFFF AND SUB PUSH2 0x26B6 JUMPI DUP3 PUSH0 ADD MLOAD SWAP4 POP PUSH2 0x27B1 JUMP JUMPDEST DUP1 SWAP4 POP PUSH0 DUP9 MLOAD GT ISZERO PUSH2 0x27B0 JUMPI DUP2 DUP8 MUL SWAP6 POP PUSH1 0x2 DUP1 DUP2 GT ISZERO PUSH2 0x26DA JUMPI PUSH2 0x26D9 PUSH2 0x5839 JUMP JUMPDEST JUMPDEST DUP11 PUSH1 0x2 DUP2 GT ISZERO PUSH2 0x26ED JUMPI PUSH2 0x26EC PUSH2 0x5839 JUMP JUMPDEST JUMPDEST EQ PUSH2 0x27AF JUMPI DUP1 PUSH20 0xFFFFFFFFFFFFFFFFFFFFFFFFFFFFFFFFFFFFFFFF AND PUSH4 0x7C627B21 DUP5 PUSH1 0xC0 ADD MLOAD DUP13 DUP12 DUP11 DUP8 PUSH1 0x40 MLOAD DUP7 PUSH4 0xFFFFFFFF AND PUSH1 0xE0 SHL DUP2 MSTORE PUSH1 0x4 ADD PUSH2 0x2736 SWAP5 SWAP4 SWAP3 SWAP2 SWAP1 PUSH2 0x58AC JUMP JUMPDEST PUSH0 PUSH1 0x40 MLOAD DUP1 DUP4 SUB DUP2 PUSH0 DUP9 DUP1 EXTCODESIZE ISZERO DUP1 ISZERO PUSH2 0x274D JUMPI PUSH0 PUSH0 REVERT JUMPDEST POP DUP8 CALL SWAP4 POP POP POP POP DUP1 ISZERO PUSH2 0x275F JUMPI POP PUSH1 0x1 JUMPDEST PUSH2 0x27AE JUMPI PUSH0 PUSH2 0x276F PUSH2 0x800 PUSH2 0x2627 JUMP JUMPDEST SWAP1 POP DUP1 PUSH1 0x40 MLOAD PUSH32 0xAD7954BC00000000000000000000000000000000000000000000000000000000 DUP2 MSTORE PUSH1 0x4 ADD PUSH2 0x27A5 SWAP2 SWAP1 PUSH2 0x58F6 JUMP JUMPDEST PUSH1 0x40 MLOAD DUP1 SWAP2 SUB SWAP1 REVERT JUMPDEST JUMPDEST JUMPDEST JUMPDEST GAS DUP6 SUB DUP8 ADD SWAP7 POP PUSH0 DUP4 PUSH1 0xC0 ADD MLOAD DUP5 PUSH1 0x80 ADD MLOAD ADD SWAP1 POP PUSH0 DUP11 PUSH1 0x80 ADD MLOAD DUP10 SUB SWAP1 POP DUP1 DUP3 GT ISZERO PUSH2 0x27FE JUMPI PUSH0 DUP2 DUP4 SUB SWAP1 POP PUSH0 PUSH1 0x64 PUSH1 0xA DUP4 MUL DUP2 PUSH2 0x27F3 JUMPI PUSH2 0x27F2 PUSH2 0x4E44 JUMP JUMPDEST JUMPDEST DIV SWAP1 POP DUP1 DUP12 ADD SWAP11 POP POP POP JUMPDEST POP POP DUP2 DUP8 MUL SWAP6 POP PUSH0 DUP10 PUSH1 0x40 ADD MLOAD SWAP1 POP DUP7 DUP2 LT ISZERO PUSH2 0x288A JUMPI PUSH1 0x2 DUP1 DUP2 GT ISZERO PUSH2 0x2828 JUMPI PUSH2 0x2827 PUSH2 0x5839 JUMP JUMPDEST JUMPDEST DUP12 PUSH1 0x2 DUP2 GT ISZERO PUSH2 0x283B JUMPI PUSH2 0x283A PUSH2 0x5839 JUMP JUMPDEST JUMPDEST SUB PUSH2 0x285D JUMPI DUP1 SWAP7 POP PUSH2 0x284C DUP11 PUSH2 0x2FC3 JUMP JUMPDEST PUSH2 0x2858 DUP11 PUSH0 DUP10 DUP12 PUSH2 0x3026 JUMP JUMPDEST PUSH2 0x2885 JUMP JUMPDEST PUSH32 0xDEADAA5100000000000000000000000000000000000000000000000000000000 PUSH0 MSTORE PUSH1 0x20 PUSH0 REVERT JUMPDEST PUSH2 0x28D4 JUMP JUMPDEST PUSH0 DUP8 DUP3 SUB SWAP1 POP PUSH2 0x289A DUP7 DUP3 PUSH2 0x1D31 JUMP JUMPDEST POP PUSH0 PUSH0 PUSH1 0x2 DUP2 GT ISZERO PUSH2 0x28AF JUMPI PUSH2 0x28AE PUSH2 0x5839 JUMP JUMPDEST JUMPDEST DUP14 PUSH1 0x2 DUP2 GT ISZERO PUSH2 0x28C2 JUMPI PUSH2 0x28C1 PUSH2 0x5839 JUMP JUMPDEST JUMPDEST EQ SWAP1 POP PUSH2 0x28D1 DUP13 DUP3 DUP12 DUP14 PUSH2 0x3026 JUMP JUMPDEST POP POP JUMPDEST POP POP POP POP POP POP SWAP5 SWAP4 POP POP POP POP JUMP JUMPDEST DUP2 PUSH0 ADD PUSH1 0x20 DUP2 ADD SWAP1 PUSH2 0x28F4 SWAP2 SWAP1 PUSH2 0x3B11 JUMP JUMPDEST DUP2 PUSH0 ADD SWAP1 PUSH20 0xFFFFFFFFFFFFFFFFFFFFFFFFFFFFFFFFFFFFFFFF AND SWAP1 DUP2 PUSH20 0xFFFFFFFFFFFFFFFFFFFFFFFFFFFFFFFFFFFFFFFF AND DUP2 MSTORE POP POP DUP2 PUSH1 0x20 ADD CALLDATALOAD DUP2 PUSH1 0x20 ADD DUP2 DUP2 MSTORE POP POP PUSH2 0x2945 DUP3 PUSH1 0xA0 ADD CALLDATALOAD PUSH2 0x31A8 JUMP JUMPDEST DUP3 PUSH1 0x60 ADD DUP4 PUSH1 0x80 ADD DUP3 DUP2 MSTORE POP DUP3 DUP2 MSTORE POP POP POP DUP2 PUSH1 0xC0 ADD CALLDATALOAD DUP2 PUSH1 0xE0 ADD DUP2 DUP2 MSTORE POP POP PUSH2 0x2972 DUP3 PUSH1 0xE0 ADD CALLDATALOAD PUSH2 0x31A8 JUMP JUMPDEST DUP3 PUSH2 0x140 ADD DUP4 PUSH2 0x120 ADD DUP3 DUP2 MSTORE POP DUP3 DUP2 MSTORE POP POP POP CALLDATASIZE PUSH0 DUP4 DUP1 PUSH2 0x100 ADD SWAP1 PUSH2 0x2999 SWAP2 SWAP1 PUSH2 0x48B0 JUMP JUMPDEST SWAP2 POP SWAP2 POP PUSH0 DUP3 DUP3 SWAP1 POP GT ISZERO PUSH2 0x2A0F JUMPI PUSH1 0x34 DUP3 DUP3 SWAP1 POP LT ISZERO PUSH2 0x29B8 JUMPI PUSH0 PUSH0 REVERT JUMPDEST PUSH2 0x29C2 DUP3 DUP3 PUSH2 0x31E4 JUMP JUMPDEST DUP6 PUSH2 0x100 ADD DUP7 PUSH1 0xA0 ADD DUP8 PUSH1 0xC0 ADD DUP4 DUP2 MSTORE POP DUP4 DUP2 MSTORE POP DUP4 PUSH20 0xFFFFFFFFFFFFFFFFFFFFFFFFFFFFFFFFFFFFFFFF AND PUSH20 0xFFFFFFFFFFFFFFFFFFFFFFFFFFFFFFFFFFFFFFFF AND DUP2 MSTORE POP POP POP POP PUSH2 0x2A5D JUMP JUMPDEST PUSH0 DUP4 PUSH2 0x100 ADD SWAP1 PUSH20 0xFFFFFFFFFFFFFFFFFFFFFFFFFFFFFFFFFFFFFFFF AND SWAP1 DUP2 PUSH20 0xFFFFFFFFFFFFFFFFFFFFFFFFFFFFFFFFFFFFFFFF AND DUP2 MSTORE POP POP PUSH0 DUP4 PUSH1 0xA0 ADD DUP2 DUP2 MSTORE POP POP PUSH0 DUP4 PUSH1 0xC0 ADD DUP2 DUP2 MSTORE POP POP JUMPDEST POP POP POP POP JUMP JUMPDEST PUSH0 PUSH0 DUP3 PUSH1 0xE0 ADD MLOAD DUP4 PUSH1 0xC0 ADD MLOAD DUP5 PUSH1 0xA0 ADD MLOAD DUP6 PUSH1 0x80 ADD MLOAD DUP7 PUSH1 0x60 ADD MLOAD ADD ADD ADD ADD SWAP1 POP DUP3 PUSH2 0x120 ADD MLOAD DUP2 MUL SWAP2 POP POP SWAP2 SWAP1 POP JUMP JUMPDEST PUSH0 PUSH0 DUP5 PUSH0 ADD MLOAD SWAP1 POP PUSH0 DUP2 PUSH0 ADD MLOAD SWAP1 POP PUSH2 0x2ABD DUP9 DUP8 DUP10 DUP1 PUSH1 0x60 ADD SWAP1 PUSH2 0x2AB8 SWAP2 SWAP1 PUSH2 0x48B0 JUMP JUMPDEST PUSH2 0x3283 JUMP JUMPDEST PUSH0 DUP3 PUSH2 0x100 ADD MLOAD SWAP1 POP PUSH0 PUSH0 SWAP1 POP PUSH0 PUSH20 0xFFFFFFFFFFFFFFFFFFFFFFFFFFFFFFFFFFFFFFFF AND DUP3 PUSH20 0xFFFFFFFFFFFFFFFFFFFFFFFFFFFFFFFFFFFFFFFF AND SUB PUSH2 0x2B1E JUMPI PUSH0 PUSH2 0x2B07 DUP5 PUSH2 0xFAC JUMP JUMPDEST SWAP1 POP DUP8 DUP2 GT PUSH2 0x2B18 JUMPI DUP1 DUP9 SUB PUSH2 0x2B1A JUMP JUMPDEST PUSH0 JUMPDEST SWAP2 POP POP JUMPDEST DUP3 PUSH20 0xFFFFFFFFFFFFFFFFFFFFFFFFFFFFFFFFFFFFFFFF AND PUSH4 0xAB021F7C DUP8 DUP12 DUP12 PUSH1 0x20 ADD MLOAD DUP6 PUSH1 0x40 MLOAD DUP6 PUSH4 0xFFFFFFFF AND PUSH1 0xE0 SHL DUP2 MSTORE PUSH1 0x4 ADD PUSH2 0x2B60 SWAP4 SWAP3 SWAP2 SWAP1 PUSH2 0x5916 JUMP JUMPDEST PUSH1 0x20 PUSH1 0x40 MLOAD DUP1 DUP4 SUB DUP2 PUSH0 DUP9 DUP8 CALL SWAP4 POP POP POP POP DUP1 ISZERO PUSH2 0x2B9C JUMPI POP PUSH1 0x40 MLOAD RETURNDATASIZE PUSH1 0x1F NOT PUSH1 0x1F DUP3 ADD AND DUP3 ADD DUP1 PUSH1 0x40 MSTORE POP DUP2 ADD SWAP1 PUSH2 0x2B99 SWAP2 SWAP1 PUSH2 0x5966 JUMP JUMPDEST PUSH1 0x1 JUMPDEST PUSH2 0x2BE9 JUMPI DUP10 PUSH2 0x2BAC PUSH2 0x800 PUSH2 0x2627 JUMP JUMPDEST PUSH1 0x40 MLOAD PUSH32 0x65C8FD4D00000000000000000000000000000000000000000000000000000000 DUP2 MSTORE PUSH1 0x4 ADD PUSH2 0x2BE0 SWAP3 SWAP2 SWAP1 PUSH2 0x59DB JUMP JUMPDEST PUSH1 0x40 MLOAD DUP1 SWAP2 SUB SWAP1 REVERT JUMPDEST DUP1 SWAP6 POP POP PUSH0 PUSH20 0xFFFFFFFFFFFFFFFFFFFFFFFFFFFFFFFFFFFFFFFF AND DUP3 PUSH20 0xFFFFFFFFFFFFFFFFFFFFFFFFFFFFFFFFFFFFFFFF AND SUB PUSH2 0x2CB8 JUMPI PUSH0 PUSH0 PUSH0 DUP6 PUSH20 0xFFFFFFFFFFFFFFFFFFFFFFFFFFFFFFFFFFFFFFFF AND PUSH20 0xFFFFFFFFFFFFFFFFFFFFFFFFFFFFFFFFFFFFFFFF AND DUP2 MSTORE PUSH1 0x20 ADD SWAP1 DUP2 MSTORE PUSH1 0x20 ADD PUSH0 KECCAK256 SWAP1 POP PUSH0 DUP2 PUSH0 ADD SLOAD SWAP1 POP DUP1 DUP10 GT ISZERO PUSH2 0x2CAB JUMPI DUP12 PUSH1 0x40 MLOAD PUSH32 0x220266B600000000000000000000000000000000000000000000000000000000 DUP2 MSTORE PUSH1 0x4 ADD PUSH2 0x2CA2 SWAP2 SWAP1 PUSH2 0x5A3C JUMP JUMPDEST PUSH1 0x40 MLOAD DUP1 SWAP2 SUB SWAP1 REVERT JUMPDEST DUP9 DUP2 SUB DUP3 PUSH0 ADD DUP2 SWAP1 SSTORE POP POP POP JUMPDEST POP POP POP POP SWAP6 SWAP5 POP POP POP POP POP JUMP JUMPDEST PUSH0 PUSH0 PUSH1 0x40 DUP4 SWAP1 SHR SWAP1 POP PUSH0 DUP4 SWAP1 POP DUP1 PUSH8 0xFFFFFFFFFFFFFFFF AND PUSH1 0x1 PUSH0 DUP8 PUSH20 0xFFFFFFFFFFFFFFFFFFFFFFFFFFFFFFFFFFFFFFFF AND PUSH20 0xFFFFFFFFFFFFFFFFFFFFFFFFFFFFFFFFFFFFFFFF AND DUP2 MSTORE PUSH1 0x20 ADD SWAP1 DUP2 MSTORE PUSH1 0x20 ADD PUSH0 KECCAK256 PUSH0 DUP5 PUSH24 0xFFFFFFFFFFFFFFFFFFFFFFFFFFFFFFFFFFFFFFFFFFFFFFFF AND PUSH24 0xFFFFFFFFFFFFFFFFFFFFFFFFFFFFFFFFFFFFFFFFFFFFFFFF AND DUP2 MSTORE PUSH1 0x20 ADD SWAP1 DUP2 MSTORE PUSH1 0x20 ADD PUSH0 KECCAK256 PUSH0 DUP2 SLOAD DUP1 SWAP3 SWAP2 SWAP1 PUSH2 0x2D6D SWAP1 PUSH2 0x455C JUMP JUMPDEST SWAP2 SWAP1 POP SSTORE EQ SWAP3 POP POP POP SWAP3 SWAP2 POP POP JUMP JUMPDEST PUSH1 0x60 PUSH0 PUSH0 GAS SWAP1 POP PUSH0 DUP6 PUSH0 ADD MLOAD SWAP1 POP PUSH0 DUP2 PUSH2 0x100 ADD MLOAD SWAP1 POP PUSH0 PUSH0 PUSH0 DUP4 PUSH20 0xFFFFFFFFFFFFFFFFFFFFFFFFFFFFFFFFFFFFFFFF AND PUSH20 0xFFFFFFFFFFFFFFFFFFFFFFFFFFFFFFFFFFFFFFFF AND DUP2 MSTORE PUSH1 0x20 ADD SWAP1 DUP2 MSTORE PUSH1 0x20 ADD PUSH0 KECCAK256 SWAP1 POP PUSH0 DUP2 PUSH0 ADD SLOAD SWAP1 POP DUP8 DUP2 LT ISZERO PUSH2 0x2E1E JUMPI DUP11 PUSH1 0x40 MLOAD PUSH32 0x220266B600000000000000000000000000000000000000000000000000000000 DUP2 MSTORE PUSH1 0x4 ADD PUSH2 0x2E15 SWAP2 SWAP1 PUSH2 0x5AB2 JUMP JUMPDEST PUSH1 0x40 MLOAD DUP1 SWAP2 SUB SWAP1 REVERT JUMPDEST DUP8 DUP2 SUB DUP3 PUSH0 ADD DUP2 SWAP1 SSTORE POP PUSH0 DUP5 PUSH1 0xA0 ADD MLOAD SWAP1 POP DUP4 PUSH20 0xFFFFFFFFFFFFFFFFFFFFFFFFFFFFFFFFFFFFFFFF AND PUSH4 0xFD5C49DF DUP3 DUP14 DUP14 PUSH1 0x20 ADD MLOAD DUP14 PUSH1 0x40 MLOAD DUP6 PUSH4 0xFFFFFFFF AND PUSH1 0xE0 SHL DUP2 MSTORE PUSH1 0x4 ADD PUSH2 0x2E72 SWAP4 SWAP3 SWAP2 SWAP1 PUSH2 0x5916 JUMP JUMPDEST PUSH0 PUSH1 0x40 MLOAD DUP1 DUP4 SUB DUP2 PUSH0 DUP9 DUP8 CALL SWAP4 POP POP POP POP DUP1 ISZERO PUSH2 0x2EB1 JUMPI POP PUSH1 0x40 MLOAD RETURNDATASIZE PUSH0 DUP3 RETURNDATACOPY RETURNDATASIZE PUSH1 0x1F NOT PUSH1 0x1F DUP3 ADD AND DUP3 ADD DUP1 PUSH1 0x40 MSTORE POP DUP2 ADD SWAP1 PUSH2 0x2EAE SWAP2 SWAP1 PUSH2 0x5B4C JUMP JUMPDEST PUSH1 0x1 JUMPDEST PUSH2 0x2EFE JUMPI DUP12 PUSH2 0x2EC1 PUSH2 0x800 PUSH2 0x2627 JUMP JUMPDEST PUSH1 0x40 MLOAD PUSH32 0x65C8FD4D00000000000000000000000000000000000000000000000000000000 DUP2 MSTORE PUSH1 0x4 ADD PUSH2 0x2EF5 SWAP3 SWAP2 SWAP1 PUSH2 0x5BA6 JUMP JUMPDEST PUSH1 0x40 MLOAD DUP1 SWAP2 SUB SWAP1 REVERT JUMPDEST DUP2 SWAP10 POP DUP1 SWAP9 POP POP POP DUP1 GAS DUP8 SUB GT ISZERO PUSH2 0x2F4D JUMPI DUP12 PUSH1 0x40 MLOAD PUSH32 0x220266B600000000000000000000000000000000000000000000000000000000 DUP2 MSTORE PUSH1 0x4 ADD PUSH2 0x2F44 SWAP2 SWAP1 PUSH2 0x5C57 JUMP JUMPDEST PUSH1 0x40 MLOAD DUP1 SWAP2 SUB SWAP1 REVERT JUMPDEST POP POP POP POP POP POP SWAP5 POP SWAP5 SWAP3 POP POP POP JUMP JUMPDEST PUSH0 DUP2 SWAP1 POP SWAP2 SWAP1 POP JUMP JUMPDEST PUSH0 PUSH0 PUSH0 DUP4 SUB PUSH2 0x2F79 JUMPI PUSH0 PUSH0 SWAP2 POP SWAP2 POP PUSH2 0x2FB4 JUMP JUMPDEST PUSH0 PUSH2 0x2F83 DUP5 PUSH2 0x3546 JUMP JUMPDEST SWAP1 POP DUP1 PUSH1 0x40 ADD MLOAD PUSH6 0xFFFFFFFFFFFF AND TIMESTAMP GT DUP1 PUSH2 0x2FAA JUMPI POP DUP1 PUSH1 0x20 ADD MLOAD PUSH6 0xFFFFFFFFFFFF AND TIMESTAMP LT JUMPDEST SWAP2 POP DUP1 PUSH0 ADD MLOAD SWAP3 POP POP JUMPDEST SWAP2 POP SWAP2 JUMP JUMPDEST PUSH1 0x60 DUP2 SWAP1 POP SWAP2 SWAP1 POP JUMP JUMPDEST DUP1 PUSH0 ADD MLOAD PUSH0 ADD MLOAD PUSH20 0xFFFFFFFFFFFFFFFFFFFFFFFFFFFFFFFFFFFFFFFF AND DUP2 PUSH1 0x20 ADD MLOAD PUSH32 0x67B4FA9642F42120BF031F3051D1824B0FE25627945B27B8A6A65D5761D5482E DUP4 PUSH0 ADD MLOAD PUSH1 0x20 ADD MLOAD PUSH1 0x40 MLOAD PUSH2 0x301B SWAP2 SWAP1 PUSH2 0x3997 JUMP JUMPDEST PUSH1 0x40 MLOAD DUP1 SWAP2 SUB SWAP1 LOG3 POP JUMP JUMPDEST DUP4 PUSH0 ADD MLOAD PUSH2 0x100 ADD MLOAD PUSH20 0xFFFFFFFFFFFFFFFFFFFFFFFFFFFFFFFFFFFFFFFF AND DUP5 PUSH0 ADD MLOAD PUSH0 ADD MLOAD PUSH20 0xFFFFFFFFFFFFFFFFFFFFFFFFFFFFFFFFFFFFFFFF AND DUP6 PUSH1 0x20 ADD MLOAD PUSH32 0x49628FD1471006C1482DA88028E9CE4DBB080B815C9B0344D39E5A8E6EC1419F DUP8 PUSH0 ADD MLOAD PUSH1 0x20 ADD MLOAD DUP8 DUP8 DUP8 PUSH1 0x40 MLOAD PUSH2 0x30A3 SWAP5 SWAP4 SWAP3 SWAP2 SWAP1 PUSH2 0x5C83 JUMP JUMPDEST PUSH1 0x40 MLOAD DUP1 SWAP2 SUB SWAP1 LOG4 POP POP POP POP JUMP JUMPDEST PUSH1 0x60 PUSH0 PUSH2 0x30BD DUP4 PUSH2 0x35C6 JUMP JUMPDEST SWAP1 POP PUSH0 DUP4 PUSH1 0x20 ADD CALLDATALOAD SWAP1 POP PUSH0 PUSH2 0x30E0 DUP6 DUP1 PUSH1 0x60 ADD SWAP1 PUSH2 0x30DB SWAP2 SWAP1 PUSH2 0x48B0 JUMP JUMPDEST PUSH2 0x35D5 JUMP JUMPDEST SWAP1 POP PUSH0 PUSH2 0x30FB DUP7 DUP1 PUSH1 0x80 ADD SWAP1 PUSH2 0x30F6 SWAP2 SWAP1 PUSH2 0x48B0 JUMP JUMPDEST PUSH2 0x35D5 JUMP JUMPDEST SWAP1 POP PUSH0 DUP7 PUSH1 0xA0 ADD CALLDATALOAD SWAP1 POP PUSH0 DUP8 PUSH1 0xC0 ADD CALLDATALOAD SWAP1 POP PUSH0 DUP9 PUSH1 0xE0 ADD CALLDATALOAD SWAP1 POP PUSH0 PUSH2 0x312F DUP11 DUP1 PUSH2 0x100 ADD SWAP1 PUSH2 0x312A SWAP2 SWAP1 PUSH2 0x48B0 JUMP JUMPDEST PUSH2 0x35D5 JUMP JUMPDEST SWAP1 POP DUP8 DUP8 DUP8 DUP8 DUP8 DUP8 DUP8 DUP8 PUSH1 0x40 MLOAD PUSH1 0x20 ADD PUSH2 0x3150 SWAP9 SWAP8 SWAP7 SWAP6 SWAP5 SWAP4 SWAP3 SWAP2 SWAP1 PUSH2 0x5CC6 JUMP JUMPDEST PUSH1 0x40 MLOAD PUSH1 0x20 DUP2 DUP4 SUB SUB DUP2 MSTORE SWAP1 PUSH1 0x40 MSTORE SWAP9 POP POP POP POP POP POP POP POP POP SWAP2 SWAP1 POP JUMP JUMPDEST PUSH0 PUSH0 DUP3 PUSH2 0x120 ADD MLOAD SWAP1 POP PUSH0 DUP4 PUSH2 0x140 ADD MLOAD SWAP1 POP DUP1 DUP3 SUB PUSH2 0x3192 JUMPI DUP2 SWAP3 POP POP POP PUSH2 0x31A3 JUMP JUMPDEST PUSH2 0x319E DUP3 BASEFEE DUP4 ADD PUSH2 0x35EB JUMP JUMPDEST SWAP3 POP POP POP JUMPDEST SWAP2 SWAP1 POP JUMP JUMPDEST PUSH0 PUSH0 DUP3 PUSH1 0x80 SHR DUP4 PUSH0 SHR DUP2 PUSH16 0xFFFFFFFFFFFFFFFFFFFFFFFFFFFFFFFF AND SWAP2 POP DUP1 PUSH16 0xFFFFFFFFFFFFFFFFFFFFFFFFFFFFFFFF AND SWAP1 POP SWAP2 POP SWAP2 POP SWAP2 POP SWAP2 JUMP JUMPDEST PUSH0 PUSH0 PUSH0 DUP5 DUP5 PUSH0 SWAP1 PUSH1 0x14 SWAP3 PUSH2 0x31FA SWAP4 SWAP3 SWAP2 SWAP1 PUSH2 0x5D4A JUMP JUMPDEST SWAP1 PUSH2 0x3205 SWAP2 SWAP1 PUSH2 0x5DC5 JUMP JUMPDEST PUSH1 0x60 SHR DUP6 DUP6 PUSH1 0x14 SWAP1 PUSH1 0x24 SWAP3 PUSH2 0x321C SWAP4 SWAP3 SWAP2 SWAP1 PUSH2 0x5D4A JUMP JUMPDEST SWAP1 PUSH2 0x3227 SWAP2 SWAP1 PUSH2 0x5E4E JUMP JUMPDEST PUSH1 0x80 SHR DUP7 DUP7 PUSH1 0x24 SWAP1 PUSH1 0x34 SWAP3 PUSH2 0x323E SWAP4 SWAP3 SWAP2 SWAP1 PUSH2 0x5D4A JUMP JUMPDEST SWAP1 PUSH2 0x3249 SWAP2 SWAP1 PUSH2 0x5E4E JUMP JUMPDEST PUSH1 0x80 SHR DUP2 PUSH16 0xFFFFFFFFFFFFFFFFFFFFFFFFFFFFFFFF AND SWAP2 POP DUP1 PUSH16 0xFFFFFFFFFFFFFFFFFFFFFFFFFFFFFFFF AND SWAP1 POP SWAP3 POP SWAP3 POP SWAP3 POP SWAP3 POP SWAP3 POP SWAP3 JUMP JUMPDEST PUSH0 DUP3 DUP3 SWAP1 POP EQ PUSH2 0x3540 JUMPI PUSH0 DUP4 PUSH0 ADD MLOAD PUSH0 ADD MLOAD SWAP1 POP PUSH0 DUP2 PUSH20 0xFFFFFFFFFFFFFFFFFFFFFFFFFFFFFFFFFFFFFFFF AND EXTCODESIZE EQ PUSH2 0x32F2 JUMPI DUP5 PUSH1 0x40 MLOAD PUSH32 0x220266B600000000000000000000000000000000000000000000000000000000 DUP2 MSTORE PUSH1 0x4 ADD PUSH2 0x32E9 SWAP2 SWAP1 PUSH2 0x5EF6 JUMP JUMPDEST PUSH1 0x40 MLOAD DUP1 SWAP2 SUB SWAP1 REVERT JUMPDEST PUSH0 PUSH2 0x32FB PUSH2 0x25E9 JUMP JUMPDEST PUSH20 0xFFFFFFFFFFFFFFFFFFFFFFFFFFFFFFFFFFFFFFFF AND PUSH4 0x570E1A36 DUP7 PUSH0 ADD MLOAD PUSH1 0x60 ADD MLOAD DUP7 DUP7 PUSH1 0x40 MLOAD DUP5 PUSH4 0xFFFFFFFF AND PUSH1 0xE0 SHL DUP2 MSTORE PUSH1 0x4 ADD PUSH2 0x333D SWAP3 SWAP2 SWAP1 PUSH2 0x4DE3 JUMP JUMPDEST PUSH1 0x20 PUSH1 0x40 MLOAD DUP1 DUP4 SUB DUP2 PUSH0 DUP9 DUP8 CALL ISZERO DUP1 ISZERO PUSH2 0x3359 JUMPI RETURNDATASIZE PUSH0 PUSH0 RETURNDATACOPY RETURNDATASIZE PUSH0 REVERT JUMPDEST POP POP POP POP POP PUSH1 0x40 MLOAD RETURNDATASIZE PUSH1 0x1F NOT PUSH1 0x1F DUP3 ADD AND DUP3 ADD DUP1 PUSH1 0x40 MSTORE POP DUP2 ADD SWAP1 PUSH2 0x337E SWAP2 SWAP1 PUSH2 0x4E19 JUMP JUMPDEST SWAP1 POP PUSH0 PUSH20 0xFFFFFFFFFFFFFFFFFFFFFFFFFFFFFFFFFFFFFFFF AND DUP2 PUSH20 0xFFFFFFFFFFFFFFFFFFFFFFFFFFFFFFFFFFFFFFFF AND SUB PUSH2 0x33F0 JUMPI DUP6 PUSH1 0x40 MLOAD PUSH32 0x220266B600000000000000000000000000000000000000000000000000000000 DUP2 MSTORE PUSH1 0x4 ADD PUSH2 0x33E7 SWAP2 SWAP1 PUSH2 0x5A3C JUMP JUMPDEST PUSH1 0x40 MLOAD DUP1 SWAP2 SUB SWAP1 REVERT JUMPDEST DUP2 PUSH20 0xFFFFFFFFFFFFFFFFFFFFFFFFFFFFFFFFFFFFFFFF AND DUP2 PUSH20 0xFFFFFFFFFFFFFFFFFFFFFFFFFFFFFFFFFFFFFFFF AND EQ PUSH2 0x3460 JUMPI DUP6 PUSH1 0x40 MLOAD PUSH32 0x220266B600000000000000000000000000000000000000000000000000000000 DUP2 MSTORE PUSH1 0x4 ADD PUSH2 0x3457 SWAP2 SWAP1 PUSH2 0x5A3C JUMP JUMPDEST PUSH1 0x40 MLOAD DUP1 SWAP2 SUB SWAP1 REVERT JUMPDEST PUSH0 DUP2 PUSH20 0xFFFFFFFFFFFFFFFFFFFFFFFFFFFFFFFFFFFFFFFF AND EXTCODESIZE SUB PUSH2 0x34BB JUMPI DUP6 PUSH1 0x40 MLOAD PUSH32 0x220266B600000000000000000000000000000000000000000000000000000000 DUP2 MSTORE PUSH1 0x4 ADD PUSH2 0x34B2 SWAP2 SWAP1 PUSH2 0x5A3C JUMP JUMPDEST PUSH1 0x40 MLOAD DUP1 SWAP2 SUB SWAP1 REVERT JUMPDEST PUSH0 DUP5 DUP5 PUSH0 SWAP1 PUSH1 0x14 SWAP3 PUSH2 0x34CF SWAP4 SWAP3 SWAP2 SWAP1 PUSH2 0x5D4A JUMP JUMPDEST SWAP1 PUSH2 0x34DA SWAP2 SWAP1 PUSH2 0x5DC5 JUMP JUMPDEST PUSH1 0x60 SHR SWAP1 POP DUP3 PUSH20 0xFFFFFFFFFFFFFFFFFFFFFFFFFFFFFFFFFFFFFFFF AND DUP7 PUSH1 0x20 ADD MLOAD PUSH32 0xD51A9C61267AA6196961883ECF5FF2DA6619C37DAC0FA92122513FB32C032D2D DUP4 DUP10 PUSH0 ADD MLOAD PUSH2 0x100 ADD MLOAD PUSH1 0x40 MLOAD PUSH2 0x3534 SWAP3 SWAP2 SWAP1 PUSH2 0x5F22 JUMP JUMPDEST PUSH1 0x40 MLOAD DUP1 SWAP2 SUB SWAP1 LOG3 POP POP POP JUMPDEST POP POP POP POP JUMP JUMPDEST PUSH2 0x354E PUSH2 0x367E JUMP JUMPDEST PUSH0 DUP3 SWAP1 POP PUSH0 PUSH1 0xA0 DUP5 SWAP1 SHR SWAP1 POP PUSH0 DUP2 PUSH6 0xFFFFFFFFFFFF AND SUB PUSH2 0x3573 JUMPI PUSH6 0xFFFFFFFFFFFF SWAP1 POP JUMPDEST PUSH0 PUSH1 0xD0 DUP6 SWAP1 SHR SWAP1 POP PUSH1 0x40 MLOAD DUP1 PUSH1 0x60 ADD PUSH1 0x40 MSTORE DUP1 DUP5 PUSH20 0xFFFFFFFFFFFFFFFFFFFFFFFFFFFFFFFFFFFFFFFF AND DUP2 MSTORE PUSH1 0x20 ADD DUP3 PUSH6 0xFFFFFFFFFFFF AND DUP2 MSTORE PUSH1 0x20 ADD DUP4 PUSH6 0xFFFFFFFFFFFF AND DUP2 MSTORE POP SWAP4 POP POP POP POP SWAP2 SWAP1 POP JUMP JUMPDEST PUSH0 PUSH0 DUP3 CALLDATALOAD SWAP1 POP DUP1 SWAP2 POP POP SWAP2 SWAP1 POP JUMP JUMPDEST PUSH0 PUSH1 0x40 MLOAD DUP3 DUP1 DUP6 DUP4 CALLDATACOPY DUP1 DUP3 KECCAK256 SWAP3 POP POP POP SWAP3 SWAP2 POP POP JUMP JUMPDEST PUSH0 DUP2 DUP4 LT PUSH2 0x35F9 JUMPI DUP2 PUSH2 0x35FB JUMP JUMPDEST DUP3 JUMPDEST SWAP1 POP SWAP3 SWAP2 POP POP JUMP JUMPDEST PUSH1 0x40 MLOAD DUP1 PUSH1 0xA0 ADD PUSH1 0x40 MSTORE DUP1 PUSH2 0x3616 PUSH2 0x36C2 JUMP JUMPDEST DUP2 MSTORE PUSH1 0x20 ADD PUSH0 DUP2 MSTORE PUSH1 0x20 ADD PUSH0 DUP2 MSTORE PUSH1 0x20 ADD PUSH0 DUP2 MSTORE PUSH1 0x20 ADD PUSH0 DUP2 MSTORE POP SWAP1 JUMP JUMPDEST PUSH1 0x40 MLOAD DUP1 PUSH1 0xA0 ADD PUSH1 0x40 MSTORE DUP1 PUSH0 DUP2 MSTORE PUSH1 0x20 ADD PUSH0 ISZERO ISZERO DUP2 MSTORE PUSH1 0x20 ADD PUSH0 PUSH14 0xFFFFFFFFFFFFFFFFFFFFFFFFFFFF AND DUP2 MSTORE PUSH1 0x20 ADD PUSH0 PUSH4 0xFFFFFFFF AND DUP2 MSTORE PUSH1 0x20 ADD PUSH0 PUSH6 0xFFFFFFFFFFFF AND DUP2 MSTORE POP SWAP1 JUMP JUMPDEST PUSH1 0x40 MLOAD DUP1 PUSH1 0x60 ADD PUSH1 0x40 MSTORE DUP1 PUSH0 PUSH20 0xFFFFFFFFFFFFFFFFFFFFFFFFFFFFFFFFFFFFFFFF AND DUP2 MSTORE PUSH1 0x20 ADD PUSH0 PUSH6 0xFFFFFFFFFFFF AND DUP2 MSTORE PUSH1 0x20 ADD PUSH0 PUSH6 0xFFFFFFFFFFFF AND DUP2 MSTORE POP SWAP1 JUMP JUMPDEST PUSH1 0x40 MLOAD DUP1 PUSH2 0x160 ADD PUSH1 0x40 MSTORE DUP1 PUSH0 PUSH20 0xFFFFFFFFFFFFFFFFFFFFFFFFFFFFFFFFFFFFFFFF AND DUP2 MSTORE PUSH1 0x20 ADD PUSH0 DUP2 MSTORE PUSH1 0x20 ADD PUSH0 PUSH8 0xFFFFFFFFFFFFFFFF AND DUP2 MSTORE PUSH1 0x20 ADD PUSH0 DUP2 MSTORE PUSH1 0x20 ADD PUSH0 DUP2 MSTORE PUSH1 0x20 ADD PUSH0 DUP2 MSTORE PUSH1 0x20 ADD PUSH0 DUP2 MSTORE PUSH1 0x20 ADD PUSH0 DUP2 MSTORE PUSH1 0x20 ADD PUSH0 PUSH20 0xFFFFFFFFFFFFFFFFFFFFFFFFFFFFFFFFFFFFFFFF AND DUP2 MSTORE PUSH1 0x20 ADD PUSH0 DUP2 MSTORE PUSH1 0x20 ADD PUSH0 DUP2 MSTORE POP SWAP1 JUMP JUMPDEST PUSH0 PUSH1 0x40 MLOAD SWAP1 POP SWAP1 JUMP JUMPDEST PUSH0 PUSH0 REVERT JUMPDEST PUSH0 PUSH0 REVERT JUMPDEST PUSH0 PUSH32 0xFFFFFFFF00000000000000000000000000000000000000000000000000000000 DUP3 AND SWAP1 POP SWAP2 SWAP1 POP JUMP JUMPDEST PUSH2 0x378C DUP2 PUSH2 0x3758 JUMP JUMPDEST DUP2 EQ PUSH2 0x3796 JUMPI PUSH0 PUSH0 REVERT JUMPDEST POP JUMP JUMPDEST PUSH0 DUP2 CALLDATALOAD SWAP1 POP PUSH2 0x37A7 DUP2 PUSH2 0x3783 JUMP JUMPDEST SWAP3 SWAP2 POP POP JUMP JUMPDEST PUSH0 PUSH1 0x20 DUP3 DUP5 SUB SLT ISZERO PUSH2 0x37C2 JUMPI PUSH2 0x37C1 PUSH2 0x3750 JUMP JUMPDEST JUMPDEST PUSH0 PUSH2 0x37CF DUP5 DUP3 DUP6 ADD PUSH2 0x3799 JUMP JUMPDEST SWAP2 POP POP SWAP3 SWAP2 POP POP JUMP JUMPDEST PUSH0 DUP2 ISZERO ISZERO SWAP1 POP SWAP2 SWAP1 POP JUMP JUMPDEST PUSH2 0x37EC DUP2 PUSH2 0x37D8 JUMP JUMPDEST DUP3 MSTORE POP POP JUMP JUMPDEST PUSH0 PUSH1 0x20 DUP3 ADD SWAP1 POP PUSH2 0x3805 PUSH0 DUP4 ADD DUP5 PUSH2 0x37E3 JUMP JUMPDEST SWAP3 SWAP2 POP POP JUMP JUMPDEST PUSH0 PUSH4 0xFFFFFFFF DUP3 AND SWAP1 POP SWAP2 SWAP1 POP JUMP JUMPDEST PUSH2 0x3823 DUP2 PUSH2 0x380B JUMP JUMPDEST DUP2 EQ PUSH2 0x382D JUMPI PUSH0 PUSH0 REVERT JUMPDEST POP JUMP JUMPDEST PUSH0 DUP2 CALLDATALOAD SWAP1 POP PUSH2 0x383E DUP2 PUSH2 0x381A JUMP JUMPDEST SWAP3 SWAP2 POP POP JUMP JUMPDEST PUSH0 PUSH1 0x20 DUP3 DUP5 SUB SLT ISZERO PUSH2 0x3859 JUMPI PUSH2 0x3858 PUSH2 0x3750 JUMP JUMPDEST JUMPDEST PUSH0 PUSH2 0x3866 DUP5 DUP3 DUP6 ADD PUSH2 0x3830 JUMP JUMPDEST SWAP2 POP POP SWAP3 SWAP2 POP POP JUMP JUMPDEST PUSH0 PUSH24 0xFFFFFFFFFFFFFFFFFFFFFFFFFFFFFFFFFFFFFFFFFFFFFFFF DUP3 AND SWAP1 POP SWAP2 SWAP1 POP JUMP JUMPDEST PUSH2 0x389B DUP2 PUSH2 0x386F JUMP JUMPDEST DUP2 EQ PUSH2 0x38A5 JUMPI PUSH0 PUSH0 REVERT JUMPDEST POP JUMP JUMPDEST PUSH0 DUP2 CALLDATALOAD SWAP1 POP PUSH2 0x38B6 DUP2 PUSH2 0x3892 JUMP JUMPDEST SWAP3 SWAP2 POP POP JUMP JUMPDEST PUSH0 PUSH1 0x20 DUP3 DUP5 SUB SLT ISZERO PUSH2 0x38D1 JUMPI PUSH2 0x38D0 PUSH2 0x3750 JUMP JUMPDEST JUMPDEST PUSH0 PUSH2 0x38DE DUP5 DUP3 DUP6 ADD PUSH2 0x38A8 JUMP JUMPDEST SWAP2 POP POP SWAP3 SWAP2 POP POP JUMP JUMPDEST PUSH0 PUSH20 0xFFFFFFFFFFFFFFFFFFFFFFFFFFFFFFFFFFFFFFFF DUP3 AND SWAP1 POP SWAP2 SWAP1 POP JUMP JUMPDEST PUSH0 PUSH2 0x3910 DUP3 PUSH2 0x38E7 JUMP JUMPDEST SWAP1 POP SWAP2 SWAP1 POP JUMP JUMPDEST PUSH2 0x3920 DUP2 PUSH2 0x3906 JUMP JUMPDEST DUP2 EQ PUSH2 0x392A JUMPI PUSH0 PUSH0 REVERT JUMPDEST POP JUMP JUMPDEST PUSH0 DUP2 CALLDATALOAD SWAP1 POP PUSH2 0x393B DUP2 PUSH2 0x3917 JUMP JUMPDEST SWAP3 SWAP2 POP POP JUMP JUMPDEST PUSH0 PUSH0 PUSH1 0x40 DUP4 DUP6 SUB SLT ISZERO PUSH2 0x3957 JUMPI PUSH2 0x3956 PUSH2 0x3750 JUMP JUMPDEST JUMPDEST PUSH0 PUSH2 0x3964 DUP6 DUP3 DUP7 ADD PUSH2 0x392D JUMP JUMPDEST SWAP3 POP POP PUSH1 0x20 PUSH2 0x3975 DUP6 DUP3 DUP7 ADD PUSH2 0x38A8 JUMP JUMPDEST SWAP2 POP POP SWAP3 POP SWAP3 SWAP1 POP JUMP JUMPDEST PUSH0 DUP2 SWAP1 POP SWAP2 SWAP1 POP JUMP JUMPDEST PUSH2 0x3991 DUP2 PUSH2 0x397F JUMP JUMPDEST DUP3 MSTORE POP POP JUMP JUMPDEST PUSH0 PUSH1 0x20 DUP3 ADD SWAP1 POP PUSH2 0x39AA PUSH0 DUP4 ADD DUP5 PUSH2 0x3988 JUMP JUMPDEST SWAP3 SWAP2 POP POP JUMP JUMPDEST PUSH0 PUSH2 0x39BA DUP3 PUSH2 0x38E7 JUMP JUMPDEST SWAP1 POP SWAP2 SWAP1 POP JUMP JUMPDEST PUSH2 0x39CA DUP2 PUSH2 0x39B0 JUMP JUMPDEST DUP2 EQ PUSH2 0x39D4 JUMPI PUSH0 PUSH0 REVERT JUMPDEST POP JUMP JUMPDEST PUSH0 DUP2 CALLDATALOAD SWAP1 POP PUSH2 0x39E5 DUP2 PUSH2 0x39C1 JUMP JUMPDEST SWAP3 SWAP2 POP POP JUMP JUMPDEST PUSH2 0x39F4 DUP2 PUSH2 0x397F JUMP JUMPDEST DUP2 EQ PUSH2 0x39FE JUMPI PUSH0 PUSH0 REVERT JUMPDEST POP JUMP JUMPDEST PUSH0 DUP2 CALLDATALOAD SWAP1 POP PUSH2 0x3A0F DUP2 PUSH2 0x39EB JUMP JUMPDEST SWAP3 SWAP2 POP POP JUMP JUMPDEST PUSH0 PUSH0 PUSH1 0x40 DUP4 DUP6 SUB SLT ISZERO PUSH2 0x3A2B JUMPI PUSH2 0x3A2A PUSH2 0x3750 JUMP JUMPDEST JUMPDEST PUSH0 PUSH2 0x3A38 DUP6 DUP3 DUP7 ADD PUSH2 0x39D7 JUMP JUMPDEST SWAP3 POP POP PUSH1 0x20 PUSH2 0x3A49 DUP6 DUP3 DUP7 ADD PUSH2 0x3A01 JUMP JUMPDEST SWAP2 POP POP SWAP3 POP SWAP3 SWAP1 POP JUMP JUMPDEST PUSH0 PUSH0 REVERT JUMPDEST PUSH0 PUSH0 REVERT JUMPDEST PUSH0 PUSH0 REVERT JUMPDEST PUSH0 PUSH0 DUP4 PUSH1 0x1F DUP5 ADD SLT PUSH2 0x3A74 JUMPI PUSH2 0x3A73 PUSH2 0x3A53 JUMP JUMPDEST JUMPDEST DUP3 CALLDATALOAD SWAP1 POP PUSH8 0xFFFFFFFFFFFFFFFF DUP2 GT ISZERO PUSH2 0x3A91 JUMPI PUSH2 0x3A90 PUSH2 0x3A57 JUMP JUMPDEST JUMPDEST PUSH1 0x20 DUP4 ADD SWAP2 POP DUP4 PUSH1 0x20 DUP3 MUL DUP4 ADD GT ISZERO PUSH2 0x3AAD JUMPI PUSH2 0x3AAC PUSH2 0x3A5B JUMP JUMPDEST JUMPDEST SWAP3 POP SWAP3 SWAP1 POP JUMP JUMPDEST PUSH0 PUSH0 PUSH0 PUSH1 0x40 DUP5 DUP7 SUB SLT ISZERO PUSH2 0x3ACB JUMPI PUSH2 0x3ACA PUSH2 0x3750 JUMP JUMPDEST JUMPDEST PUSH0 DUP5 ADD CALLDATALOAD PUSH8 0xFFFFFFFFFFFFFFFF DUP2 GT ISZERO PUSH2 0x3AE8 JUMPI PUSH2 0x3AE7 PUSH2 0x3754 JUMP JUMPDEST JUMPDEST PUSH2 0x3AF4 DUP7 DUP3 DUP8 ADD PUSH2 0x3A5F JUMP JUMPDEST SWAP4 POP SWAP4 POP POP PUSH1 0x20 PUSH2 0x3B07 DUP7 DUP3 DUP8 ADD PUSH2 0x39D7 JUMP JUMPDEST SWAP2 POP POP SWAP3 POP SWAP3 POP SWAP3 JUMP JUMPDEST PUSH0 PUSH1 0x20 DUP3 DUP5 SUB SLT ISZERO PUSH2 0x3B26 JUMPI PUSH2 0x3B25 PUSH2 0x3750 JUMP JUMPDEST JUMPDEST PUSH0 PUSH2 0x3B33 DUP5 DUP3 DUP6 ADD PUSH2 0x392D JUMP JUMPDEST SWAP2 POP POP SWAP3 SWAP2 POP POP JUMP JUMPDEST PUSH2 0x3B45 DUP2 PUSH2 0x397F JUMP JUMPDEST DUP3 MSTORE POP POP JUMP JUMPDEST PUSH2 0x3B54 DUP2 PUSH2 0x37D8 JUMP JUMPDEST DUP3 MSTORE POP POP JUMP JUMPDEST PUSH0 PUSH14 0xFFFFFFFFFFFFFFFFFFFFFFFFFFFF DUP3 AND SWAP1 POP SWAP2 SWAP1 POP JUMP JUMPDEST PUSH2 0x3B7C DUP2 PUSH2 0x3B5A JUMP JUMPDEST DUP3 MSTORE POP POP JUMP JUMPDEST PUSH2 0x3B8B DUP2 PUSH2 0x380B JUMP JUMPDEST DUP3 MSTORE POP POP JUMP JUMPDEST PUSH0 PUSH6 0xFFFFFFFFFFFF DUP3 AND SWAP1 POP SWAP2 SWAP1 POP JUMP JUMPDEST PUSH2 0x3BAB DUP2 PUSH2 0x3B91 JUMP JUMPDEST DUP3 MSTORE POP POP JUMP JUMPDEST PUSH1 0xA0 DUP3 ADD PUSH0 DUP3 ADD MLOAD PUSH2 0x3BC5 PUSH0 DUP6 ADD DUP3 PUSH2 0x3B3C JUMP JUMPDEST POP PUSH1 0x20 DUP3 ADD MLOAD PUSH2 0x3BD8 PUSH1 0x20 DUP6 ADD DUP3 PUSH2 0x3B4B JUMP JUMPDEST POP PUSH1 0x40 DUP3 ADD MLOAD PUSH2 0x3BEB PUSH1 0x40 DUP6 ADD DUP3 PUSH2 0x3B73 JUMP JUMPDEST POP PUSH1 0x60 DUP3 ADD MLOAD PUSH2 0x3BFE PUSH1 0x60 DUP6 ADD DUP3 PUSH2 0x3B82 JUMP JUMPDEST POP PUSH1 0x80 DUP3 ADD MLOAD PUSH2 0x3C11 PUSH1 0x80 DUP6 ADD DUP3 PUSH2 0x3BA2 JUMP JUMPDEST POP POP POP POP JUMP JUMPDEST PUSH0 PUSH1 0xA0 DUP3 ADD SWAP1 POP PUSH2 0x3C2A PUSH0 DUP4 ADD DUP5 PUSH2 0x3BB1 JUMP JUMPDEST SWAP3 SWAP2 POP POP JUMP JUMPDEST PUSH0 PUSH0 DUP4 PUSH1 0x1F DUP5 ADD SLT PUSH2 0x3C45 JUMPI PUSH2 0x3C44 PUSH2 0x3A53 JUMP JUMPDEST JUMPDEST DUP3 CALLDATALOAD SWAP1 POP PUSH8 0xFFFFFFFFFFFFFFFF DUP2 GT ISZERO PUSH2 0x3C62 JUMPI PUSH2 0x3C61 PUSH2 0x3A57 JUMP JUMPDEST JUMPDEST PUSH1 0x20 DUP4 ADD SWAP2 POP DUP4 PUSH1 0x20 DUP3 MUL DUP4 ADD GT ISZERO PUSH2 0x3C7E JUMPI PUSH2 0x3C7D PUSH2 0x3A5B JUMP JUMPDEST JUMPDEST SWAP3 POP SWAP3 SWAP1 POP JUMP JUMPDEST PUSH0 PUSH0 PUSH0 PUSH1 0x40 DUP5 DUP7 SUB SLT ISZERO PUSH2 0x3C9C JUMPI PUSH2 0x3C9B PUSH2 0x3750 JUMP JUMPDEST JUMPDEST PUSH0 DUP5 ADD CALLDATALOAD PUSH8 0xFFFFFFFFFFFFFFFF DUP2 GT ISZERO PUSH2 0x3CB9 JUMPI PUSH2 0x3CB8 PUSH2 0x3754 JUMP JUMPDEST JUMPDEST PUSH2 0x3CC5 DUP7 DUP3 DUP8 ADD PUSH2 0x3C30 JUMP JUMPDEST SWAP4 POP SWAP4 POP POP PUSH1 0x20 PUSH2 0x3CD8 DUP7 DUP3 DUP8 ADD PUSH2 0x39D7 JUMP JUMPDEST SWAP2 POP POP SWAP3 POP SWAP3 POP SWAP3 JUMP JUMPDEST PUSH0 PUSH0 REVERT JUMPDEST PUSH0 PUSH2 0x140 DUP3 DUP5 SUB SLT ISZERO PUSH2 0x3CFC JUMPI PUSH2 0x3CFB PUSH2 0x3CE2 JUMP JUMPDEST JUMPDEST DUP2 SWAP1 POP SWAP3 SWAP2 POP POP JUMP JUMPDEST PUSH0 PUSH1 0x20 DUP3 DUP5 SUB SLT ISZERO PUSH2 0x3D1A JUMPI PUSH2 0x3D19 PUSH2 0x3750 JUMP JUMPDEST JUMPDEST PUSH0 DUP3 ADD CALLDATALOAD PUSH8 0xFFFFFFFFFFFFFFFF DUP2 GT ISZERO PUSH2 0x3D37 JUMPI PUSH2 0x3D36 PUSH2 0x3754 JUMP JUMPDEST JUMPDEST PUSH2 0x3D43 DUP5 DUP3 DUP6 ADD PUSH2 0x3CE6 JUMP JUMPDEST SWAP2 POP POP SWAP3 SWAP2 POP POP JUMP JUMPDEST PUSH0 DUP2 SWAP1 POP SWAP2 SWAP1 POP JUMP JUMPDEST PUSH2 0x3D5E DUP2 PUSH2 0x3D4C JUMP JUMPDEST DUP3 MSTORE POP POP JUMP JUMPDEST PUSH0 PUSH1 0x20 DUP3 ADD SWAP1 POP PUSH2 0x3D77 PUSH0 DUP4 ADD DUP5 PUSH2 0x3D55 JUMP JUMPDEST SWAP3 SWAP2 POP POP JUMP JUMPDEST PUSH0 PUSH0 DUP4 PUSH1 0x1F DUP5 ADD SLT PUSH2 0x3D92 JUMPI PUSH2 0x3D91 PUSH2 0x3A53 JUMP JUMPDEST JUMPDEST DUP3 CALLDATALOAD SWAP1 POP PUSH8 0xFFFFFFFFFFFFFFFF DUP2 GT ISZERO PUSH2 0x3DAF JUMPI PUSH2 0x3DAE PUSH2 0x3A57 JUMP JUMPDEST JUMPDEST PUSH1 0x20 DUP4 ADD SWAP2 POP DUP4 PUSH1 0x1 DUP3 MUL DUP4 ADD GT ISZERO PUSH2 0x3DCB JUMPI PUSH2 0x3DCA PUSH2 0x3A5B JUMP JUMPDEST JUMPDEST SWAP3 POP SWAP3 SWAP1 POP JUMP JUMPDEST PUSH0 PUSH0 PUSH0 PUSH1 0x40 DUP5 DUP7 SUB SLT ISZERO PUSH2 0x3DE9 JUMPI PUSH2 0x3DE8 PUSH2 0x3750 JUMP JUMPDEST JUMPDEST PUSH0 PUSH2 0x3DF6 DUP7 DUP3 DUP8 ADD PUSH2 0x392D JUMP JUMPDEST SWAP4 POP POP PUSH1 0x20 DUP5 ADD CALLDATALOAD PUSH8 0xFFFFFFFFFFFFFFFF DUP2 GT ISZERO PUSH2 0x3E17 JUMPI PUSH2 0x3E16 PUSH2 0x3754 JUMP JUMPDEST JUMPDEST PUSH2 0x3E23 DUP7 DUP3 DUP8 ADD PUSH2 0x3D7D JUMP JUMPDEST SWAP3 POP SWAP3 POP POP SWAP3 POP SWAP3 POP SWAP3 JUMP JUMPDEST PUSH0 PUSH0 PUSH1 0x20 DUP4 DUP6 SUB SLT ISZERO PUSH2 0x3E45 JUMPI PUSH2 0x3E44 PUSH2 0x3750 JUMP JUMPDEST JUMPDEST PUSH0 DUP4 ADD CALLDATALOAD PUSH8 0xFFFFFFFFFFFFFFFF DUP2 GT ISZERO PUSH2 0x3E62 JUMPI PUSH2 0x3E61 PUSH2 0x3754 JUMP JUMPDEST JUMPDEST PUSH2 0x3E6E DUP6 DUP3 DUP7 ADD PUSH2 0x3D7D JUMP JUMPDEST SWAP3 POP SWAP3 POP POP SWAP3 POP SWAP3 SWAP1 POP JUMP JUMPDEST PUSH0 PUSH0 REVERT JUMPDEST PUSH0 PUSH1 0x1F NOT PUSH1 0x1F DUP4 ADD AND SWAP1 POP SWAP2 SWAP1 POP JUMP JUMPDEST PUSH32 0x4E487B7100000000000000000000000000000000000000000000000000000000 PUSH0 MSTORE PUSH1 0x41 PUSH1 0x4 MSTORE PUSH1 0x24 PUSH0 REVERT JUMPDEST PUSH2 0x3EC4 DUP3 PUSH2 0x3E7E JUMP JUMPDEST DUP2 ADD DUP2 DUP2 LT PUSH8 0xFFFFFFFFFFFFFFFF DUP3 GT OR ISZERO PUSH2 0x3EE3 JUMPI PUSH2 0x3EE2 PUSH2 0x3E8E JUMP JUMPDEST JUMPDEST DUP1 PUSH1 0x40 MSTORE POP POP POP JUMP JUMPDEST PUSH0 PUSH2 0x3EF5 PUSH2 0x3747 JUMP JUMPDEST SWAP1 POP PUSH2 0x3F01 DUP3 DUP3 PUSH2 0x3EBB JUMP JUMPDEST SWAP2 SWAP1 POP JUMP JUMPDEST PUSH0 PUSH8 0xFFFFFFFFFFFFFFFF DUP3 GT ISZERO PUSH2 0x3F20 JUMPI PUSH2 0x3F1F PUSH2 0x3E8E JUMP JUMPDEST JUMPDEST PUSH2 0x3F29 DUP3 PUSH2 0x3E7E JUMP JUMPDEST SWAP1 POP PUSH1 0x20 DUP2 ADD SWAP1 POP SWAP2 SWAP1 POP JUMP JUMPDEST DUP3 DUP2 DUP4 CALLDATACOPY PUSH0 DUP4 DUP4 ADD MSTORE POP POP POP JUMP JUMPDEST PUSH0 PUSH2 0x3F56 PUSH2 0x3F51 DUP5 PUSH2 0x3F06 JUMP JUMPDEST PUSH2 0x3EEC JUMP JUMPDEST SWAP1 POP DUP3 DUP2 MSTORE PUSH1 0x20 DUP2 ADD DUP5 DUP5 DUP5 ADD GT ISZERO PUSH2 0x3F72 JUMPI PUSH2 0x3F71 PUSH2 0x3E7A JUMP JUMPDEST JUMPDEST PUSH2 0x3F7D DUP5 DUP3 DUP6 PUSH2 0x3F36 JUMP JUMPDEST POP SWAP4 SWAP3 POP POP POP JUMP JUMPDEST PUSH0 DUP3 PUSH1 0x1F DUP4 ADD SLT PUSH2 0x3F99 JUMPI PUSH2 0x3F98 PUSH2 0x3A53 JUMP JUMPDEST JUMPDEST DUP2 CALLDATALOAD PUSH2 0x3FA9 DUP5 DUP3 PUSH1 0x20 DUP7 ADD PUSH2 0x3F44 JUMP JUMPDEST SWAP2 POP POP SWAP3 SWAP2 POP POP JUMP JUMPDEST PUSH0 PUSH0 REVERT JUMPDEST PUSH0 PUSH8 0xFFFFFFFFFFFFFFFF DUP3 AND SWAP1 POP SWAP2 SWAP1 POP JUMP JUMPDEST PUSH2 0x3FD2 DUP2 PUSH2 0x3FB6 JUMP JUMPDEST DUP2 EQ PUSH2 0x3FDC JUMPI PUSH0 PUSH0 REVERT JUMPDEST POP JUMP JUMPDEST PUSH0 DUP2 CALLDATALOAD SWAP1 POP PUSH2 0x3FED DUP2 PUSH2 0x3FC9 JUMP JUMPDEST SWAP3 SWAP2 POP POP JUMP JUMPDEST PUSH0 PUSH2 0x160 DUP3 DUP5 SUB SLT ISZERO PUSH2 0x4009 JUMPI PUSH2 0x4008 PUSH2 0x3FB2 JUMP JUMPDEST JUMPDEST PUSH2 0x4014 PUSH2 0x160 PUSH2 0x3EEC JUMP JUMPDEST SWAP1 POP PUSH0 PUSH2 0x4023 DUP5 DUP3 DUP6 ADD PUSH2 0x392D JUMP JUMPDEST PUSH0 DUP4 ADD MSTORE POP PUSH1 0x20 PUSH2 0x4036 DUP5 DUP3 DUP6 ADD PUSH2 0x3A01 JUMP JUMPDEST PUSH1 0x20 DUP4 ADD MSTORE POP PUSH1 0x40 PUSH2 0x404A DUP5 DUP3 DUP6 ADD PUSH2 0x3FDF JUMP JUMPDEST PUSH1 0x40 DUP4 ADD MSTORE POP PUSH1 0x60 PUSH2 0x405E DUP5 DUP3 DUP6 ADD PUSH2 0x3A01 JUMP JUMPDEST PUSH1 0x60 DUP4 ADD MSTORE POP PUSH1 0x80 PUSH2 0x4072 DUP5 DUP3 DUP6 ADD PUSH2 0x3A01 JUMP JUMPDEST PUSH1 0x80 DUP4 ADD MSTORE POP PUSH1 0xA0 PUSH2 0x4086 DUP5 DUP3 DUP6 ADD PUSH2 0x3A01 JUMP JUMPDEST PUSH1 0xA0 DUP4 ADD MSTORE POP PUSH1 0xC0 PUSH2 0x409A DUP5 DUP3 DUP6 ADD PUSH2 0x3A01 JUMP JUMPDEST PUSH1 0xC0 DUP4 ADD MSTORE POP PUSH1 0xE0 PUSH2 0x40AE DUP5 DUP3 DUP6 ADD PUSH2 0x3A01 JUMP JUMPDEST PUSH1 0xE0 DUP4 ADD MSTORE POP PUSH2 0x100 PUSH2 0x40C3 DUP5 DUP3 DUP6 ADD PUSH2 0x392D JUMP JUMPDEST PUSH2 0x100 DUP4 ADD MSTORE POP PUSH2 0x120 PUSH2 0x40D9 DUP5 DUP3 DUP6 ADD PUSH2 0x3A01 JUMP JUMPDEST PUSH2 0x120 DUP4 ADD MSTORE POP PUSH2 0x140 PUSH2 0x40EF DUP5 DUP3 DUP6 ADD PUSH2 0x3A01 JUMP JUMPDEST PUSH2 0x140 DUP4 ADD MSTORE POP SWAP3 SWAP2 POP POP JUMP JUMPDEST PUSH2 0x4105 DUP2 PUSH2 0x3D4C JUMP JUMPDEST DUP2 EQ PUSH2 0x410F JUMPI PUSH0 PUSH0 REVERT JUMPDEST POP JUMP JUMPDEST PUSH0 DUP2 CALLDATALOAD SWAP1 POP PUSH2 0x4120 DUP2 PUSH2 0x40FC JUMP JUMPDEST SWAP3 SWAP2 POP POP JUMP JUMPDEST PUSH0 PUSH2 0x1E0 DUP3 DUP5 SUB SLT ISZERO PUSH2 0x413C JUMPI PUSH2 0x413B PUSH2 0x3FB2 JUMP JUMPDEST JUMPDEST PUSH2 0x4146 PUSH1 0xA0 PUSH2 0x3EEC JUMP JUMPDEST SWAP1 POP PUSH0 PUSH2 0x4155 DUP5 DUP3 DUP6 ADD PUSH2 0x3FF3 JUMP JUMPDEST PUSH0 DUP4 ADD MSTORE POP PUSH2 0x160 PUSH2 0x4169 DUP5 DUP3 DUP6 ADD PUSH2 0x4112 JUMP JUMPDEST PUSH1 0x20 DUP4 ADD MSTORE POP PUSH2 0x180 PUSH2 0x417E DUP5 DUP3 DUP6 ADD PUSH2 0x3A01 JUMP JUMPDEST PUSH1 0x40 DUP4 ADD MSTORE POP PUSH2 0x1A0 PUSH2 0x4193 DUP5 DUP3 DUP6 ADD PUSH2 0x3A01 JUMP JUMPDEST PUSH1 0x60 DUP4 ADD MSTORE POP PUSH2 0x1C0 PUSH2 0x41A8 DUP5 DUP3 DUP6 ADD PUSH2 0x3A01 JUMP JUMPDEST PUSH1 0x80 DUP4 ADD MSTORE POP SWAP3 SWAP2 POP POP JUMP JUMPDEST PUSH0 PUSH0 PUSH0 PUSH0 PUSH2 0x220 DUP6 DUP8 SUB SLT ISZERO PUSH2 0x41CD JUMPI PUSH2 0x41CC PUSH2 0x3750 JUMP JUMPDEST JUMPDEST PUSH0 DUP6 ADD CALLDATALOAD PUSH8 0xFFFFFFFFFFFFFFFF DUP2 GT ISZERO PUSH2 0x41EA JUMPI PUSH2 0x41E9 PUSH2 0x3754 JUMP JUMPDEST JUMPDEST PUSH2 0x41F6 DUP8 DUP3 DUP9 ADD PUSH2 0x3F85 JUMP JUMPDEST SWAP5 POP POP PUSH1 0x20 PUSH2 0x4207 DUP8 DUP3 DUP9 ADD PUSH2 0x4126 JUMP JUMPDEST SWAP4 POP POP PUSH2 0x200 DUP6 ADD CALLDATALOAD PUSH8 0xFFFFFFFFFFFFFFFF DUP2 GT ISZERO PUSH2 0x4229 JUMPI PUSH2 0x4228 PUSH2 0x3754 JUMP JUMPDEST JUMPDEST PUSH2 0x4235 DUP8 DUP3 DUP9 ADD PUSH2 0x3D7D JUMP JUMPDEST SWAP3 POP SWAP3 POP POP SWAP3 SWAP6 SWAP2 SWAP5 POP SWAP3 POP JUMP JUMPDEST PUSH0 PUSH1 0x20 DUP3 DUP5 SUB SLT ISZERO PUSH2 0x4258 JUMPI PUSH2 0x4257 PUSH2 0x3750 JUMP JUMPDEST JUMPDEST PUSH0 PUSH2 0x4265 DUP5 DUP3 DUP6 ADD PUSH2 0x39D7 JUMP JUMPDEST SWAP2 POP POP SWAP3 SWAP2 POP POP JUMP JUMPDEST PUSH2 0x4277 DUP2 PUSH2 0x3B5A JUMP JUMPDEST DUP3 MSTORE POP POP JUMP JUMPDEST PUSH2 0x4286 DUP2 PUSH2 0x380B JUMP JUMPDEST DUP3 MSTORE POP POP JUMP JUMPDEST PUSH2 0x4295 DUP2 PUSH2 0x3B91 JUMP JUMPDEST DUP3 MSTORE POP POP JUMP JUMPDEST PUSH0 PUSH1 0xA0 DUP3 ADD SWAP1 POP PUSH2 0x42AE PUSH0 DUP4 ADD DUP9 PUSH2 0x3988 JUMP JUMPDEST PUSH2 0x42BB PUSH1 0x20 DUP4 ADD DUP8 PUSH2 0x37E3 JUMP JUMPDEST PUSH2 0x42C8 PUSH1 0x40 DUP4 ADD DUP7 PUSH2 0x426E JUMP JUMPDEST PUSH2 0x42D5 PUSH1 0x60 DUP4 ADD DUP6 PUSH2 0x427D JUMP JUMPDEST PUSH2 0x42E2 PUSH1 0x80 DUP4 ADD DUP5 PUSH2 0x428C JUMP JUMPDEST SWAP7 SWAP6 POP POP POP POP POP POP JUMP JUMPDEST PUSH0 DUP3 DUP3 MSTORE PUSH1 0x20 DUP3 ADD SWAP1 POP SWAP3 SWAP2 POP POP JUMP JUMPDEST PUSH32 0x6D757374207370656369667920756E7374616B652064656C6179000000000000 PUSH0 DUP3 ADD MSTORE POP JUMP JUMPDEST PUSH0 PUSH2 0x4330 PUSH1 0x1A DUP4 PUSH2 0x42EC JUMP JUMPDEST SWAP2 POP PUSH2 0x433B DUP3 PUSH2 0x42FC JUMP JUMPDEST PUSH1 0x20 DUP3 ADD SWAP1 POP SWAP2 SWAP1 POP JUMP JUMPDEST PUSH0 PUSH1 0x20 DUP3 ADD SWAP1 POP DUP2 DUP2 SUB PUSH0 DUP4 ADD MSTORE PUSH2 0x435D DUP2 PUSH2 0x4324 JUMP JUMPDEST SWAP1 POP SWAP2 SWAP1 POP JUMP JUMPDEST PUSH32 0x63616E6E6F7420646563726561736520756E7374616B652074696D6500000000 PUSH0 DUP3 ADD MSTORE POP JUMP JUMPDEST PUSH0 PUSH2 0x4398 PUSH1 0x1C DUP4 PUSH2 0x42EC JUMP JUMPDEST SWAP2 POP PUSH2 0x43A3 DUP3 PUSH2 0x4364 JUMP JUMPDEST PUSH1 0x20 DUP3 ADD SWAP1 POP SWAP2 SWAP1 POP JUMP JUMPDEST PUSH0 PUSH1 0x20 DUP3 ADD SWAP1 POP DUP2 DUP2 SUB PUSH0 DUP4 ADD MSTORE PUSH2 0x43C5 DUP2 PUSH2 0x438C JUMP JUMPDEST SWAP1 POP SWAP2 SWAP1 POP JUMP JUMPDEST PUSH32 0x4E487B7100000000000000000000000000000000000000000000000000000000 PUSH0 MSTORE PUSH1 0x11 PUSH1 0x4 MSTORE PUSH1 0x24 PUSH0 REVERT JUMPDEST PUSH0 PUSH2 0x4403 DUP3 PUSH2 0x397F JUMP JUMPDEST SWAP2 POP PUSH2 0x440E DUP4 PUSH2 0x397F JUMP JUMPDEST SWAP3 POP DUP3 DUP3 ADD SWAP1 POP DUP1 DUP3 GT ISZERO PUSH2 0x4426 JUMPI PUSH2 0x4425 PUSH2 0x43CC JUMP JUMPDEST JUMPDEST SWAP3 SWAP2 POP POP JUMP JUMPDEST PUSH32 0x6E6F207374616B65207370656369666965640000000000000000000000000000 PUSH0 DUP3 ADD MSTORE POP JUMP JUMPDEST PUSH0 PUSH2 0x4460 PUSH1 0x12 DUP4 PUSH2 0x42EC JUMP JUMPDEST SWAP2 POP PUSH2 0x446B DUP3 PUSH2 0x442C JUMP JUMPDEST PUSH1 0x20 DUP3 ADD SWAP1 POP SWAP2 SWAP1 POP JUMP JUMPDEST PUSH0 PUSH1 0x20 DUP3 ADD SWAP1 POP DUP2 DUP2 SUB PUSH0 DUP4 ADD MSTORE PUSH2 0x448D DUP2 PUSH2 0x4454 JUMP JUMPDEST SWAP1 POP SWAP2 SWAP1 POP JUMP JUMPDEST PUSH32 0x7374616B65206F766572666C6F77000000000000000000000000000000000000 PUSH0 DUP3 ADD MSTORE POP JUMP JUMPDEST PUSH0 PUSH2 0x44C8 PUSH1 0xE DUP4 PUSH2 0x42EC JUMP JUMPDEST SWAP2 POP PUSH2 0x44D3 DUP3 PUSH2 0x4494 JUMP JUMPDEST PUSH1 0x20 DUP3 ADD SWAP1 POP SWAP2 SWAP1 POP JUMP JUMPDEST PUSH0 PUSH1 0x20 DUP3 ADD SWAP1 POP DUP2 DUP2 SUB PUSH0 DUP4 ADD MSTORE PUSH2 0x44F5 DUP2 PUSH2 0x44BC JUMP JUMPDEST SWAP1 POP SWAP2 SWAP1 POP JUMP JUMPDEST PUSH0 DUP2 SWAP1 POP SWAP2 SWAP1 POP JUMP JUMPDEST PUSH0 PUSH2 0x451F PUSH2 0x451A PUSH2 0x4515 DUP5 PUSH2 0x380B JUMP JUMPDEST PUSH2 0x44FC JUMP JUMPDEST PUSH2 0x397F JUMP JUMPDEST SWAP1 POP SWAP2 SWAP1 POP JUMP JUMPDEST PUSH2 0x452F DUP2 PUSH2 0x4505 JUMP JUMPDEST DUP3 MSTORE POP POP JUMP JUMPDEST PUSH0 PUSH1 0x40 DUP3 ADD SWAP1 POP PUSH2 0x4548 PUSH0 DUP4 ADD DUP6 PUSH2 0x3988 JUMP JUMPDEST PUSH2 0x4555 PUSH1 0x20 DUP4 ADD DUP5 PUSH2 0x4526 JUMP JUMPDEST SWAP4 SWAP3 POP POP POP JUMP JUMPDEST PUSH0 PUSH2 0x4566 DUP3 PUSH2 0x397F JUMP JUMPDEST SWAP2 POP PUSH32 0xFFFFFFFFFFFFFFFFFFFFFFFFFFFFFFFFFFFFFFFFFFFFFFFFFFFFFFFFFFFFFFFF DUP3 SUB PUSH2 0x4598 JUMPI PUSH2 0x4597 PUSH2 0x43CC JUMP JUMPDEST JUMPDEST PUSH1 0x1 DUP3 ADD SWAP1 POP SWAP2 SWAP1 POP JUMP JUMPDEST PUSH32 0x576974686472617720616D6F756E7420746F6F206C6172676500000000000000 PUSH0 DUP3 ADD MSTORE POP JUMP JUMPDEST PUSH0 PUSH2 0x45D7 PUSH1 0x19 DUP4 PUSH2 0x42EC JUMP JUMPDEST SWAP2 POP PUSH2 0x45E2 DUP3 PUSH2 0x45A3 JUMP JUMPDEST PUSH1 0x20 DUP3 ADD SWAP1 POP SWAP2 SWAP1 POP JUMP JUMPDEST PUSH0 PUSH1 0x20 DUP3 ADD SWAP1 POP DUP2 DUP2 SUB PUSH0 DUP4 ADD MSTORE PUSH2 0x4604 DUP2 PUSH2 0x45CB JUMP JUMPDEST SWAP1 POP SWAP2 SWAP1 POP JUMP JUMPDEST PUSH0 PUSH2 0x4615 DUP3 PUSH2 0x397F JUMP JUMPDEST SWAP2 POP PUSH2 0x4620 DUP4 PUSH2 0x397F JUMP JUMPDEST SWAP3 POP DUP3 DUP3 SUB SWAP1 POP DUP2 DUP2 GT ISZERO PUSH2 0x4638 JUMPI PUSH2 0x4637 PUSH2 0x43CC JUMP JUMPDEST JUMPDEST SWAP3 SWAP2 POP POP JUMP JUMPDEST PUSH0 PUSH2 0x4658 PUSH2 0x4653 PUSH2 0x464E DUP5 PUSH2 0x38E7 JUMP JUMPDEST PUSH2 0x44FC JUMP JUMPDEST PUSH2 0x38E7 JUMP JUMPDEST SWAP1 POP SWAP2 SWAP1 POP JUMP JUMPDEST PUSH0 PUSH2 0x4669 DUP3 PUSH2 0x463E JUMP JUMPDEST SWAP1 POP SWAP2 SWAP1 POP JUMP JUMPDEST PUSH0 PUSH2 0x467A DUP3 PUSH2 0x465F JUMP JUMPDEST SWAP1 POP SWAP2 SWAP1 POP JUMP JUMPDEST PUSH2 0x468A DUP2 PUSH2 0x4670 JUMP JUMPDEST DUP3 MSTORE POP POP JUMP JUMPDEST PUSH0 PUSH1 0x40 DUP3 ADD SWAP1 POP PUSH2 0x46A3 PUSH0 DUP4 ADD DUP6 PUSH2 0x4681 JUMP JUMPDEST PUSH2 0x46B0 PUSH1 0x20 DUP4 ADD DUP5 PUSH2 0x3988 JUMP JUMPDEST SWAP4 SWAP3 POP POP POP JUMP JUMPDEST PUSH0 DUP2 SWAP1 POP SWAP3 SWAP2 POP POP JUMP JUMPDEST POP JUMP JUMPDEST PUSH0 PUSH2 0x46CF PUSH0 DUP4 PUSH2 0x46B7 JUMP JUMPDEST SWAP2 POP PUSH2 0x46DA DUP3 PUSH2 0x46C1 JUMP JUMPDEST PUSH0 DUP3 ADD SWAP1 POP SWAP2 SWAP1 POP JUMP JUMPDEST PUSH0 PUSH2 0x46EE DUP3 PUSH2 0x46C4 JUMP JUMPDEST SWAP2 POP DUP2 SWAP1 POP SWAP2 SWAP1 POP JUMP JUMPDEST PUSH32 0x6661696C656420746F2077697468647261770000000000000000000000000000 PUSH0 DUP3 ADD MSTORE POP JUMP JUMPDEST PUSH0 PUSH2 0x472C PUSH1 0x12 DUP4 PUSH2 0x42EC JUMP JUMPDEST SWAP2 POP PUSH2 0x4737 DUP3 PUSH2 0x46F8 JUMP JUMPDEST PUSH1 0x20 DUP3 ADD SWAP1 POP SWAP2 SWAP1 POP JUMP JUMPDEST PUSH0 PUSH1 0x20 DUP3 ADD SWAP1 POP DUP2 DUP2 SUB PUSH0 DUP4 ADD MSTORE PUSH2 0x4759 DUP2 PUSH2 0x4720 JUMP JUMPDEST SWAP1 POP SWAP2 SWAP1 POP JUMP JUMPDEST PUSH32 0x4E487B7100000000000000000000000000000000000000000000000000000000 PUSH0 MSTORE PUSH1 0x32 PUSH1 0x4 MSTORE PUSH1 0x24 PUSH0 REVERT JUMPDEST PUSH0 PUSH0 REVERT JUMPDEST PUSH0 PUSH0 REVERT JUMPDEST PUSH0 PUSH0 REVERT JUMPDEST PUSH0 DUP3 CALLDATALOAD PUSH1 0x1 PUSH2 0x140 SUB DUP4 CALLDATASIZE SUB SUB DUP2 SLT PUSH2 0x47B5 JUMPI PUSH2 0x47B4 PUSH2 0x478D JUMP JUMPDEST JUMPDEST DUP1 DUP4 ADD SWAP2 POP POP SWAP3 SWAP2 POP POP JUMP JUMPDEST PUSH0 DUP3 CALLDATALOAD PUSH1 0x1 PUSH1 0x60 SUB DUP4 CALLDATASIZE SUB SUB DUP2 SLT PUSH2 0x47DC JUMPI PUSH2 0x47DB PUSH2 0x478D JUMP JUMPDEST JUMPDEST DUP1 DUP4 ADD SWAP2 POP POP SWAP3 SWAP2 POP POP JUMP JUMPDEST PUSH0 PUSH0 DUP4 CALLDATALOAD PUSH1 0x1 PUSH1 0x20 SUB DUP5 CALLDATASIZE SUB SUB DUP2 SLT PUSH2 0x4804 JUMPI PUSH2 0x4803 PUSH2 0x478D JUMP JUMPDEST JUMPDEST DUP1 DUP5 ADD SWAP3 POP DUP3 CALLDATALOAD SWAP2 POP PUSH8 0xFFFFFFFFFFFFFFFF DUP3 GT ISZERO PUSH2 0x4826 JUMPI PUSH2 0x4825 PUSH2 0x4791 JUMP JUMPDEST JUMPDEST PUSH1 0x20 DUP4 ADD SWAP3 POP PUSH1 0x20 DUP3 MUL CALLDATASIZE SUB DUP4 SGT ISZERO PUSH2 0x4842 JUMPI PUSH2 0x4841 PUSH2 0x4795 JUMP JUMPDEST JUMPDEST POP SWAP3 POP SWAP3 SWAP1 POP JUMP JUMPDEST PUSH0 PUSH2 0x4854 DUP3 PUSH2 0x3906 JUMP JUMPDEST SWAP1 POP SWAP2 SWAP1 POP JUMP JUMPDEST PUSH2 0x4864 DUP2 PUSH2 0x484A JUMP JUMPDEST DUP2 EQ PUSH2 0x486E JUMPI PUSH0 PUSH0 REVERT JUMPDEST POP JUMP JUMPDEST PUSH0 DUP2 CALLDATALOAD SWAP1 POP PUSH2 0x487F DUP2 PUSH2 0x485B JUMP JUMPDEST SWAP3 SWAP2 POP POP JUMP JUMPDEST PUSH0 PUSH1 0x20 DUP3 DUP5 SUB SLT ISZERO PUSH2 0x489A JUMPI PUSH2 0x4899 PUSH2 0x3750 JUMP JUMPDEST JUMPDEST PUSH0 PUSH2 0x48A7 DUP5 DUP3 DUP6 ADD PUSH2 0x4871 JUMP JUMPDEST SWAP2 POP POP SWAP3 SWAP2 POP POP JUMP JUMPDEST PUSH0 PUSH0 DUP4 CALLDATALOAD PUSH1 0x1 PUSH1 0x20 SUB DUP5 CALLDATASIZE SUB SUB DUP2 SLT PUSH2 0x48CC JUMPI PUSH2 0x48CB PUSH2 0x478D JUMP JUMPDEST JUMPDEST DUP1 DUP5 ADD SWAP3 POP DUP3 CALLDATALOAD SWAP2 POP PUSH8 0xFFFFFFFFFFFFFFFF DUP3 GT ISZERO PUSH2 0x48EE JUMPI PUSH2 0x48ED PUSH2 0x4791 JUMP JUMPDEST JUMPDEST PUSH1 0x20 DUP4 ADD SWAP3 POP PUSH1 0x1 DUP3 MUL CALLDATASIZE SUB DUP4 SGT ISZERO PUSH2 0x490A JUMPI PUSH2 0x4909 PUSH2 0x4795 JUMP JUMPDEST JUMPDEST POP SWAP3 POP SWAP3 SWAP1 POP JUMP JUMPDEST PUSH0 DUP3 DUP3 MSTORE PUSH1 0x20 DUP3 ADD SWAP1 POP SWAP3 SWAP2 POP POP JUMP JUMPDEST PUSH0 DUP2 SWAP1 POP SWAP2 SWAP1 POP JUMP JUMPDEST PUSH0 PUSH2 0x4939 PUSH1 0x20 DUP5 ADD DUP5 PUSH2 0x392D JUMP JUMPDEST SWAP1 POP SWAP3 SWAP2 POP POP JUMP JUMPDEST PUSH2 0x494A DUP2 PUSH2 0x3906 JUMP JUMPDEST DUP3 MSTORE POP POP JUMP JUMPDEST PUSH0 PUSH2 0x495E PUSH1 0x20 DUP5 ADD DUP5 PUSH2 0x3A01 JUMP JUMPDEST SWAP1 POP SWAP3 SWAP2 POP POP JUMP JUMPDEST PUSH0 PUSH2 0x4974 PUSH1 0x20 DUP5 ADD DUP5 PUSH2 0x3FDF JUMP JUMPDEST SWAP1 POP SWAP3 SWAP2 POP POP JUMP JUMPDEST PUSH2 0x4985 DUP2 PUSH2 0x3FB6 JUMP JUMPDEST DUP3 MSTORE POP POP JUMP JUMPDEST PUSH0 PUSH0 REVERT JUMPDEST PUSH0 PUSH0 REVERT JUMPDEST PUSH0 PUSH0 REVERT JUMPDEST PUSH0 PUSH0 DUP4 CALLDATALOAD PUSH1 0x1 PUSH1 0x20 SUB DUP5 CALLDATASIZE SUB SUB DUP2 SLT PUSH2 0x49B3 JUMPI PUSH2 0x49B2 PUSH2 0x4993 JUMP JUMPDEST JUMPDEST DUP4 DUP2 ADD SWAP3 POP DUP3 CALLDATALOAD SWAP2 POP PUSH1 0x20 DUP4 ADD SWAP3 POP PUSH8 0xFFFFFFFFFFFFFFFF DUP3 GT ISZERO PUSH2 0x49DB JUMPI PUSH2 0x49DA PUSH2 0x498B JUMP JUMPDEST JUMPDEST PUSH1 0x1 DUP3 MUL CALLDATASIZE SUB DUP4 SGT ISZERO PUSH2 0x49F1 JUMPI PUSH2 0x49F0 PUSH2 0x498F JUMP JUMPDEST JUMPDEST POP SWAP3 POP SWAP3 SWAP1 POP JUMP JUMPDEST PUSH0 DUP3 DUP3 MSTORE PUSH1 0x20 DUP3 ADD SWAP1 POP SWAP3 SWAP2 POP POP JUMP JUMPDEST PUSH0 PUSH2 0x4A14 DUP4 DUP6 PUSH2 0x49F9 JUMP JUMPDEST SWAP4 POP PUSH2 0x4A21 DUP4 DUP6 DUP5 PUSH2 0x3F36 JUMP JUMPDEST PUSH2 0x4A2A DUP4 PUSH2 0x3E7E JUMP JUMPDEST DUP5 ADD SWAP1 POP SWAP4 SWAP3 POP POP POP JUMP JUMPDEST PUSH0 PUSH2 0x4A43 PUSH1 0x20 DUP5 ADD DUP5 PUSH2 0x4112 JUMP JUMPDEST SWAP1 POP SWAP3 SWAP2 POP POP JUMP JUMPDEST PUSH2 0x4A54 DUP2 PUSH2 0x3D4C JUMP JUMPDEST DUP3 MSTORE POP POP JUMP JUMPDEST PUSH0 PUSH2 0x140 DUP4 ADD PUSH2 0x4A6C PUSH0 DUP5 ADD DUP5 PUSH2 0x492B JUMP JUMPDEST PUSH2 0x4A78 PUSH0 DUP7 ADD DUP3 PUSH2 0x4941 JUMP JUMPDEST POP PUSH2 0x4A86 PUSH1 0x20 DUP5 ADD DUP5 PUSH2 0x4950 JUMP JUMPDEST PUSH2 0x4A93 PUSH1 0x20 DUP7 ADD DUP3 PUSH2 0x3B3C JUMP JUMPDEST POP PUSH2 0x4AA1 PUSH1 0x40 DUP5 ADD DUP5 PUSH2 0x4966 JUMP JUMPDEST PUSH2 0x4AAE PUSH1 0x40 DUP7 ADD DUP3 PUSH2 0x497C JUMP JUMPDEST POP PUSH2 0x4ABC PUSH1 0x60 DUP5 ADD DUP5 PUSH2 0x4997 JUMP JUMPDEST DUP6 DUP4 SUB PUSH1 0x60 DUP8 ADD MSTORE PUSH2 0x4ACF DUP4 DUP3 DUP5 PUSH2 0x4A09 JUMP JUMPDEST SWAP3 POP POP POP PUSH2 0x4AE0 PUSH1 0x80 DUP5 ADD DUP5 PUSH2 0x4997 JUMP JUMPDEST DUP6 DUP4 SUB PUSH1 0x80 DUP8 ADD MSTORE PUSH2 0x4AF3 DUP4 DUP3 DUP5 PUSH2 0x4A09 JUMP JUMPDEST SWAP3 POP POP POP PUSH2 0x4B04 PUSH1 0xA0 DUP5 ADD DUP5 PUSH2 0x4A35 JUMP JUMPDEST PUSH2 0x4B11 PUSH1 0xA0 DUP7 ADD DUP3 PUSH2 0x4A4B JUMP JUMPDEST POP PUSH2 0x4B1F PUSH1 0xC0 DUP5 ADD DUP5 PUSH2 0x4950 JUMP JUMPDEST PUSH2 0x4B2C PUSH1 0xC0 DUP7 ADD DUP3 PUSH2 0x3B3C JUMP JUMPDEST POP PUSH2 0x4B3A PUSH1 0xE0 DUP5 ADD DUP5 PUSH2 0x4A35 JUMP JUMPDEST PUSH2 0x4B47 PUSH1 0xE0 DUP7 ADD DUP3 PUSH2 0x4A4B JUMP JUMPDEST POP PUSH2 0x4B56 PUSH2 0x100 DUP5 ADD DUP5 PUSH2 0x4997 JUMP JUMPDEST DUP6 DUP4 SUB PUSH2 0x100 DUP8 ADD MSTORE PUSH2 0x4B6A DUP4 DUP3 DUP5 PUSH2 0x4A09 JUMP JUMPDEST SWAP3 POP POP POP PUSH2 0x4B7C PUSH2 0x120 DUP5 ADD DUP5 PUSH2 0x4997 JUMP JUMPDEST DUP6 DUP4 SUB PUSH2 0x120 DUP8 ADD MSTORE PUSH2 0x4B90 DUP4 DUP3 DUP5 PUSH2 0x4A09 JUMP JUMPDEST SWAP3 POP POP POP DUP1 SWAP2 POP POP SWAP3 SWAP2 POP POP JUMP JUMPDEST PUSH0 PUSH2 0x4BA9 DUP4 DUP4 PUSH2 0x4A5A JUMP JUMPDEST SWAP1 POP SWAP3 SWAP2 POP POP JUMP JUMPDEST PUSH0 DUP3 CALLDATALOAD PUSH1 0x1 PUSH2 0x140 SUB DUP4 CALLDATASIZE SUB SUB DUP2 SLT PUSH2 0x4BCD JUMPI PUSH2 0x4BCC PUSH2 0x4993 JUMP JUMPDEST JUMPDEST DUP3 DUP2 ADD SWAP2 POP POP SWAP3 SWAP2 POP POP JUMP JUMPDEST PUSH0 PUSH1 0x20 DUP3 ADD SWAP1 POP SWAP2 SWAP1 POP JUMP JUMPDEST PUSH0 PUSH2 0x4BF0 DUP4 DUP6 PUSH2 0x4912 JUMP JUMPDEST SWAP4 POP DUP4 PUSH1 0x20 DUP5 MUL DUP6 ADD PUSH2 0x4C02 DUP5 PUSH2 0x4922 JUMP JUMPDEST DUP1 PUSH0 JUMPDEST DUP8 DUP2 LT ISZERO PUSH2 0x4C45 JUMPI DUP5 DUP5 SUB DUP10 MSTORE PUSH2 0x4C1C DUP3 DUP5 PUSH2 0x4BB1 JUMP JUMPDEST PUSH2 0x4C26 DUP6 DUP3 PUSH2 0x4B9E JUMP JUMPDEST SWAP5 POP PUSH2 0x4C31 DUP4 PUSH2 0x4BD9 JUMP JUMPDEST SWAP3 POP PUSH1 0x20 DUP11 ADD SWAP10 POP POP PUSH1 0x1 DUP2 ADD SWAP1 POP PUSH2 0x4C05 JUMP JUMPDEST POP DUP3 SWAP8 POP DUP8 SWAP5 POP POP POP POP POP SWAP4 SWAP3 POP POP POP JUMP JUMPDEST PUSH0 DUP3 DUP3 MSTORE PUSH1 0x20 DUP3 ADD SWAP1 POP SWAP3 SWAP2 POP POP JUMP JUMPDEST PUSH0 PUSH2 0x4C72 DUP4 DUP6 PUSH2 0x4C57 JUMP JUMPDEST SWAP4 POP PUSH2 0x4C7F DUP4 DUP6 DUP5 PUSH2 0x3F36 JUMP JUMPDEST PUSH2 0x4C88 DUP4 PUSH2 0x3E7E JUMP JUMPDEST DUP5 ADD SWAP1 POP SWAP4 SWAP3 POP POP POP JUMP JUMPDEST PUSH0 PUSH1 0x40 DUP3 ADD SWAP1 POP DUP2 DUP2 SUB PUSH0 DUP4 ADD MSTORE PUSH2 0x4CAC DUP2 DUP7 DUP9 PUSH2 0x4BE5 JUMP JUMPDEST SWAP1 POP DUP2 DUP2 SUB PUSH1 0x20 DUP4 ADD MSTORE PUSH2 0x4CC1 DUP2 DUP5 DUP7 PUSH2 0x4C67 JUMP JUMPDEST SWAP1 POP SWAP6 SWAP5 POP POP POP POP POP JUMP JUMPDEST PUSH2 0x4CD5 DUP2 PUSH2 0x3906 JUMP JUMPDEST DUP3 MSTORE POP POP JUMP JUMPDEST PUSH0 PUSH1 0x20 DUP3 ADD SWAP1 POP PUSH2 0x4CEE PUSH0 DUP4 ADD DUP5 PUSH2 0x4CCC JUMP JUMPDEST SWAP3 SWAP2 POP POP JUMP JUMPDEST PUSH0 PUSH1 0x60 DUP3 ADD SWAP1 POP PUSH2 0x4D07 PUSH0 DUP4 ADD DUP7 PUSH2 0x3D55 JUMP JUMPDEST PUSH2 0x4D14 PUSH1 0x20 DUP4 ADD DUP6 PUSH2 0x4CCC JUMP JUMPDEST PUSH2 0x4D21 PUSH1 0x40 DUP4 ADD DUP5 PUSH2 0x3988 JUMP JUMPDEST SWAP5 SWAP4 POP POP POP POP JUMP JUMPDEST PUSH0 PUSH2 0x4D34 DUP4 DUP6 PUSH2 0x46B7 JUMP JUMPDEST SWAP4 POP PUSH2 0x4D41 DUP4 DUP6 DUP5 PUSH2 0x3F36 JUMP JUMPDEST DUP3 DUP5 ADD SWAP1 POP SWAP4 SWAP3 POP POP POP JUMP JUMPDEST PUSH0 PUSH2 0x4D59 DUP3 DUP5 DUP7 PUSH2 0x4D29 JUMP JUMPDEST SWAP2 POP DUP2 SWAP1 POP SWAP4 SWAP3 POP POP POP JUMP JUMPDEST PUSH0 DUP2 MLOAD SWAP1 POP SWAP2 SWAP1 POP JUMP JUMPDEST DUP3 DUP2 DUP4 MCOPY PUSH0 DUP4 DUP4 ADD MSTORE POP POP POP JUMP JUMPDEST PUSH0 PUSH2 0x4D87 DUP3 PUSH2 0x4D65 JUMP JUMPDEST PUSH2 0x4D91 DUP2 DUP6 PUSH2 0x4C57 JUMP JUMPDEST SWAP4 POP PUSH2 0x4DA1 DUP2 DUP6 PUSH1 0x20 DUP7 ADD PUSH2 0x4D6F JUMP JUMPDEST PUSH2 0x4DAA DUP2 PUSH2 0x3E7E JUMP JUMPDEST DUP5 ADD SWAP2 POP POP SWAP3 SWAP2 POP POP JUMP JUMPDEST PUSH0 PUSH1 0x40 DUP3 ADD SWAP1 POP PUSH2 0x4DC8 PUSH0 DUP4 ADD DUP6 PUSH2 0x37E3 JUMP JUMPDEST DUP2 DUP2 SUB PUSH1 0x20 DUP4 ADD MSTORE PUSH2 0x4DDA DUP2 DUP5 PUSH2 0x4D7D JUMP JUMPDEST SWAP1 POP SWAP4 SWAP3 POP POP POP JUMP JUMPDEST PUSH0 PUSH1 0x20 DUP3 ADD SWAP1 POP DUP2 DUP2 SUB PUSH0 DUP4 ADD MSTORE PUSH2 0x4DFC DUP2 DUP5 DUP7 PUSH2 0x4C67 JUMP JUMPDEST SWAP1 POP SWAP4 SWAP3 POP POP POP JUMP JUMPDEST PUSH0 DUP2 MLOAD SWAP1 POP PUSH2 0x4E13 DUP2 PUSH2 0x3917 JUMP JUMPDEST SWAP3 SWAP2 POP POP JUMP JUMPDEST PUSH0 PUSH1 0x20 DUP3 DUP5 SUB SLT ISZERO PUSH2 0x4E2E JUMPI PUSH2 0x4E2D PUSH2 0x3750 JUMP JUMPDEST JUMPDEST PUSH0 PUSH2 0x4E3B DUP5 DUP3 DUP6 ADD PUSH2 0x4E05 JUMP JUMPDEST SWAP2 POP POP SWAP3 SWAP2 POP POP JUMP JUMPDEST PUSH32 0x4E487B7100000000000000000000000000000000000000000000000000000000 PUSH0 MSTORE PUSH1 0x12 PUSH1 0x4 MSTORE PUSH1 0x24 PUSH0 REVERT JUMPDEST PUSH0 PUSH1 0x40 DUP3 ADD SWAP1 POP PUSH2 0x4E84 PUSH0 DUP4 ADD DUP6 PUSH2 0x3988 JUMP JUMPDEST DUP2 DUP2 SUB PUSH1 0x20 DUP4 ADD MSTORE PUSH2 0x4E96 DUP2 DUP5 PUSH2 0x4D7D JUMP JUMPDEST SWAP1 POP SWAP4 SWAP3 POP POP POP JUMP JUMPDEST PUSH32 0x6E6F74207374616B656400000000000000000000000000000000000000000000 PUSH0 DUP3 ADD MSTORE POP JUMP JUMPDEST PUSH0 PUSH2 0x4ED3 PUSH1 0xA DUP4 PUSH2 0x42EC JUMP JUMPDEST SWAP2 POP PUSH2 0x4EDE DUP3 PUSH2 0x4E9F JUMP JUMPDEST PUSH1 0x20 DUP3 ADD SWAP1 POP SWAP2 SWAP1 POP JUMP JUMPDEST PUSH0 PUSH1 0x20 DUP3 ADD SWAP1 POP DUP2 DUP2 SUB PUSH0 DUP4 ADD MSTORE PUSH2 0x4F00 DUP2 PUSH2 0x4EC7 JUMP JUMPDEST SWAP1 POP SWAP2 SWAP1 POP JUMP JUMPDEST PUSH32 0x616C726561647920756E7374616B696E67000000000000000000000000000000 PUSH0 DUP3 ADD MSTORE POP JUMP JUMPDEST PUSH0 PUSH2 0x4F3B PUSH1 0x11 DUP4 PUSH2 0x42EC JUMP JUMPDEST SWAP2 POP PUSH2 0x4F46 DUP3 PUSH2 0x4F07 JUMP JUMPDEST PUSH1 0x20 DUP3 ADD SWAP1 POP SWAP2 SWAP1 POP JUMP JUMPDEST PUSH0 PUSH1 0x20 DUP3 ADD SWAP1 POP DUP2 DUP2 SUB PUSH0 DUP4 ADD MSTORE PUSH2 0x4F68 DUP2 PUSH2 0x4F2F JUMP JUMPDEST SWAP1 POP SWAP2 SWAP1 POP JUMP JUMPDEST PUSH0 PUSH2 0x4F79 DUP3 PUSH2 0x3B91 JUMP JUMPDEST SWAP2 POP PUSH2 0x4F84 DUP4 PUSH2 0x3B91 JUMP JUMPDEST SWAP3 POP DUP3 DUP3 ADD SWAP1 POP PUSH6 0xFFFFFFFFFFFF DUP2 GT ISZERO PUSH2 0x4FA2 JUMPI PUSH2 0x4FA1 PUSH2 0x43CC JUMP JUMPDEST JUMPDEST SWAP3 SWAP2 POP POP JUMP JUMPDEST PUSH0 PUSH2 0x4FC2 PUSH2 0x4FBD PUSH2 0x4FB8 DUP5 PUSH2 0x3B91 JUMP JUMPDEST PUSH2 0x44FC JUMP JUMPDEST PUSH2 0x397F JUMP JUMPDEST SWAP1 POP SWAP2 SWAP1 POP JUMP JUMPDEST PUSH2 0x4FD2 DUP2 PUSH2 0x4FA8 JUMP JUMPDEST DUP3 MSTORE POP POP JUMP JUMPDEST PUSH0 PUSH1 0x20 DUP3 ADD SWAP1 POP PUSH2 0x4FEB PUSH0 DUP4 ADD DUP5 PUSH2 0x4FC9 JUMP JUMPDEST SWAP3 SWAP2 POP POP JUMP JUMPDEST PUSH32 0x4E6F207374616B6520746F207769746864726177000000000000000000000000 PUSH0 DUP3 ADD MSTORE POP JUMP JUMPDEST PUSH0 PUSH2 0x5025 PUSH1 0x14 DUP4 PUSH2 0x42EC JUMP JUMPDEST SWAP2 POP PUSH2 0x5030 DUP3 PUSH2 0x4FF1 JUMP JUMPDEST PUSH1 0x20 DUP3 ADD SWAP1 POP SWAP2 SWAP1 POP JUMP JUMPDEST PUSH0 PUSH1 0x20 DUP3 ADD SWAP1 POP DUP2 DUP2 SUB PUSH0 DUP4 ADD MSTORE PUSH2 0x5052 DUP2 PUSH2 0x5019 JUMP JUMPDEST SWAP1 POP SWAP2 SWAP1 POP JUMP JUMPDEST PUSH32 0x6D7573742063616C6C20756E6C6F636B5374616B652829206669727374000000 PUSH0 DUP3 ADD MSTORE POP JUMP JUMPDEST PUSH0 PUSH2 0x508D PUSH1 0x1D DUP4 PUSH2 0x42EC JUMP JUMPDEST SWAP2 POP PUSH2 0x5098 DUP3 PUSH2 0x5059 JUMP JUMPDEST PUSH1 0x20 DUP3 ADD SWAP1 POP SWAP2 SWAP1 POP JUMP JUMPDEST PUSH0 PUSH1 0x20 DUP3 ADD SWAP1 POP DUP2 DUP2 SUB PUSH0 DUP4 ADD MSTORE PUSH2 0x50BA DUP2 PUSH2 0x5081 JUMP JUMPDEST SWAP1 POP SWAP2 SWAP1 POP JUMP JUMPDEST PUSH32 0x5374616B65207769746864726177616C206973206E6F74206475650000000000 PUSH0 DUP3 ADD MSTORE POP JUMP JUMPDEST PUSH0 PUSH2 0x50F5 PUSH1 0x1B DUP4 PUSH2 0x42EC JUMP JUMPDEST SWAP2 POP PUSH2 0x5100 DUP3 PUSH2 0x50C1 JUMP JUMPDEST PUSH1 0x20 DUP3 ADD SWAP1 POP SWAP2 SWAP1 POP JUMP JUMPDEST PUSH0 PUSH1 0x20 DUP3 ADD SWAP1 POP DUP2 DUP2 SUB PUSH0 DUP4 ADD MSTORE PUSH2 0x5122 DUP2 PUSH2 0x50E9 JUMP JUMPDEST SWAP1 POP SWAP2 SWAP1 POP JUMP JUMPDEST PUSH32 0x6661696C656420746F207769746864726177207374616B650000000000000000 PUSH0 DUP3 ADD MSTORE POP JUMP JUMPDEST PUSH0 PUSH2 0x515D PUSH1 0x18 DUP4 PUSH2 0x42EC JUMP JUMPDEST SWAP2 POP PUSH2 0x5168 DUP3 PUSH2 0x5129 JUMP JUMPDEST PUSH1 0x20 DUP3 ADD SWAP1 POP SWAP2 SWAP1 POP JUMP JUMPDEST PUSH0 PUSH1 0x20 DUP3 ADD SWAP1 POP DUP2 DUP2 SUB PUSH0 DUP4 ADD MSTORE PUSH2 0x518A DUP2 PUSH2 0x5151 JUMP JUMPDEST SWAP1 POP SWAP2 SWAP1 POP JUMP JUMPDEST PUSH32 0x4141323520696E76616C6964206163636F756E74206E6F6E6365000000000000 PUSH0 DUP3 ADD MSTORE POP JUMP JUMPDEST PUSH0 PUSH2 0x51C5 PUSH1 0x1A DUP4 PUSH2 0x42EC JUMP JUMPDEST SWAP2 POP PUSH2 0x51D0 DUP3 PUSH2 0x5191 JUMP JUMPDEST PUSH1 0x20 DUP3 ADD SWAP1 POP SWAP2 SWAP1 POP JUMP JUMPDEST PUSH0 PUSH1 0x40 DUP3 ADD SWAP1 POP PUSH2 0x51EE PUSH0 DUP4 ADD DUP5 PUSH2 0x3988 JUMP JUMPDEST DUP2 DUP2 SUB PUSH1 0x20 DUP4 ADD MSTORE PUSH2 0x51FF DUP2 PUSH2 0x51B9 JUMP JUMPDEST SWAP1 POP SWAP3 SWAP2 POP POP JUMP JUMPDEST PUSH32 0x41413236206F76657220766572696669636174696F6E4761734C696D69740000 PUSH0 DUP3 ADD MSTORE POP JUMP JUMPDEST PUSH0 PUSH2 0x523B PUSH1 0x1E DUP4 PUSH2 0x42EC JUMP JUMPDEST SWAP2 POP PUSH2 0x5246 DUP3 PUSH2 0x5207 JUMP JUMPDEST PUSH1 0x20 DUP3 ADD SWAP1 POP SWAP2 SWAP1 POP JUMP JUMPDEST PUSH0 PUSH1 0x40 DUP3 ADD SWAP1 POP PUSH2 0x5264 PUSH0 DUP4 ADD DUP5 PUSH2 0x3988 JUMP JUMPDEST DUP2 DUP2 SUB PUSH1 0x20 DUP4 ADD MSTORE PUSH2 0x5275 DUP2 PUSH2 0x522F JUMP JUMPDEST SWAP1 POP SWAP3 SWAP2 POP POP JUMP JUMPDEST PUSH32 0x41413234207369676E6174757265206572726F72000000000000000000000000 PUSH0 DUP3 ADD MSTORE POP JUMP JUMPDEST PUSH0 PUSH2 0x52B1 PUSH1 0x14 DUP4 PUSH2 0x42EC JUMP JUMPDEST SWAP2 POP PUSH2 0x52BC DUP3 PUSH2 0x527D JUMP JUMPDEST PUSH1 0x20 DUP3 ADD SWAP1 POP SWAP2 SWAP1 POP JUMP JUMPDEST PUSH0 PUSH1 0x40 DUP3 ADD SWAP1 POP PUSH2 0x52DA PUSH0 DUP4 ADD DUP5 PUSH2 0x3988 JUMP JUMPDEST DUP2 DUP2 SUB PUSH1 0x20 DUP4 ADD MSTORE PUSH2 0x52EB DUP2 PUSH2 0x52A5 JUMP JUMPDEST SWAP1 POP SWAP3 SWAP2 POP POP JUMP JUMPDEST PUSH32 0x414132322065787069726564206F72206E6F7420647565000000000000000000 PUSH0 DUP3 ADD MSTORE POP JUMP JUMPDEST PUSH0 PUSH2 0x5327 PUSH1 0x17 DUP4 PUSH2 0x42EC JUMP JUMPDEST SWAP2 POP PUSH2 0x5332 DUP3 PUSH2 0x52F3 JUMP JUMPDEST PUSH1 0x20 DUP3 ADD SWAP1 POP SWAP2 SWAP1 POP JUMP JUMPDEST PUSH0 PUSH1 0x40 DUP3 ADD SWAP1 POP PUSH2 0x5350 PUSH0 DUP4 ADD DUP5 PUSH2 0x3988 JUMP JUMPDEST DUP2 DUP2 SUB PUSH1 0x20 DUP4 ADD MSTORE PUSH2 0x5361 DUP2 PUSH2 0x531B JUMP JUMPDEST SWAP1 POP SWAP3 SWAP2 POP POP JUMP JUMPDEST PUSH32 0x41413334207369676E6174757265206572726F72000000000000000000000000 PUSH0 DUP3 ADD MSTORE POP JUMP JUMPDEST PUSH0 PUSH2 0x539D PUSH1 0x14 DUP4 PUSH2 0x42EC JUMP JUMPDEST SWAP2 POP PUSH2 0x53A8 DUP3 PUSH2 0x5369 JUMP JUMPDEST PUSH1 0x20 DUP3 ADD SWAP1 POP SWAP2 SWAP1 POP JUMP JUMPDEST PUSH0 PUSH1 0x40 DUP3 ADD SWAP1 POP PUSH2 0x53C6 PUSH0 DUP4 ADD DUP5 PUSH2 0x3988 JUMP JUMPDEST DUP2 DUP2 SUB PUSH1 0x20 DUP4 ADD MSTORE PUSH2 0x53D7 DUP2 PUSH2 0x5391 JUMP JUMPDEST SWAP1 POP SWAP3 SWAP2 POP POP JUMP JUMPDEST PUSH32 0x41413332207061796D61737465722065787069726564206F72206E6F74206475 PUSH0 DUP3 ADD MSTORE PUSH32 0x6500000000000000000000000000000000000000000000000000000000000000 PUSH1 0x20 DUP3 ADD MSTORE POP JUMP JUMPDEST PUSH0 PUSH2 0x5439 PUSH1 0x21 DUP4 PUSH2 0x42EC JUMP JUMPDEST SWAP2 POP PUSH2 0x5444 DUP3 PUSH2 0x53DF JUMP JUMPDEST PUSH1 0x40 DUP3 ADD SWAP1 POP SWAP2 SWAP1 POP JUMP JUMPDEST PUSH0 PUSH1 0x40 DUP3 ADD SWAP1 POP PUSH2 0x5462 PUSH0 DUP4 ADD DUP5 PUSH2 0x3988 JUMP JUMPDEST DUP2 DUP2 SUB PUSH1 0x20 DUP4 ADD MSTORE PUSH2 0x5473 DUP2 PUSH2 0x542D JUMP JUMPDEST SWAP1 POP SWAP3 SWAP2 POP POP JUMP JUMPDEST PUSH0 PUSH2 0x140 DUP4 ADD PUSH2 0x548D PUSH0 DUP5 ADD DUP5 PUSH2 0x492B JUMP JUMPDEST PUSH2 0x5499 PUSH0 DUP7 ADD DUP3 PUSH2 0x4941 JUMP JUMPDEST POP PUSH2 0x54A7 PUSH1 0x20 DUP5 ADD DUP5 PUSH2 0x4950 JUMP JUMPDEST PUSH2 0x54B4 PUSH1 0x20 DUP7 ADD DUP3 PUSH2 0x3B3C JUMP JUMPDEST POP PUSH2 0x54C2 PUSH1 0x40 DUP5 ADD DUP5 PUSH2 0x4966 JUMP JUMPDEST PUSH2 0x54CF PUSH1 0x40 DUP7 ADD DUP3 PUSH2 0x497C JUMP JUMPDEST POP PUSH2 0x54DD PUSH1 0x60 DUP5 ADD DUP5 PUSH2 0x4997 JUMP JUMPDEST DUP6 DUP4 SUB PUSH1 0x60 DUP8 ADD MSTORE PUSH2 0x54F0 DUP4 DUP3 DUP5 PUSH2 0x4A09 JUMP JUMPDEST SWAP3 POP POP POP PUSH2 0x5501 PUSH1 0x80 DUP5 ADD DUP5 PUSH2 0x4997 JUMP JUMPDEST DUP6 DUP4 SUB PUSH1 0x80 DUP8 ADD MSTORE PUSH2 0x5514 DUP4 DUP3 DUP5 PUSH2 0x4A09 JUMP JUMPDEST SWAP3 POP POP POP PUSH2 0x5525 PUSH1 0xA0 DUP5 ADD DUP5 PUSH2 0x4A35 JUMP JUMPDEST PUSH2 0x5532 PUSH1 0xA0 DUP7 ADD DUP3 PUSH2 0x4A4B JUMP JUMPDEST POP PUSH2 0x5540 PUSH1 0xC0 DUP5 ADD DUP5 PUSH2 0x4950 JUMP JUMPDEST PUSH2 0x554D PUSH1 0xC0 DUP7 ADD DUP3 PUSH2 0x3B3C JUMP JUMPDEST POP PUSH2 0x555B PUSH1 0xE0 DUP5 ADD DUP5 PUSH2 0x4A35 JUMP JUMPDEST PUSH2 0x5568 PUSH1 0xE0 DUP7 ADD DUP3 PUSH2 0x4A4B JUMP JUMPDEST POP PUSH2 0x5577 PUSH2 0x100 DUP5 ADD DUP5 PUSH2 0x4997 JUMP JUMPDEST DUP6 DUP4 SUB PUSH2 0x100 DUP8 ADD MSTORE PUSH2 0x558B DUP4 DUP3 DUP5 PUSH2 0x4A09 JUMP JUMPDEST SWAP3 POP POP POP PUSH2 0x559D PUSH2 0x120 DUP5 ADD DUP5 PUSH2 0x4997 JUMP JUMPDEST DUP6 DUP4 SUB PUSH2 0x120 DUP8 ADD MSTORE PUSH2 0x55B1 DUP4 DUP3 DUP5 PUSH2 0x4A09 JUMP JUMPDEST SWAP3 POP POP POP DUP1 SWAP2 POP POP SWAP3 SWAP2 POP POP JUMP JUMPDEST PUSH0 PUSH1 0x40 DUP3 ADD SWAP1 POP DUP2 DUP2 SUB PUSH0 DUP4 ADD MSTORE PUSH2 0x55D7 DUP2 DUP6 PUSH2 0x547B JUMP JUMPDEST SWAP1 POP PUSH2 0x55E6 PUSH1 0x20 DUP4 ADD DUP5 PUSH2 0x3D55 JUMP JUMPDEST SWAP4 SWAP3 POP POP POP JUMP JUMPDEST PUSH2 0x160 DUP3 ADD PUSH0 DUP3 ADD MLOAD PUSH2 0x5602 PUSH0 DUP6 ADD DUP3 PUSH2 0x4941 JUMP JUMPDEST POP PUSH1 0x20 DUP3 ADD MLOAD PUSH2 0x5615 PUSH1 0x20 DUP6 ADD DUP3 PUSH2 0x3B3C JUMP JUMPDEST POP PUSH1 0x40 DUP3 ADD MLOAD PUSH2 0x5628 PUSH1 0x40 DUP6 ADD DUP3 PUSH2 0x497C JUMP JUMPDEST POP PUSH1 0x60 DUP3 ADD MLOAD PUSH2 0x563B PUSH1 0x60 DUP6 ADD DUP3 PUSH2 0x3B3C JUMP JUMPDEST POP PUSH1 0x80 DUP3 ADD MLOAD PUSH2 0x564E PUSH1 0x80 DUP6 ADD DUP3 PUSH2 0x3B3C JUMP JUMPDEST POP PUSH1 0xA0 DUP3 ADD MLOAD PUSH2 0x5661 PUSH1 0xA0 DUP6 ADD DUP3 PUSH2 0x3B3C JUMP JUMPDEST POP PUSH1 0xC0 DUP3 ADD MLOAD PUSH2 0x5674 PUSH1 0xC0 DUP6 ADD DUP3 PUSH2 0x3B3C JUMP JUMPDEST POP PUSH1 0xE0 DUP3 ADD MLOAD PUSH2 0x5687 PUSH1 0xE0 DUP6 ADD DUP3 PUSH2 0x3B3C JUMP JUMPDEST POP PUSH2 0x100 DUP3 ADD MLOAD PUSH2 0x569C PUSH2 0x100 DUP6 ADD DUP3 PUSH2 0x4941 JUMP JUMPDEST POP PUSH2 0x120 DUP3 ADD MLOAD PUSH2 0x56B1 PUSH2 0x120 DUP6 ADD DUP3 PUSH2 0x3B3C JUMP JUMPDEST POP PUSH2 0x140 DUP3 ADD MLOAD PUSH2 0x56C6 PUSH2 0x140 DUP6 ADD DUP3 PUSH2 0x3B3C JUMP JUMPDEST POP POP POP POP JUMP JUMPDEST PUSH2 0x1E0 DUP3 ADD PUSH0 DUP3 ADD MLOAD PUSH2 0x56E1 PUSH0 DUP6 ADD DUP3 PUSH2 0x55ED JUMP JUMPDEST POP PUSH1 0x20 DUP3 ADD MLOAD PUSH2 0x56F5 PUSH2 0x160 DUP6 ADD DUP3 PUSH2 0x4A4B JUMP JUMPDEST POP PUSH1 0x40 DUP3 ADD MLOAD PUSH2 0x5709 PUSH2 0x180 DUP6 ADD DUP3 PUSH2 0x3B3C JUMP JUMPDEST POP PUSH1 0x60 DUP3 ADD MLOAD PUSH2 0x571D PUSH2 0x1A0 DUP6 ADD DUP3 PUSH2 0x3B3C JUMP JUMPDEST POP PUSH1 0x80 DUP3 ADD MLOAD PUSH2 0x5731 PUSH2 0x1C0 DUP6 ADD DUP3 PUSH2 0x3B3C JUMP JUMPDEST POP POP POP POP JUMP JUMPDEST PUSH0 PUSH2 0x220 DUP3 ADD SWAP1 POP DUP2 DUP2 SUB PUSH0 DUP4 ADD MSTORE PUSH2 0x5750 DUP2 DUP7 PUSH2 0x4D7D JUMP JUMPDEST SWAP1 POP PUSH2 0x575F PUSH1 0x20 DUP4 ADD DUP6 PUSH2 0x56CC JUMP JUMPDEST DUP2 DUP2 SUB PUSH2 0x200 DUP4 ADD MSTORE PUSH2 0x5772 DUP2 DUP5 PUSH2 0x4D7D JUMP JUMPDEST SWAP1 POP SWAP5 SWAP4 POP POP POP POP JUMP JUMPDEST PUSH0 PUSH2 0x220 DUP3 ADD SWAP1 POP DUP2 DUP2 SUB PUSH0 DUP4 ADD MSTORE PUSH2 0x5796 DUP2 DUP7 DUP9 PUSH2 0x4C67 JUMP JUMPDEST SWAP1 POP PUSH2 0x57A5 PUSH1 0x20 DUP4 ADD DUP6 PUSH2 0x56CC JUMP JUMPDEST DUP2 DUP2 SUB PUSH2 0x200 DUP4 ADD MSTORE PUSH2 0x57B8 DUP2 DUP5 PUSH2 0x4D7D JUMP JUMPDEST SWAP1 POP SWAP6 SWAP5 POP POP POP POP POP JUMP JUMPDEST PUSH32 0x41413935206F7574206F66206761730000000000000000000000000000000000 PUSH0 DUP3 ADD MSTORE POP JUMP JUMPDEST PUSH0 PUSH2 0x57F7 PUSH1 0xF DUP4 PUSH2 0x42EC JUMP JUMPDEST SWAP2 POP PUSH2 0x5802 DUP3 PUSH2 0x57C3 JUMP JUMPDEST PUSH1 0x20 DUP3 ADD SWAP1 POP SWAP2 SWAP1 POP JUMP JUMPDEST PUSH0 PUSH1 0x40 DUP3 ADD SWAP1 POP PUSH2 0x5820 PUSH0 DUP4 ADD DUP5 PUSH2 0x3988 JUMP JUMPDEST DUP2 DUP2 SUB PUSH1 0x20 DUP4 ADD MSTORE PUSH2 0x5831 DUP2 PUSH2 0x57EB JUMP JUMPDEST SWAP1 POP SWAP3 SWAP2 POP POP JUMP JUMPDEST PUSH32 0x4E487B7100000000000000000000000000000000000000000000000000000000 PUSH0 MSTORE PUSH1 0x21 PUSH1 0x4 MSTORE PUSH1 0x24 PUSH0 REVERT JUMPDEST PUSH1 0x3 DUP2 LT PUSH2 0x5877 JUMPI PUSH2 0x5876 PUSH2 0x5839 JUMP JUMPDEST JUMPDEST POP JUMP JUMPDEST PUSH0 DUP2 SWAP1 POP PUSH2 0x5887 DUP3 PUSH2 0x5866 JUMP JUMPDEST SWAP2 SWAP1 POP JUMP JUMPDEST PUSH0 PUSH2 0x5896 DUP3 PUSH2 0x587A JUMP JUMPDEST SWAP1 POP SWAP2 SWAP1 POP JUMP JUMPDEST PUSH2 0x58A6 DUP2 PUSH2 0x588C JUMP JUMPDEST DUP3 MSTORE POP POP JUMP JUMPDEST PUSH0 PUSH1 0x80 DUP3 ADD SWAP1 POP PUSH2 0x58BF PUSH0 DUP4 ADD DUP8 PUSH2 0x589D JUMP JUMPDEST DUP2 DUP2 SUB PUSH1 0x20 DUP4 ADD MSTORE PUSH2 0x58D1 DUP2 DUP7 PUSH2 0x4D7D JUMP JUMPDEST SWAP1 POP PUSH2 0x58E0 PUSH1 0x40 DUP4 ADD DUP6 PUSH2 0x3988 JUMP JUMPDEST PUSH2 0x58ED PUSH1 0x60 DUP4 ADD DUP5 PUSH2 0x3988 JUMP JUMPDEST SWAP6 SWAP5 POP POP POP POP POP JUMP JUMPDEST PUSH0 PUSH1 0x20 DUP3 ADD SWAP1 POP DUP2 DUP2 SUB PUSH0 DUP4 ADD MSTORE PUSH2 0x590E DUP2 DUP5 PUSH2 0x4D7D JUMP JUMPDEST SWAP1 POP SWAP3 SWAP2 POP POP JUMP JUMPDEST PUSH0 PUSH1 0x60 DUP3 ADD SWAP1 POP DUP2 DUP2 SUB PUSH0 DUP4 ADD MSTORE PUSH2 0x592E DUP2 DUP7 PUSH2 0x547B JUMP JUMPDEST SWAP1 POP PUSH2 0x593D PUSH1 0x20 DUP4 ADD DUP6 PUSH2 0x3D55 JUMP JUMPDEST PUSH2 0x594A PUSH1 0x40 DUP4 ADD DUP5 PUSH2 0x3988 JUMP JUMPDEST SWAP5 SWAP4 POP POP POP POP JUMP JUMPDEST PUSH0 DUP2 MLOAD SWAP1 POP PUSH2 0x5960 DUP2 PUSH2 0x39EB JUMP JUMPDEST SWAP3 SWAP2 POP POP JUMP JUMPDEST PUSH0 PUSH1 0x20 DUP3 DUP5 SUB SLT ISZERO PUSH2 0x597B JUMPI PUSH2 0x597A PUSH2 0x3750 JUMP JUMPDEST JUMPDEST PUSH0 PUSH2 0x5988 DUP5 DUP3 DUP6 ADD PUSH2 0x5952 JUMP JUMPDEST SWAP2 POP POP SWAP3 SWAP2 POP POP JUMP JUMPDEST PUSH32 0x4141323320726576657274656400000000000000000000000000000000000000 PUSH0 DUP3 ADD MSTORE POP JUMP JUMPDEST PUSH0 PUSH2 0x59C5 PUSH1 0xD DUP4 PUSH2 0x42EC JUMP JUMPDEST SWAP2 POP PUSH2 0x59D0 DUP3 PUSH2 0x5991 JUMP JUMPDEST PUSH1 0x20 DUP3 ADD SWAP1 POP SWAP2 SWAP1 POP JUMP JUMPDEST PUSH0 PUSH1 0x60 DUP3 ADD SWAP1 POP PUSH2 0x59EE PUSH0 DUP4 ADD DUP6 PUSH2 0x3988 JUMP JUMPDEST DUP2 DUP2 SUB PUSH1 0x20 DUP4 ADD MSTORE PUSH2 0x59FF DUP2 PUSH2 0x59B9 JUMP JUMPDEST SWAP1 POP DUP2 DUP2 SUB PUSH1 0x40 DUP4 ADD MSTORE PUSH2 0x5A13 DUP2 DUP5 PUSH2 0x4D7D JUMP JUMPDEST SWAP1 POP SWAP4 SWAP3 POP POP POP JUMP JUMPDEST PUSH0 PUSH2 0x5A27 PUSH0 DUP4 PUSH2 0x42EC JUMP JUMPDEST SWAP2 POP PUSH2 0x5A32 DUP3 PUSH2 0x46C1 JUMP JUMPDEST PUSH0 DUP3 ADD SWAP1 POP SWAP2 SWAP1 POP JUMP JUMPDEST PUSH0 PUSH1 0x40 DUP3 ADD SWAP1 POP PUSH2 0x5A4F PUSH0 DUP4 ADD DUP5 PUSH2 0x3988 JUMP JUMPDEST DUP2 DUP2 SUB PUSH1 0x20 DUP4 ADD MSTORE PUSH2 0x5A60 DUP2 PUSH2 0x5A1C JUMP JUMPDEST SWAP1 POP SWAP3 SWAP2 POP POP JUMP JUMPDEST PUSH32 0x41413331207061796D6173746572206465706F73697420746F6F206C6F770000 PUSH0 DUP3 ADD MSTORE POP JUMP JUMPDEST PUSH0 PUSH2 0x5A9C PUSH1 0x1E DUP4 PUSH2 0x42EC JUMP JUMPDEST SWAP2 POP PUSH2 0x5AA7 DUP3 PUSH2 0x5A68 JUMP JUMPDEST PUSH1 0x20 DUP3 ADD SWAP1 POP SWAP2 SWAP1 POP JUMP JUMPDEST PUSH0 PUSH1 0x40 DUP3 ADD SWAP1 POP PUSH2 0x5AC5 PUSH0 DUP4 ADD DUP5 PUSH2 0x3988 JUMP JUMPDEST DUP2 DUP2 SUB PUSH1 0x20 DUP4 ADD MSTORE PUSH2 0x5AD6 DUP2 PUSH2 0x5A90 JUMP JUMPDEST SWAP1 POP SWAP3 SWAP2 POP POP JUMP JUMPDEST PUSH0 PUSH2 0x5AF0 PUSH2 0x5AEB DUP5 PUSH2 0x3F06 JUMP JUMPDEST PUSH2 0x3EEC JUMP JUMPDEST SWAP1 POP DUP3 DUP2 MSTORE PUSH1 0x20 DUP2 ADD DUP5 DUP5 DUP5 ADD GT ISZERO PUSH2 0x5B0C JUMPI PUSH2 0x5B0B PUSH2 0x3E7A JUMP JUMPDEST JUMPDEST PUSH2 0x5B17 DUP5 DUP3 DUP6 PUSH2 0x4D6F JUMP JUMPDEST POP SWAP4 SWAP3 POP POP POP JUMP JUMPDEST PUSH0 DUP3 PUSH1 0x1F DUP4 ADD SLT PUSH2 0x5B33 JUMPI PUSH2 0x5B32 PUSH2 0x3A53 JUMP JUMPDEST JUMPDEST DUP2 MLOAD PUSH2 0x5B43 DUP5 DUP3 PUSH1 0x20 DUP7 ADD PUSH2 0x5ADE JUMP JUMPDEST SWAP2 POP POP SWAP3 SWAP2 POP POP JUMP JUMPDEST PUSH0 PUSH0 PUSH1 0x40 DUP4 DUP6 SUB SLT ISZERO PUSH2 0x5B62 JUMPI PUSH2 0x5B61 PUSH2 0x3750 JUMP JUMPDEST JUMPDEST PUSH0 DUP4 ADD MLOAD PUSH8 0xFFFFFFFFFFFFFFFF DUP2 GT ISZERO PUSH2 0x5B7F JUMPI PUSH2 0x5B7E PUSH2 0x3754 JUMP JUMPDEST JUMPDEST PUSH2 0x5B8B DUP6 DUP3 DUP7 ADD PUSH2 0x5B1F JUMP JUMPDEST SWAP3 POP POP PUSH1 0x20 PUSH2 0x5B9C DUP6 DUP3 DUP7 ADD PUSH2 0x5952 JUMP JUMPDEST SWAP2 POP POP SWAP3 POP SWAP3 SWAP1 POP JUMP JUMPDEST PUSH0 PUSH1 0x60 DUP3 ADD SWAP1 POP PUSH2 0x5BB9 PUSH0 DUP4 ADD DUP6 PUSH2 0x3988 JUMP JUMPDEST DUP2 DUP2 SUB PUSH1 0x20 DUP4 ADD MSTORE PUSH2 0x5BCA DUP2 PUSH2 0x5A1C JUMP JUMPDEST SWAP1 POP DUP2 DUP2 SUB PUSH1 0x40 DUP4 ADD MSTORE PUSH2 0x5BDE DUP2 DUP5 PUSH2 0x4D7D JUMP JUMPDEST SWAP1 POP SWAP4 SWAP3 POP POP POP JUMP JUMPDEST PUSH32 0x41413336206F766572207061796D6173746572566572696669636174696F6E47 PUSH0 DUP3 ADD MSTORE PUSH32 0x61734C696D697400000000000000000000000000000000000000000000000000 PUSH1 0x20 DUP3 ADD MSTORE POP JUMP JUMPDEST PUSH0 PUSH2 0x5C41 PUSH1 0x27 DUP4 PUSH2 0x42EC JUMP JUMPDEST SWAP2 POP PUSH2 0x5C4C DUP3 PUSH2 0x5BE7 JUMP JUMPDEST PUSH1 0x40 DUP3 ADD SWAP1 POP SWAP2 SWAP1 POP JUMP JUMPDEST PUSH0 PUSH1 0x40 DUP3 ADD SWAP1 POP PUSH2 0x5C6A PUSH0 DUP4 ADD DUP5 PUSH2 0x3988 JUMP JUMPDEST DUP2 DUP2 SUB PUSH1 0x20 DUP4 ADD MSTORE PUSH2 0x5C7B DUP2 PUSH2 0x5C35 JUMP JUMPDEST SWAP1 POP SWAP3 SWAP2 POP POP JUMP JUMPDEST PUSH0 PUSH1 0x80 DUP3 ADD SWAP1 POP PUSH2 0x5C96 PUSH0 DUP4 ADD DUP8 PUSH2 0x3988 JUMP JUMPDEST PUSH2 0x5CA3 PUSH1 0x20 DUP4 ADD DUP7 PUSH2 0x37E3 JUMP JUMPDEST PUSH2 0x5CB0 PUSH1 0x40 DUP4 ADD DUP6 PUSH2 0x3988 JUMP JUMPDEST PUSH2 0x5CBD PUSH1 0x60 DUP4 ADD DUP5 PUSH2 0x3988 JUMP JUMPDEST SWAP6 SWAP5 POP POP POP POP POP JUMP JUMPDEST PUSH0 PUSH2 0x100 DUP3 ADD SWAP1 POP PUSH2 0x5CDA PUSH0 DUP4 ADD DUP12 PUSH2 0x4CCC JUMP JUMPDEST PUSH2 0x5CE7 PUSH1 0x20 DUP4 ADD DUP11 PUSH2 0x3988 JUMP JUMPDEST PUSH2 0x5CF4 PUSH1 0x40 DUP4 ADD DUP10 PUSH2 0x3D55 JUMP JUMPDEST PUSH2 0x5D01 PUSH1 0x60 DUP4 ADD DUP9 PUSH2 0x3D55 JUMP JUMPDEST PUSH2 0x5D0E PUSH1 0x80 DUP4 ADD DUP8 PUSH2 0x3D55 JUMP JUMPDEST PUSH2 0x5D1B PUSH1 0xA0 DUP4 ADD DUP7 PUSH2 0x3988 JUMP JUMPDEST PUSH2 0x5D28 PUSH1 0xC0 DUP4 ADD DUP6 PUSH2 0x3D55 JUMP JUMPDEST PUSH2 0x5D35 PUSH1 0xE0 DUP4 ADD DUP5 PUSH2 0x3D55 JUMP JUMPDEST SWAP10 SWAP9 POP POP POP POP POP POP POP POP POP JUMP JUMPDEST PUSH0 PUSH0 REVERT JUMPDEST PUSH0 PUSH0 REVERT JUMPDEST PUSH0 PUSH0 DUP6 DUP6 GT ISZERO PUSH2 0x5D5D JUMPI PUSH2 0x5D5C PUSH2 0x5D42 JUMP JUMPDEST JUMPDEST DUP4 DUP7 GT ISZERO PUSH2 0x5D6E JUMPI PUSH2 0x5D6D PUSH2 0x5D46 JUMP JUMPDEST JUMPDEST PUSH1 0x1 DUP6 MUL DUP4 ADD SWAP2 POP DUP5 DUP7 SUB SWAP1 POP SWAP5 POP SWAP5 SWAP3 POP POP POP JUMP JUMPDEST PUSH0 DUP3 SWAP1 POP SWAP3 SWAP2 POP POP JUMP JUMPDEST PUSH0 PUSH32 0xFFFFFFFFFFFFFFFFFFFFFFFFFFFFFFFFFFFFFFFF000000000000000000000000 DUP3 AND SWAP1 POP SWAP2 SWAP1 POP JUMP JUMPDEST PUSH0 DUP3 DUP3 SHL SWAP1 POP SWAP3 SWAP2 POP POP JUMP JUMPDEST PUSH0 PUSH2 0x5DD0 DUP4 DUP4 PUSH2 0x5D84 JUMP JUMPDEST DUP3 PUSH2 0x5DDB DUP2 CALLDATALOAD PUSH2 0x5D8E JUMP JUMPDEST SWAP3 POP PUSH1 0x14 DUP3 LT ISZERO PUSH2 0x5E1B JUMPI PUSH2 0x5E16 PUSH32 0xFFFFFFFFFFFFFFFFFFFFFFFFFFFFFFFFFFFFFFFF000000000000000000000000 DUP4 PUSH1 0x14 SUB PUSH1 0x8 MUL PUSH2 0x5DB9 JUMP JUMPDEST DUP4 AND SWAP3 POP JUMPDEST POP POP SWAP3 SWAP2 POP POP JUMP JUMPDEST PUSH0 PUSH32 0xFFFFFFFFFFFFFFFFFFFFFFFFFFFFFFFF00000000000000000000000000000000 DUP3 AND SWAP1 POP SWAP2 SWAP1 POP JUMP JUMPDEST PUSH0 PUSH2 0x5E59 DUP4 DUP4 PUSH2 0x5D84 JUMP JUMPDEST DUP3 PUSH2 0x5E64 DUP2 CALLDATALOAD PUSH2 0x5E23 JUMP JUMPDEST SWAP3 POP PUSH1 0x10 DUP3 LT ISZERO PUSH2 0x5EA4 JUMPI PUSH2 0x5E9F PUSH32 0xFFFFFFFFFFFFFFFFFFFFFFFFFFFFFFFF00000000000000000000000000000000 DUP4 PUSH1 0x10 SUB PUSH1 0x8 MUL PUSH2 0x5DB9 JUMP JUMPDEST DUP4 AND SWAP3 POP JUMPDEST POP POP SWAP3 SWAP2 POP POP JUMP JUMPDEST PUSH32 0x414131302073656E64657220616C726561647920636F6E737472756374656400 PUSH0 DUP3 ADD MSTORE POP JUMP JUMPDEST PUSH0 PUSH2 0x5EE0 PUSH1 0x1F DUP4 PUSH2 0x42EC JUMP JUMPDEST SWAP2 POP PUSH2 0x5EEB DUP3 PUSH2 0x5EAC JUMP JUMPDEST PUSH1 0x20 DUP3 ADD SWAP1 POP SWAP2 SWAP1 POP JUMP JUMPDEST PUSH0 PUSH1 0x40 DUP3 ADD SWAP1 POP PUSH2 0x5F09 PUSH0 DUP4 ADD DUP5 PUSH2 0x3988 JUMP JUMPDEST DUP2 DUP2 SUB PUSH1 0x20 DUP4 ADD MSTORE PUSH2 0x5F1A DUP2 PUSH2 0x5ED4 JUMP JUMPDEST SWAP1 POP SWAP3 SWAP2 POP POP JUMP JUMPDEST PUSH0 PUSH1 0x40 DUP3 ADD SWAP1 POP PUSH2 0x5F35 PUSH0 DUP4 ADD DUP6 PUSH2 0x4CCC JUMP JUMPDEST PUSH2 0x5F42 PUSH1 0x20 DUP4 ADD DUP5 PUSH2 0x4CCC JUMP JUMPDEST SWAP4 SWAP3 POP POP POP JUMP INVALID LOG2 PUSH5 0x6970667358 0x22 SLT KECCAK256 RETURNDATASIZE 0x24 MSTORE SWAP1 DUP5 LOG2 0xD6 POP PUSH12 0x7A03C1D70708D138A3A7E6DA 0xCB SWAP10 0xE1 KECCAK256 0xD0 0xB1 0xD9 0xD 0xD7 SWAP10 LT PUSH5 0x736F6C6343 STOP ADDMOD SHR STOP CALLER PUSH1 0x80 PUSH1 0x40 MSTORE CALLVALUE DUP1 ISZERO PUSH1 0xE JUMPI PUSH0 PUSH0 REVERT JUMPDEST POP PUSH2 0x323 DUP1 PUSH2 0x1C PUSH0 CODECOPY PUSH0 RETURN INVALID PUSH1 0x80 PUSH1 0x40 MSTORE CALLVALUE DUP1 ISZERO PUSH2 0xF JUMPI PUSH0 PUSH0 REVERT JUMPDEST POP PUSH1 0x4 CALLDATASIZE LT PUSH2 0x29 JUMPI PUSH0 CALLDATALOAD PUSH1 0xE0 SHR DUP1 PUSH4 0x570E1A36 EQ PUSH2 0x2D JUMPI JUMPDEST PUSH0 PUSH0 REVERT JUMPDEST PUSH2 0x47 PUSH1 0x4 DUP1 CALLDATASIZE SUB DUP2 ADD SWAP1 PUSH2 0x42 SWAP2 SWAP1 PUSH2 0x169 JUMP JUMPDEST PUSH2 0x5D JUMP JUMPDEST PUSH1 0x40 MLOAD PUSH2 0x54 SWAP2 SWAP1 PUSH2 0x1F3 JUMP JUMPDEST PUSH1 0x40 MLOAD DUP1 SWAP2 SUB SWAP1 RETURN JUMPDEST PUSH0 PUSH0 DUP4 DUP4 PUSH0 SWAP1 PUSH1 0x14 SWAP3 PUSH2 0x72 SWAP4 SWAP3 SWAP2 SWAP1 PUSH2 0x214 JUMP JUMPDEST SWAP1 PUSH2 0x7D SWAP2 SWAP1 PUSH2 0x28F JUMP JUMPDEST PUSH1 0x60 SHR SWAP1 POP PUSH0 DUP5 DUP5 PUSH1 0x14 SWAP1 DUP1 SWAP3 PUSH2 0x96 SWAP4 SWAP3 SWAP2 SWAP1 PUSH2 0x214 JUMP JUMPDEST DUP1 DUP1 PUSH1 0x1F ADD PUSH1 0x20 DUP1 SWAP2 DIV MUL PUSH1 0x20 ADD PUSH1 0x40 MLOAD SWAP1 DUP2 ADD PUSH1 0x40 MSTORE DUP1 SWAP4 SWAP3 SWAP2 SWAP1 DUP2 DUP2 MSTORE PUSH1 0x20 ADD DUP4 DUP4 DUP1 DUP3 DUP5 CALLDATACOPY PUSH0 DUP2 DUP5 ADD MSTORE PUSH1 0x1F NOT PUSH1 0x1F DUP3 ADD AND SWAP1 POP DUP1 DUP4 ADD SWAP3 POP POP POP POP POP POP POP SWAP1 POP PUSH0 PUSH1 0x20 PUSH0 DUP4 MLOAD PUSH1 0x20 DUP6 ADD PUSH0 DUP8 GAS CALL SWAP1 POP PUSH0 MLOAD SWAP4 POP DUP1 PUSH2 0xF7 JUMPI PUSH0 SWAP4 POP JUMPDEST POP POP POP SWAP3 SWAP2 POP POP JUMP JUMPDEST PUSH0 PUSH0 REVERT JUMPDEST PUSH0 PUSH0 REVERT JUMPDEST PUSH0 PUSH0 REVERT JUMPDEST PUSH0 PUSH0 REVERT JUMPDEST PUSH0 PUSH0 REVERT JUMPDEST PUSH0 PUSH0 DUP4 PUSH1 0x1F DUP5 ADD SLT PUSH2 0x129 JUMPI PUSH2 0x128 PUSH2 0x108 JUMP JUMPDEST JUMPDEST DUP3 CALLDATALOAD SWAP1 POP PUSH8 0xFFFFFFFFFFFFFFFF DUP2 GT ISZERO PUSH2 0x146 JUMPI PUSH2 0x145 PUSH2 0x10C JUMP JUMPDEST JUMPDEST PUSH1 0x20 DUP4 ADD SWAP2 POP DUP4 PUSH1 0x1 DUP3 MUL DUP4 ADD GT ISZERO PUSH2 0x162 JUMPI PUSH2 0x161 PUSH2 0x110 JUMP JUMPDEST JUMPDEST SWAP3 POP SWAP3 SWAP1 POP JUMP JUMPDEST PUSH0 PUSH0 PUSH1 0x20 DUP4 DUP6 SUB SLT ISZERO PUSH2 0x17F JUMPI PUSH2 0x17E PUSH2 0x100 JUMP JUMPDEST JUMPDEST PUSH0 DUP4 ADD CALLDATALOAD PUSH8 0xFFFFFFFFFFFFFFFF DUP2 GT ISZERO PUSH2 0x19C JUMPI PUSH2 0x19B PUSH2 0x104 JUMP JUMPDEST JUMPDEST PUSH2 0x1A8 DUP6 DUP3 DUP7 ADD PUSH2 0x114 JUMP JUMPDEST SWAP3 POP SWAP3 POP POP SWAP3 POP SWAP3 SWAP1 POP JUMP JUMPDEST PUSH0 PUSH20 0xFFFFFFFFFFFFFFFFFFFFFFFFFFFFFFFFFFFFFFFF DUP3 AND SWAP1 POP SWAP2 SWAP1 POP JUMP JUMPDEST PUSH0 PUSH2 0x1DD DUP3 PUSH2 0x1B4 JUMP JUMPDEST SWAP1 POP SWAP2 SWAP1 POP JUMP JUMPDEST PUSH2 0x1ED DUP2 PUSH2 0x1D3 JUMP JUMPDEST DUP3 MSTORE POP POP JUMP JUMPDEST PUSH0 PUSH1 0x20 DUP3 ADD SWAP1 POP PUSH2 0x206 PUSH0 DUP4 ADD DUP5 PUSH2 0x1E4 JUMP JUMPDEST SWAP3 SWAP2 POP POP JUMP JUMPDEST PUSH0 PUSH0 REVERT JUMPDEST PUSH0 PUSH0 REVERT JUMPDEST PUSH0 PUSH0 DUP6 DUP6 GT ISZERO PUSH2 0x227 JUMPI PUSH2 0x226 PUSH2 0x20C JUMP JUMPDEST JUMPDEST DUP4 DUP7 GT ISZERO PUSH2 0x238 JUMPI PUSH2 0x237 PUSH2 0x210 JUMP JUMPDEST JUMPDEST PUSH1 0x1 DUP6 MUL DUP4 ADD SWAP2 POP DUP5 DUP7 SUB SWAP1 POP SWAP5 POP SWAP5 SWAP3 POP POP POP JUMP JUMPDEST PUSH0 DUP3 SWAP1 POP SWAP3 SWAP2 POP POP JUMP JUMPDEST PUSH0 PUSH32 0xFFFFFFFFFFFFFFFFFFFFFFFFFFFFFFFFFFFFFFFF000000000000000000000000 DUP3 AND SWAP1 POP SWAP2 SWAP1 POP JUMP JUMPDEST PUSH0 DUP3 DUP3 SHL SWAP1 POP SWAP3 SWAP2 POP POP JUMP JUMPDEST PUSH0 PUSH2 0x29A DUP4 DUP4 PUSH2 0x24E JUMP JUMPDEST DUP3 PUSH2 0x2A5 DUP2 CALLDATALOAD PUSH2 0x258 JUMP JUMPDEST SWAP3 POP PUSH1 0x14 DUP3 LT ISZERO PUSH2 0x2E5 JUMPI PUSH2 0x2E0 PUSH32 0xFFFFFFFFFFFFFFFFFFFFFFFFFFFFFFFFFFFFFFFF000000000000000000000000 DUP4 PUSH1 0x14 SUB PUSH1 0x8 MUL PUSH2 0x283 JUMP JUMPDEST DUP4 AND SWAP3 POP JUMPDEST POP POP SWAP3 SWAP2 POP POP JUMP INVALID LOG2 PUSH5 0x6970667358 0x22 SLT KECCAK256 ADDRESS BYTE 0xB8 SMOD PUSH19 0x4A1CED06E4F36441D703BA6DEFF0DBF8924ED2 PREVRANDAO MLOAD 0xED 0xB7 0x23 0x23 0xEB SWAP12 PUSH5 0x736F6C6343 STOP ADDMOD SHR STOP CALLER "
		},
		"gasEstimates": {
			"creation": {
				"codeDepositCost": "4889400",
				"executionCost": "infinite",
				"totalCost": "infinite"
			},
			"external": {
				"addStake(uint32)": "infinite",
				"balanceOf(address)": "2944",
				"delegateAndRevert(address,bytes)": "infinite",
				"depositTo(address)": "infinite",
				"deposits(address)": "12085",
				"getDepositInfo(address)": "12475",
				"getNonce(address,uint192)": "3181",
				"getSenderAddress(bytes)": "infinite",
				"getUserOpHash((address,uint256,uint64,bytes,bytes,bytes32,uint256,bytes32,bytes,bytes))": "infinite",
				"handleAggregatedOps(((address,uint256,uint64,bytes,bytes,bytes32,uint256,bytes32,bytes,bytes)[],address,bytes)[],address)": "infinite",
				"handleOps((address,uint256,uint64,bytes,bytes,bytes32,uint256,bytes32,bytes,bytes)[],address)": "infinite",
				"incrementNonce(uint192)": "25004",
				"innerHandleOp(bytes,((address,uint256,uint64,uint256,uint256,uint256,uint256,uint256,address,uint256,uint256),bytes32,uint256,uint256,uint256),bytes)": "infinite",
				"nonceSequenceNumber(address,uint192)": "3129",
				"supportsInterface(bytes4)": "891",
				"unlockStake()": "infinite",
				"withdrawStake(address)": "infinite",
				"withdrawTo(address,uint256)": "infinite"
			},
			"internal": {
				"_compensate(address payable,uint256)": "infinite",
				"_copyUserOpToMemory(struct PackedUserOperation calldata,struct EntryPoint.MemoryUserOp memory)": "infinite",
				"_createSenderIfNeeded(uint256,struct EntryPoint.UserOpInfo memory,bytes calldata)": "infinite",
				"_executeUserOp(uint256,struct PackedUserOperation calldata,struct EntryPoint.UserOpInfo memory)": "infinite",
				"_getRequiredPrefund(struct EntryPoint.MemoryUserOp memory)": "infinite",
				"_getValidationData(uint256)": "infinite",
				"_postExecution(enum IPaymaster.PostOpMode,struct EntryPoint.UserOpInfo memory,bytes memory,uint256)": "infinite",
				"_validateAccountAndPaymasterValidationData(uint256,uint256,uint256,address)": "infinite",
				"_validateAccountPrepayment(uint256,struct PackedUserOperation calldata,struct EntryPoint.UserOpInfo memory,uint256,uint256)": "infinite",
				"_validatePaymasterPrepayment(uint256,struct PackedUserOperation calldata,struct EntryPoint.UserOpInfo memory,uint256)": "infinite",
				"_validatePrepayment(uint256,struct PackedUserOperation calldata,struct EntryPoint.UserOpInfo memory)": "infinite",
				"emitPrefundTooLow(struct EntryPoint.UserOpInfo memory)": "infinite",
				"emitUserOperationEvent(struct EntryPoint.UserOpInfo memory,bool,uint256,uint256)": "infinite",
				"getMemoryBytesFromOffset(uint256)": "28",
				"getOffsetOfMemoryBytes(bytes memory)": "27",
				"getUserOpGasPrice(struct EntryPoint.MemoryUserOp memory)": "infinite",
				"senderCreator()": "infinite"
			}
		},
		"methodIdentifiers": {
			"addStake(uint32)": "0396cb60",
			"balanceOf(address)": "70a08231",
			"delegateAndRevert(address,bytes)": "850aaf62",
			"depositTo(address)": "b760faf9",
			"deposits(address)": "fc7e286d",
			"getDepositInfo(address)": "5287ce12",
			"getNonce(address,uint192)": "35567e1a",
			"getSenderAddress(bytes)": "9b249f69",
			"getUserOpHash((address,uint256,uint64,bytes,bytes,bytes32,uint256,bytes32,bytes,bytes))": "767f4d7e",
			"handleAggregatedOps(((address,uint256,uint64,bytes,bytes,bytes32,uint256,bytes32,bytes,bytes)[],address,bytes)[],address)": "7483aafa",
			"handleOps((address,uint256,uint64,bytes,bytes,bytes32,uint256,bytes32,bytes,bytes)[],address)": "20e61ef3",
			"incrementNonce(uint192)": "0bd28e3b",
			"innerHandleOp(bytes,((address,uint256,uint64,uint256,uint256,uint256,uint256,uint256,address,uint256,uint256),bytes32,uint256,uint256,uint256),bytes)": "a2578253",
			"nonceSequenceNumber(address,uint192)": "1b2e01b8",
			"supportsInterface(bytes4)": "01ffc9a7",
			"unlockStake()": "bb9fe6bf",
			"withdrawStake(address)": "c23a5cea",
			"withdrawTo(address,uint256)": "205c2878"
		}
	},
	"abi": [
		{
			"inputs": [
				{
					"internalType": "bool",
					"name": "success",
					"type": "bool"
				},
				{
					"internalType": "bytes",
					"name": "ret",
					"type": "bytes"
				}
			],
			"name": "DelegateAndRevert",
			"type": "error"
		},
		{
			"inputs": [
				{
					"internalType": "uint256",
					"name": "opIndex",
					"type": "uint256"
				},
				{
					"internalType": "string",
					"name": "reason",
					"type": "string"
				}
			],
			"name": "FailedOp",
			"type": "error"
		},
		{
			"inputs": [
				{
					"internalType": "uint256",
					"name": "opIndex",
					"type": "uint256"
				},
				{
					"internalType": "string",
					"name": "reason",
					"type": "string"
				},
				{
					"internalType": "bytes",
					"name": "inner",
					"type": "bytes"
				}
			],
			"name": "FailedOpWithRevert",
			"type": "error"
		},
		{
			"inputs": [
				{
					"internalType": "bytes",
					"name": "returnData",
					"type": "bytes"
				}
			],
			"name": "PostOpReverted",
			"type": "error"
		},
		{
			"inputs": [],
			"name": "ReentrancyGuardReentrantCall",
			"type": "error"
		},
		{
			"inputs": [
				{
					"internalType": "address",
					"name": "sender",
					"type": "address"
				}
			],
			"name": "SenderAddressResult",
			"type": "error"
		},
		{
			"inputs": [
				{
					"internalType": "address",
					"name": "aggregator",
					"type": "address"
				}
			],
			"name": "SignatureValidationFailed",
			"type": "error"
		},
		{
			"anonymous": false,
			"inputs": [
				{
					"indexed": true,
					"internalType": "bytes32",
					"name": "userOpHash",
					"type": "bytes32"
				},
				{
					"indexed": true,
					"internalType": "address",
					"name": "sender",
					"type": "address"
				},
				{
					"indexed": false,
					"internalType": "address",
					"name": "factory",
					"type": "address"
				},
				{
					"indexed": false,
					"internalType": "address",
					"name": "paymaster",
					"type": "address"
				}
			],
			"name": "AccountDeployed",
			"type": "event"
		},
		{
			"anonymous": false,
			"inputs": [],
			"name": "BeforeExecution",
			"type": "event"
		},
		{
			"anonymous": false,
			"inputs": [
				{
					"indexed": true,
					"internalType": "address",
					"name": "account",
					"type": "address"
				},
				{
					"indexed": false,
					"internalType": "uint256",
					"name": "totalDeposit",
					"type": "uint256"
				}
			],
			"name": "Deposited",
			"type": "event"
		},
		{
			"anonymous": false,
			"inputs": [
				{
					"indexed": true,
					"internalType": "bytes32",
					"name": "userOpHash",
					"type": "bytes32"
				},
				{
					"indexed": true,
					"internalType": "address",
					"name": "sender",
					"type": "address"
				},
				{
					"indexed": false,
					"internalType": "uint256",
					"name": "nonce",
					"type": "uint256"
				},
				{
					"indexed": false,
					"internalType": "bytes",
					"name": "revertReason",
					"type": "bytes"
				}
			],
			"name": "PostOpRevertReason",
			"type": "event"
		},
		{
			"anonymous": false,
			"inputs": [
				{
					"indexed": true,
					"internalType": "address",
					"name": "aggregator",
					"type": "address"
				}
			],
			"name": "SignatureAggregatorChanged",
			"type": "event"
		},
		{
			"anonymous": false,
			"inputs": [
				{
					"indexed": true,
					"internalType": "address",
					"name": "account",
					"type": "address"
				},
				{
					"indexed": false,
					"internalType": "uint256",
					"name": "totalStaked",
					"type": "uint256"
				},
				{
					"indexed": false,
					"internalType": "uint256",
					"name": "unstakeDelaySec",
					"type": "uint256"
				}
			],
			"name": "StakeLocked",
			"type": "event"
		},
		{
			"anonymous": false,
			"inputs": [
				{
					"indexed": true,
					"internalType": "address",
					"name": "account",
					"type": "address"
				},
				{
					"indexed": false,
					"internalType": "uint256",
					"name": "withdrawTime",
					"type": "uint256"
				}
			],
			"name": "StakeUnlocked",
			"type": "event"
		},
		{
			"anonymous": false,
			"inputs": [
				{
					"indexed": true,
					"internalType": "address",
					"name": "account",
					"type": "address"
				},
				{
					"indexed": false,
					"internalType": "address",
					"name": "withdrawAddress",
					"type": "address"
				},
				{
					"indexed": false,
					"internalType": "uint256",
					"name": "amount",
					"type": "uint256"
				}
			],
			"name": "StakeWithdrawn",
			"type": "event"
		},
		{
			"anonymous": false,
			"inputs": [
				{
					"indexed": true,
					"internalType": "bytes32",
					"name": "userOpHash",
					"type": "bytes32"
				},
				{
					"indexed": true,
					"internalType": "address",
					"name": "sender",
					"type": "address"
				},
				{
					"indexed": true,
					"internalType": "address",
					"name": "paymaster",
					"type": "address"
				},
				{
					"indexed": false,
					"internalType": "uint256",
					"name": "nonce",
					"type": "uint256"
				},
				{
					"indexed": false,
					"internalType": "bool",
					"name": "success",
					"type": "bool"
				},
				{
					"indexed": false,
					"internalType": "uint256",
					"name": "actualGasCost",
					"type": "uint256"
				},
				{
					"indexed": false,
					"internalType": "uint256",
					"name": "actualGasUsed",
					"type": "uint256"
				}
			],
			"name": "UserOperationEvent",
			"type": "event"
		},
		{
			"anonymous": false,
			"inputs": [
				{
					"indexed": true,
					"internalType": "bytes32",
					"name": "userOpHash",
					"type": "bytes32"
				},
				{
					"indexed": true,
					"internalType": "address",
					"name": "sender",
					"type": "address"
				},
				{
					"indexed": false,
					"internalType": "uint256",
					"name": "nonce",
					"type": "uint256"
				}
			],
			"name": "UserOperationPrefundTooLow",
			"type": "event"
		},
		{
			"anonymous": false,
			"inputs": [
				{
					"indexed": true,
					"internalType": "bytes32",
					"name": "userOpHash",
					"type": "bytes32"
				},
				{
					"indexed": true,
					"internalType": "address",
					"name": "sender",
					"type": "address"
				},
				{
					"indexed": false,
					"internalType": "uint256",
					"name": "nonce",
					"type": "uint256"
				},
				{
					"indexed": false,
					"internalType": "bytes",
					"name": "revertReason",
					"type": "bytes"
				}
			],
			"name": "UserOperationRevertReason",
			"type": "event"
		},
		{
			"anonymous": false,
			"inputs": [
				{
					"indexed": true,
					"internalType": "address",
					"name": "account",
					"type": "address"
				},
				{
					"indexed": false,
					"internalType": "address",
					"name": "withdrawAddress",
					"type": "address"
				},
				{
					"indexed": false,
					"internalType": "uint256",
					"name": "amount",
					"type": "uint256"
				}
			],
			"name": "Withdrawn",
			"type": "event"
		},
		{
			"inputs": [
				{
					"internalType": "uint32",
					"name": "unstakeDelaySec",
					"type": "uint32"
				}
			],
			"name": "addStake",
			"outputs": [],
			"stateMutability": "payable",
			"type": "function"
		},
		{
			"inputs": [
				{
					"internalType": "address",
					"name": "account",
					"type": "address"
				}
			],
			"name": "balanceOf",
			"outputs": [
				{
					"internalType": "uint256",
					"name": "",
					"type": "uint256"
				}
			],
			"stateMutability": "view",
			"type": "function"
		},
		{
			"inputs": [
				{
					"internalType": "address",
					"name": "target",
					"type": "address"
				},
				{
					"internalType": "bytes",
					"name": "data",
					"type": "bytes"
				}
			],
			"name": "delegateAndRevert",
			"outputs": [],
			"stateMutability": "nonpayable",
			"type": "function"
		},
		{
			"inputs": [
				{
					"internalType": "address",
					"name": "account",
					"type": "address"
				}
			],
			"name": "depositTo",
			"outputs": [],
			"stateMutability": "payable",
			"type": "function"
		},
		{
			"inputs": [
				{
					"internalType": "address",
					"name": "",
					"type": "address"
				}
			],
			"name": "deposits",
			"outputs": [
				{
					"internalType": "uint256",
					"name": "deposit",
					"type": "uint256"
				},
				{
					"internalType": "bool",
					"name": "staked",
					"type": "bool"
				},
				{
					"internalType": "uint112",
					"name": "stake",
					"type": "uint112"
				},
				{
					"internalType": "uint32",
					"name": "unstakeDelaySec",
					"type": "uint32"
				},
				{
					"internalType": "uint48",
					"name": "withdrawTime",
					"type": "uint48"
				}
			],
			"stateMutability": "view",
			"type": "function"
		},
		{
			"inputs": [
				{
					"internalType": "address",
					"name": "account",
					"type": "address"
				}
			],
			"name": "getDepositInfo",
			"outputs": [
				{
					"components": [
						{
							"internalType": "uint256",
							"name": "deposit",
							"type": "uint256"
						},
						{
							"internalType": "bool",
							"name": "staked",
							"type": "bool"
						},
						{
							"internalType": "uint112",
							"name": "stake",
							"type": "uint112"
						},
						{
							"internalType": "uint32",
							"name": "unstakeDelaySec",
							"type": "uint32"
						},
						{
							"internalType": "uint48",
							"name": "withdrawTime",
							"type": "uint48"
						}
					],
					"internalType": "struct IStakeManager.DepositInfo",
					"name": "info",
					"type": "tuple"
				}
			],
			"stateMutability": "view",
			"type": "function"
		},
		{
			"inputs": [
				{
					"internalType": "address",
					"name": "sender",
					"type": "address"
				},
				{
					"internalType": "uint192",
					"name": "key",
					"type": "uint192"
				}
			],
			"name": "getNonce",
			"outputs": [
				{
					"internalType": "uint256",
					"name": "nonce",
					"type": "uint256"
				}
			],
			"stateMutability": "view",
			"type": "function"
		},
		{
			"inputs": [
				{
					"internalType": "bytes",
					"name": "initCode",
					"type": "bytes"
				}
			],
			"name": "getSenderAddress",
			"outputs": [],
			"stateMutability": "nonpayable",
			"type": "function"
		},
		{
			"inputs": [
				{
					"components": [
						{
							"internalType": "address",
							"name": "sender",
							"type": "address"
						},
						{
							"internalType": "uint256",
							"name": "nonce",
							"type": "uint256"
						},
						{
							"internalType": "uint64",
							"name": "chainId",
							"type": "uint64"
						},
						{
							"internalType": "bytes",
							"name": "initCode",
							"type": "bytes"
						},
						{
							"internalType": "bytes",
							"name": "callData",
							"type": "bytes"
						},
						{
							"internalType": "bytes32",
							"name": "accountGasLimits",
							"type": "bytes32"
						},
						{
							"internalType": "uint256",
							"name": "preVerificationGas",
							"type": "uint256"
						},
						{
							"internalType": "bytes32",
							"name": "gasFees",
							"type": "bytes32"
						},
						{
							"internalType": "bytes",
							"name": "paymasterAndData",
							"type": "bytes"
						},
						{
							"internalType": "bytes",
							"name": "signature",
							"type": "bytes"
						}
					],
					"internalType": "struct PackedUserOperation",
					"name": "userOp",
					"type": "tuple"
				}
			],
			"name": "getUserOpHash",
			"outputs": [
				{
					"internalType": "bytes32",
					"name": "",
					"type": "bytes32"
				}
			],
			"stateMutability": "view",
			"type": "function"
		},
		{
			"inputs": [
				{
					"components": [
						{
							"components": [
								{
									"internalType": "address",
									"name": "sender",
									"type": "address"
								},
								{
									"internalType": "uint256",
									"name": "nonce",
									"type": "uint256"
								},
								{
									"internalType": "uint64",
									"name": "chainId",
									"type": "uint64"
								},
								{
									"internalType": "bytes",
									"name": "initCode",
									"type": "bytes"
								},
								{
									"internalType": "bytes",
									"name": "callData",
									"type": "bytes"
								},
								{
									"internalType": "bytes32",
									"name": "accountGasLimits",
									"type": "bytes32"
								},
								{
									"internalType": "uint256",
									"name": "preVerificationGas",
									"type": "uint256"
								},
								{
									"internalType": "bytes32",
									"name": "gasFees",
									"type": "bytes32"
								},
								{
									"internalType": "bytes",
									"name": "paymasterAndData",
									"type": "bytes"
								},
								{
									"internalType": "bytes",
									"name": "signature",
									"type": "bytes"
								}
							],
							"internalType": "struct PackedUserOperation[]",
							"name": "userOps",
							"type": "tuple[]"
						},
						{
							"internalType": "contract IAggregator",
							"name": "aggregator",
							"type": "address"
						},
						{
							"internalType": "bytes",
							"name": "signature",
							"type": "bytes"
						}
					],
					"internalType": "struct IEntryPoint.UserOpsPerAggregator[]",
					"name": "opsPerAggregator",
					"type": "tuple[]"
				},
				{
					"internalType": "address payable",
					"name": "beneficiary",
					"type": "address"
				}
			],
			"name": "handleAggregatedOps",
			"outputs": [],
			"stateMutability": "nonpayable",
			"type": "function"
		},
		{
			"inputs": [
				{
					"components": [
						{
							"internalType": "address",
							"name": "sender",
							"type": "address"
						},
						{
							"internalType": "uint256",
							"name": "nonce",
							"type": "uint256"
						},
						{
							"internalType": "uint64",
							"name": "chainId",
							"type": "uint64"
						},
						{
							"internalType": "bytes",
							"name": "initCode",
							"type": "bytes"
						},
						{
							"internalType": "bytes",
							"name": "callData",
							"type": "bytes"
						},
						{
							"internalType": "bytes32",
							"name": "accountGasLimits",
							"type": "bytes32"
						},
						{
							"internalType": "uint256",
							"name": "preVerificationGas",
							"type": "uint256"
						},
						{
							"internalType": "bytes32",
							"name": "gasFees",
							"type": "bytes32"
						},
						{
							"internalType": "bytes",
							"name": "paymasterAndData",
							"type": "bytes"
						},
						{
							"internalType": "bytes",
							"name": "signature",
							"type": "bytes"
						}
					],
					"internalType": "struct PackedUserOperation[]",
					"name": "ops",
					"type": "tuple[]"
				},
				{
					"internalType": "address payable",
					"name": "beneficiary",
					"type": "address"
				}
			],
			"name": "handleOps",
			"outputs": [],
			"stateMutability": "nonpayable",
			"type": "function"
		},
		{
			"inputs": [
				{
					"internalType": "uint192",
					"name": "key",
					"type": "uint192"
				}
			],
			"name": "incrementNonce",
			"outputs": [],
			"stateMutability": "nonpayable",
			"type": "function"
		},
		{
			"inputs": [
				{
					"internalType": "bytes",
					"name": "callData",
					"type": "bytes"
				},
				{
					"components": [
						{
							"components": [
								{
									"internalType": "address",
									"name": "sender",
									"type": "address"
								},
								{
									"internalType": "uint256",
									"name": "nonce",
									"type": "uint256"
								},
								{
									"internalType": "uint64",
									"name": "chainId",
									"type": "uint64"
								},
								{
									"internalType": "uint256",
									"name": "verificationGasLimit",
									"type": "uint256"
								},
								{
									"internalType": "uint256",
									"name": "callGasLimit",
									"type": "uint256"
								},
								{
									"internalType": "uint256",
									"name": "paymasterVerificationGasLimit",
									"type": "uint256"
								},
								{
									"internalType": "uint256",
									"name": "paymasterPostOpGasLimit",
									"type": "uint256"
								},
								{
									"internalType": "uint256",
									"name": "preVerificationGas",
									"type": "uint256"
								},
								{
									"internalType": "address",
									"name": "paymaster",
									"type": "address"
								},
								{
									"internalType": "uint256",
									"name": "maxFeePerGas",
									"type": "uint256"
								},
								{
									"internalType": "uint256",
									"name": "maxPriorityFeePerGas",
									"type": "uint256"
								}
							],
							"internalType": "struct EntryPoint.MemoryUserOp",
							"name": "mUserOp",
							"type": "tuple"
						},
						{
							"internalType": "bytes32",
							"name": "userOpHash",
							"type": "bytes32"
						},
						{
							"internalType": "uint256",
							"name": "prefund",
							"type": "uint256"
						},
						{
							"internalType": "uint256",
							"name": "contextOffset",
							"type": "uint256"
						},
						{
							"internalType": "uint256",
							"name": "preOpGas",
							"type": "uint256"
						}
					],
					"internalType": "struct EntryPoint.UserOpInfo",
					"name": "opInfo",
					"type": "tuple"
				},
				{
					"internalType": "bytes",
					"name": "context",
					"type": "bytes"
				}
			],
			"name": "innerHandleOp",
			"outputs": [
				{
					"internalType": "uint256",
					"name": "actualGasCost",
					"type": "uint256"
				}
			],
			"stateMutability": "nonpayable",
			"type": "function"
		},
		{
			"inputs": [
				{
					"internalType": "address",
					"name": "",
					"type": "address"
				},
				{
					"internalType": "uint192",
					"name": "",
					"type": "uint192"
				}
			],
			"name": "nonceSequenceNumber",
			"outputs": [
				{
					"internalType": "uint256",
					"name": "",
					"type": "uint256"
				}
			],
			"stateMutability": "view",
			"type": "function"
		},
		{
			"inputs": [
				{
					"internalType": "bytes4",
					"name": "interfaceId",
					"type": "bytes4"
				}
			],
			"name": "supportsInterface",
			"outputs": [
				{
					"internalType": "bool",
					"name": "",
					"type": "bool"
				}
			],
			"stateMutability": "view",
			"type": "function"
		},
		{
			"inputs": [],
			"name": "unlockStake",
			"outputs": [],
			"stateMutability": "nonpayable",
			"type": "function"
		},
		{
			"inputs": [
				{
					"internalType": "address payable",
					"name": "withdrawAddress",
					"type": "address"
				}
			],
			"name": "withdrawStake",
			"outputs": [],
			"stateMutability": "nonpayable",
			"type": "function"
		},
		{
			"inputs": [
				{
					"internalType": "address payable",
					"name": "withdrawAddress",
					"type": "address"
				},
				{
					"internalType": "uint256",
					"name": "withdrawAmount",
					"type": "uint256"
				}
			],
			"name": "withdrawTo",
			"outputs": [],
			"stateMutability": "nonpayable",
			"type": "function"
		},
		{
			"stateMutability": "payable",
			"type": "receive"
		}
	]
}